S0180000526F626F744669726D776172657631352E73726563ED
S214400000501A4020290C4000250C4000250C40008A
S214400010250C4000250C4000250C40000000000048
S214400020000000000000000000000000250C40001A
S214400030250C400000000000250C4000250C400028
S214400040250C4000250C4000250C4000250C4000A7
S214400050250C4000250C4000250C4000250C400097
S214400060250C4000000000001D1A4000111A4000F8
S214400070250C4000250C4000250C4000250C400077
S214400080250C4000250C4000250C4000250C400067
S214400090250C4000250C4000250C4000250C400057
S2144000A0250C4000250C4000250C4000250C400047
S2144000B0250C4000250C4000250C4000551B4000F8
S2144000C0250C4000250C4000250C4000250C400027
S2144000D0250C4000250C4000250C4000250C400017
S2144000E0250C4000250C4000250C4000250C400007
S2144000F0250C4000250C4000250C4000250C4000F7
S214400100250C4000250C4000250C4000250C4000E6
S214400110250C4000250C40000000000000000000B8
S214400120250C4000250C4000250C4000250C4000C6
S214400130250C4000250C4000250C4000250C4000B6
S214400140250C4000250C4000250C4000250C4000A6
S214400150250C4000250C4000250C4000250C400096
S214400160250C4000250C400010B5054C237833B9CB
S214400170044B13B10448AFF300800123237010BD35
S2144001806400402000000000B04C40000C4B43B1DF
S2144001900C480D4910B5AFF300800C48036823B9EE
S2144001A010BD0A48036833B97047094B002BF7D097
S2144001B0BDE810401847064B002BF5D0184700BF47
S2144001C000000000B04C400068004020B04C4000AA
S2144001D00000000008B5024B9847024B984708BD00
S2144001E0810F40000124400010B50124FF2C0ADC9A
S2144001F0C4EBC4025300064906481844064B9847C9
S21440020018B10134F2E74FF47A74204610BD00BFAF
S214400210C43D4000CC044020C130400010B501240D
S214400220FF2C0ADCC4EBC4025300064906481844B7
S214400230064B984718B10134F2E74FF47A742046DB
S21440024010BD00BFCC3D4000CC044020C130400033
S214400250012907D0022907D003290AD0042910D043
S21440026000207047007870470378407843EA0020C3
S21440027070470378427843EA0223807843EA004096
S21440028070470378427843EA0223827843EA02437F
S214400290C07843EA006070472DE9F0472DED048BA7
S2144002A0C8B000234793ADF81831022246A99F4BA9
S2144002B018689F4B98479DF8183113B99DF8193127
S2144002C05BB3DFF86882042247A9D8F80000984F4D
S2144002D0B8479DF81D319DF81C4144EA0324C4F3F9
S2144002E00E049DF81E619DF81F912046914B98473D
S2144002F0054622460021904B984722462946D8F884
S2144003000000B8478D4B03F806908D4B53F82630C7
S214400310012B07D08B488C4B984748B0BDEC048BDC
S214400320BDE8F087002E40F059812B7933B1012B80
S21440033000F0A7808548844B984758E18448824B14
S21440034098474FF48072002106A87B4B98470526B5
S2144003504FF000091FE0022B5CD00FD9032B64D06E
S214400360042B40F08A80394640467A4B98470146EF
S214400370794B986079487A4B98470AE04BB1012B05
S2144003807BD139464046734B984701467548744B77
S21440039098473E440236A64280F22981731CEF5CA1
S2144003A04FF48072002106A8634B984706F1020876
S2144003B0A8443A46414606A86B4B9847AB5D052B8A
S2144003C03ED0C8D9082B4ED017D9802B50D0812B81
S2144003D0DFD0092B51D1C9EBC9034FEA430A634B1F
S2144003E09A443A46414650465F4B98475146604885
S2144003F05B4B984709F10109CBE7062B2BD0072B1F
S2144004003BD139464046534B984701465948544B92
S2144004109847BEE7394640464E4B984701464E4BB6
S214400420186055484E4B9847B3E739464046494BC7
S21440043098470146484B58605048494B9847A8E76C
S21440044039464046434B98470146434BD8604C4854
S214400450434B98479DE70121394B43F829104948BB
S2144004603F4B984795E7414647483D4B984790E76E
S214400470414646483A4B98478BE74548384B98475D
S21440048087E74448304B9847052603E042482E4BC2
S21440049098470136A64280F2AA80AB5D0C2B00F24C
S2144004A0998001A252F823F08D044000DD044000FC
S2144004B0E5044000ED044000F5044000FD04400023
S2144004C0050540000D054000150540001D0540008F
S2144004D025054000C5054000CD0540002F481A4B75
S2144004E09847D6E72E48184B9847D2E72D48164BE4
S2144004F09847CEE72C48144B9847CAE72B48124BF0
S2144005009847C6E72A48104B9847C2E729480E4BFB
S2144005109847BEE728480C4B9847BAE727480A4B07
S2144005209847B6E72648084B9847B2E7CC13402092
S214400530111340009D2C4000D32C4000CC1240208C
S214400540CC004020D83D4000252F4000504340007E
S214400550403E40005102400080004020A83E4000FF
S2144005603D2E40005C3E4000BD2C4000CC04402068
S214400570143F4000F03E4000683E4000883E400049
S214400580C03E4000D83E4000043F4000283F400068
S2144005903C3F4000703F4000843F4000903F40005A
S2144005A0D03F40000C4040005840400000414000D2
S2144005B07C414000E04140000C4240004442400044
S2144005C0684240009748984B984762E79748964B52
S2144005D098475EE79648944B98475AE7954B984716
S2144005E0864208D0944B9847864200F0DC802846E6
S2144005F0924B984791E692488B4B98472B79F13B24
S2144006000B2B00F2CC80DFE813F09800CA0066009F
S214400610CA005700CA00CA003300CA00CA00CA004F
S2144006200C008848804B984769798748874CA04794
S214400630A9798748A0470221E81D864EB047014663
S2144006408548A047042105F10900B0470146834884
S214400650A047042105F10D00B04701468048A04759
S214400660042105F11100B04701467E48A047BEE789
S2144006707D486D4B984769797C48744CA047A9796A
S2144006807B48A047E9797B48A047042105F108004C
S214400690704EB04701467848A047042105F10C004B
S2144006A0B04701467548A047022105F11000B04703
S2144006B001467348A0479AE772485B4B984769796A
S2144006C07148624CA0470221A81D624B98470146DC
S2144006D06E48A0478BE76E48534B98476C79240981
S2144006E021466C48594EB047697901F00F016A4877
S2144006F0B0470221A81D574B984701466348B0476C
S214400700012C09D0022105F11000524B98470146B2
S21440071062484E4B98476AE7042105F108004D4E63
S214400720B04701465E48494CA047022105F11000FB
S214400730B04701465948A04759E75A483A4B984768
S21440074069795948414CA047A9795848A047E97962
S2144007505748A047297A5748A047697A5648A0473D
S214400760A97A5648A047E97A5548A047297B554874
S214400770A047697B5448A047A97B5448A047E97BDB
S2144007805348A047297C5348A047697C5248A04715
S214400790A97C5248A047E97C5148A04727E75148E2
S2144007A02A4B984723E750481F4B984704216879BF
S2144007B0284B984701464D48244B98476B7A013B57
S2144007C0152B00F2508101A252F823F0EF054000AD
S2144007D0EF054000EF054000EF054000F1084000FF
S2144007E0EF054000EF054000EF054000EF054000F4
S2144007F0670A4000670A4000670A4000670A4000F0
S214400800670A4000EF054000670A4000670A40005C
S214400810670A4000670A4000EF054000EF054000C9
S214400820EF054000B4424000252F400018434000EA
S21440083040434000E90140001D024000AD2C40000E
S21440084084434000A4434000D04340003D2E400037
S214400850EC43400051024000044440002044400025
S21440086038444000504440007C444000A44440008B
S214400870B8444000D0444000E844400000454000B2
S2144008801845400030454000584540006C45400003
S21440089080454000A8454000BC454000DC4540003F
S2144008A0CC454000EC4540002C46400014464000F5
S2144008B0244640004446400064464000744640009B
S2144008C08446400094464000A4464000B44640005B
S2144008D0C4464000D4464000E4464000F44640004B
S2144008E004474000184740005C47400080474000AF
S2144008F05F48604B9847A97A5F48604CA047E97AC2
S2144009005F48A047297B5F48A047AA7B6B7B43EAAA
S21440091002231BB207EE903AF8EEE77ADFED5A9ADA
S2144009205A4E67EEA97A17EE900AB04702460B4633
S2144009305748A0472A7CEB7B43EA02231BB207EECC
S214400940903AF8EEE77A67EEA97A17EE900AB04743
S21440095002460B464F48A047AA7C6B7C43EA0223DC
S2144009601BB207EE903AF8EEE77A67EEA97A17EEF2
S214400970900AB04702460B464748A0472A7DEB7C84
S21440098043EA02231BB207EE903AF8EEE77A67EEA8
S214400990A97A17EE900AB04702460B463F48A04752
S2144009A0AA7D6B7D43EA02231BB207EE903AF8EE2F
S2144009B0E77A9FED3B7A67EE877A17EE900AB04764
S2144009C002460B463748A047374A1168287DEB7CDD
S2144009D043EA00231BB207EE903AF8EEE77A67EE5A
S2144009E0A97AC1ED007A1268A97B6B7B43EA0123A2
S2144009F01BB208EE103AB8EEC88A28EE298A82ED75
S214400A00018A297CEB7B43EA01231BB208EE903A2D
S214400A10F8EEE88A68EEA98AC2ED028AA97C6B7C69
S214400A2043EA01231BB209EE103AB8EEC99A29EE02
S214400A30299A82ED039A1068B0478046894619EE97
S214400A40100AB047CDE9040118EE900AB047CDE948
S214400A50020118EE100AB047CDE9000142464B4667
S214400A601248A047C3E51248044B9847BFE500BF6D
S214400A7094474000252F40002C4640003D2E400025
S214400A80BC454000B847400000008038E92640009A
S214400A90C8474000E4474000004840001C4840002B
S214400AA00000803938484000D01340205448400069
S214400AB06448400070B506460D46094C0949204634
S214400AC0094B98472046094B98474FF40062294601
S214400AD02046074B9847074B1E60074B1D7070BD5E
S214400AE028144020D4134020D9124000BD124000A4
S214400AF0C9124000D8134020DC13402000F0C80044
S214400B0040F010004B1E042B01D8084370470021CC
S214400B10FBE70000052800D9704770B582B0044650
S214400B200D480E4B984702AD002305F8013D0C4E8C
S214400B300122294630680B4B984721469DF807000E
S214400B40094B98478DF80700012229463068074B25
S214400B50984702B070BD00BF58494000252F40005E
S214400B60D413402011134000FD0A4000E11240001B
S214400B7010B50C462121034B98472046024B984718
S214400B8010BD00BFB50A4000150B4000012900D932
S214400B90704710B582B00C462421074B984744F066
S214400BA07E0402A901F8014D0122044B1868044B4B
S214400BB0984702B010BD00BFB50A4000D41340208D
S214400BC0E11240000000000038B50F4C02232246D8
S214400BD000210E480E4DA847207863781B0203F488
S214400BE0706318440B4B98470B4C00220B4BA047A6
S214400BF003A3D3E90023A047094B984738BD00BF5D
S214400C009A99999999990D40E01340200C144020E8
S214400C10B5104000C5264000912740000000303FF8
S214400C20B52B4000FEE7000008B5104B104A9A422C
S214400C3009D00E4B0E4A03E01168196004330432A3
S214400C400C498B42F8D30C4B02E000221A60043366
S214400C500A4A9342F9D30A4A0A4B23F07F03936029
S214400C60094B9847094B9847FEE700BF00004020D5
S214400C70B04C400064004020640040204C144020AB
S214400C8000ED00E000004000552C4000ED22400002
S214400C904FF08042014B1A60704700BF00140E4070
S214400CA0044B9B6913F0005F03D14FF00052014B99
S214400CB01A61704700060E4008B5054B9847054B2D
S214400CC09847002204490548054B984708BD00BF91
S214400CD0A10C4000910C400000C003400C14402082
S214400CE059104000034B02225A611A66C3F89020FE
S214400CF01A60704700100E40034B20225A611A6655
S214400D00C3F890201A607047000E0E40184B1A6FBA
S214400D1042F400621A675A6F22F400625A674FF430
S214400D2000625A60A3F5C0631A6F22F004021A6785
S214400D305A6F22F004025A6704225A6003F5806311
S214400D401A6F42F400221A675A6F22F400225A673A
S214400D504FF400225A601A6F42F400521A675A6FD4
S214400D6022F400525A674FF400525A60704700BF50
S214400D7000140E40044B9B69002B03DB4FF00042EF
S214400D80014B1A61704700BF00060E4008B5064B7F
S214400D909847064B9847064B9847024605490648EB
S214400DA0064B984708BD00BF750D40000D0D40002E
S214400DB0A11C400000000240E413402055134000B0
S214400DC0114B1A6F42F480121A675A6F22F480123F
S214400DD05A674FF480125A601A6F42F400121A672C
S214400DE05A6F22F400125A674FF400125A601A6F74
S214400DF042F480021A675A6F22F480025A674FF410
S214400E0080025A60704700BF00140E40044B9B6936
S214400E1013F4001F03D14FF40012014B1A617047C0
S214400E2000060E4010B5084B9847084B9847084CAC
S214400E3001462046074B984707492046074B9847A8
S214400E40074B984710BD00BF0D0E4000651E400082
S214400E50101440209913400000800040B913400011
S214400E60C10D40000A4B1A6F22F010021A675A6FE3
S214400E7022F010025A6710225A601A6F22F00802B7
S214400E801A675A6F22F008025A6708225A6070475B
S214400E90000E0E40044B9B6913F4002F03D14FF411
S214400EA00022014B1A61704700060E4008B5044BFD
S214400EB0984704490448054B9847054B984708BD52
S214400EC0950E400000800140281440207D124000CE
S214400ED0650E400008B50248024B984708BD00BF63
S214400EE010E000E0711140000F4B1A6F22F4001220
S214400EF01A675A6F22F400125A674FF400125A606B
S214400F000A4AD2F8143143F01003C2F81431084BA1
S214400F101A6F42F010021A675A6F42F010025A6770
S214400F2010225A60704700BF000E0E4000800840F6
S214400F3000100E40044B9B6913F4804F03D14FF4CE
S214400F408042014B1A61704700060E4008B5064BBA
S214400F509847064B9847064B984702460549064829
S214400F60064B984708BD00BF350F4000E90E4000CD
S214400F70E9224000008002400014402091154000C5
S214400F8008B5284B9847284B9B6913F4806F03D1CC
S214400F904FF48062244B1A61234B9B6913F4006F15
S214400FA003D14FF40062204B1A611F4B9B6913F428
S214400FB0805F03D14FF480521B4B1A611A4B9B69DA
S214400FC013F4803F03D14FF48032174B1A61174A0F
S214400FD0536843F400435360154B01221A631A6169
S214400FE01A6003F580634FF400725A631A611A6000
S214400FF003F500734FF000725A631A611A600D4B86
S21440100098470D4B98470D4B98470D4B98470D4BBF
S21440101098470D4B98470D4B98470D4B98470D4BAF
S214401020984708BDA117400000060E4050180E40D5
S214401030000E0E40B90C4000E50C4000F90C400094
S2144010408D0D4000250E4000AD0E4000D50E4000F0
S2144010504D0F4000E911400038B504460D460028C3
S21440106018BF002914BF0120002039220349044B31
S214401070984729462046034B984738BD6849400064
S214401080051640002517400038B50D4604464E224A
S2144010900549003018BF0120044B98472946204692
S2144010A0034B9847002038BD68494000051640006D
S2144010B05D1740002DE9F0470D4699460746904695
S2144010C0002818BF002A02D0CBB9002000E000203C
S2144010D0DFF87CA067225146184EB0473C4638465B
S2144010E0174B9847074699FBF0F007FB109069228C
S2144010F05146B0FA80F04009B047002605E001208E
S214401100E6E73E44B6B2B14515D920460D4B984762
S214401110294620460C4B98470028F9D029462046B9
S2144011200A4B984708F80600012FEAD9731C000AB4
S21440113008F80300E5E73046BDE8F08705164000AE
S21440114069174000811740006D174000891740001E
S21440115068494000EFF31083036072B6BFF35F8FB9
S2144011607047BFF35F8F036883F3108870470000B3
S21440117008B5024B1860024B984708BD94004020C3
S2144011807D1E400010B5044B1C68044B9847014632
S2144011902046034B984710BD9400402095174000CA
S2144011A0891E400038B50225002407E00D4A52F853
S2144011B03330B3B1984738BD013AD5B2AC4210D8B7
S2144011C02B195B10DAB2012A0BD81346054901EBFE
S2144011D0C20149688142E9D08142EDD20132D4B29F
S2144011E0ECE738BD9800402008B500230AE0084ADE
S2144011F002EBC3014FF0FF304860002142F8331045
S21440120001339BB2012BF2D90248034B984708BDE5
S21440121098004020A5114000291A400010B584B01F
S2144012200389ADF80430144602924FF40043ADF8FB
S2144012300630039101A91438034B984710B920464D
S21440124004B010BD0446FAE76D1F400010B584B0E8
S2144012500389ADF804301446029248F20103ADF813
S2144012600630039101A91438034B984710B920461D
S21440127004B010BD0446FAE76D1F400038B50D4671
S21440128004465E220849003018BF0120074B9847A5
S21440129029462046064B9847034618B9054AA26198
S2144012A0054A6261184638BD84494000051640002C
S2144012B0011F40004D1240001D12400008B5014B72
S2144012C0984708BD491F4000C1F3090102F48062F7
S2144012D00A438283104670471430086000207047E7
S2144012E070B5164604460D46002818BF002914BFA0
S2144012F00120002034220449044B98472368324694
S21440130029462046984770BDA04940000516400033
S21440131070B5164604460D46002818BF002914BF6F
S214401320012000203D220449044B9847636832461A
S21440133029462046984770BDA04940000516400003
S21440134008B5436903B1984708BD08B5836903B13A
S214401350984708BD38B504460D46002818BF0029F2
S21440136014BF0120002033220649074B98472946E0
S2144013702046064B9847064B2360064B636000208A
S21440138038BD00BFB449400005164000691B400008
S214401390411340004B13400038B50D4604463922F1
S2144013A00349003018BF0120024B9847256038BDDE
S2144013B0CC4940000516400038B504460D46002886
S2144013C018BF002914BF01200020402209490A4BBB
S2144013D09847204640F8045F2946084B984700281F
S2144013E007DB4FF40043A382054B2361054BE360C4
S2144013F0002038BDCC49400005164000BD1C4000CA
S214401400851440004914400030B585B005460C466A
S214401410002818BF002914BF01200020B322074926
S214401420074B98472368019363680293A368039326
S21440143001A9281D034B984705B030BDCC49400054
S21440144005164000651D400070B584B00E46154632
S2144014500446A3220849003018BF0120074B98478E
S214401460002302930196039501A9A4F10C00044BB6
S214401470984704B070BD00BFCC49400005164000F8
S2144014800914400070B584B00E46154604468722BF
S2144014900849003018BF0120074B984702960023A2
S2144014A00193039501A9A4F10C00044B984704B09E
S2144014B070BD00BFCC4940000516400009144000EE
S2144014C0F8B5164605460F46002818BF002902D034
S2144014D00ABB002000E00020F1221049104B98473C
S2144014E005F1080420460F4B98470028F8D0002501
S2144014F0795D20460C4B984720460A4B9847002873
S214401500FAD00135B542F3D32046084B9847002819
S214401510FAD02846F8BD0120DEE700BFE849400083
S21440152005164000712240002922400099224000C2
S2144015302DE9F041174605468846002818BF002981
S21440154002D0D2B9002000E000204FF486720C4949
S2144015500C4B9847002605F1080420460A4B98474E
S2144015600028F8D02046094B984708F80600013670
S214401570BE42F0D33046BDE8F0810120E5E700BF2B
S214401580E849400005164000C12240004D22400078
S21440159038B504460D46002818BF002914BF012060
S2144015A0002034220749084B9847294604F1080092
S2144015B0064B9847034618B9054A6260054A2260BA
S2144015C0184638BDE849400005164000BD21400099
S2144015D031154000C114400010B504465322064958
S2144015E0003018BF0120054B984704F10800044B13
S2144015F09847002010BD00BFE8494000051640004F
S214401600F521400000B900BE704700000346064A78
S214401610126822B1044A10680344136070470349B5
S214401620014A1160F6E700BFA8004020501A40204B
S2144016304FF0FF3070474FF400534B600020704728
S214401640012070470020704764231D4A03FB012396
S2144016505A6842609A688260DA68C2601A690261B3
S2144016605A6902659A694265DA6902661A6AC0F87A
S21440167094205A6AC0F8A0209A6AC0F8D020DA6A45
S214401680C0F8D4201B6BC0F8D83000220B2A14D8E0
S21440169010B4426601EB810303EB830313440C331F
S2144016A0074C04EB83035B68C3660132D2B20B2A55
S2144016B0EFD900205DF8044B70470020704700BF0C
S2144016C0044A400008B5094B98420AD003F5203337
S2144016D0984208D0A32206490020064B984700208F
S2144016E008BD002008BD012008BD00BF00C0034063
S2144016F0684A40000516400008B5084B9847002346
S21440170013B10023184608BD642202FB03F20449C5
S2144017108A5C9042F6D00133DBB2F1E7C516400052
S214401720044A400038B50C4605464FF48D720749CA
S214401730003018BF0120064B98472C602046054BCA
S214401740984701462046044B984738BD684A4000B3
S21440175005164000F916400049164000026801236D
S21440176003FA01F151617047022070470268012375
S21440177003FA01F1136B194214BF01200020704791
S214401780036802221A607047036859660368986EB9
S21440179080B270474FF4967303FB00F0704700002A
S2144017A000B583B001A80E4B98470E4AD2F8883051
S2144017B043F47003C2F88830BFF34F8FBFF36F8F88
S2144017C001A8094B9847094A136823F4706343F409
S2144017D0C0631360064B984703B05DF804FB00BF38
S2144017E05511400000ED00E063114000000C0E4033
S2144017F0ED1A400030B400258D4210D2012200235D
S2144018001F2B0AD850F82540224202D152000133FD
S214401810F6E703EB451030BC70470135ECE74FF078
S214401820FF30F8E710B586B0002301930293039388
S21440183004930593214B1868F8222149003018BFBD
S2144018400120204B9847204BDA6C9B6C1340019349
S2144018501E49CA6C896C0A400292134325E0174B16
S2144018601B6820469847631104F01F04012202FAC1
S21440187004F406AA02EB830353F8142C22EA04026B
S21440188043F8142C052101A8114B98470446B4F19F
S214401890FF3FE4D10C4AD16C936C0B4001930B494B
S2144018A0C86C8A6C0240029213432BB1052101A8F2
S2144018B0074B98470446EAE706B010BDAC00402008
S2144018C0C04A400005164000000E0E4000100E4074
S2144018D0F517400010B50446D2220549003018BF1F
S2144018E00120044B984704482044C0F3472010BDCD
S2144018F0C04A40000516400000F2F1BF10B504464D
S214401900E0220D49003018BF01200C4B9847204676
S2144019100B4B98470023012B0BD8C3EBC3018A001F
S21440192008498A5C904202D00133DBB2F3E758B2F2
S21440193010BD4FF0FF3010BDC04A400005164000B5
S214401940D5184000804A400038B5044640F2591247
S2144019502949003018BF0120284B98472046284B7D
S2144019609847002843DB274DC200111A8B002B44B2
S2144019709968C4F8B010D968C4F8C0101969C4F89A
S214401980C4109B69C4F8D030101A83002B445B699E
S214401990C4F8D43020461C4B9847284490F9383039
S2144019A0002B0CDB5A0903F01F0001218140203236
S2144019B0164840F82210BFF34F8FBFF36F8F002BAF
S2144019C008DB5A0903F01F000121814060320F48AE
S2144019D040F82210002B0DDB590903F01F030122AB
S2144019E002FA03F3094A42F82130002038BD6FF06E
S2144019F0100038BD002038BDC04A400005164000E3
S214401A00FD184000804A4000D518400000E100E044
S214401A1008B5014B984708BD2518400008B5014B4E
S214401A20984708BD2518400038B505460448054C7B
S214401A30A0470548A047054B1D60002038BD00BFA5
S214401A40000E0E404919400000100E40AC004020E9
S214401A500E490A6A22F002020D4B13430B620B4BEF
S214401A609B6E13F0010FFAD0084B196A094A0A43D5
S214401A701A62996A084A0A409A62084A9A62034B6E
S214401A809B6E13F0020FFAD0704700BF00060E4060
S214401A90013E370000003701FFFF00F8013F1820E5
S214401AA0114A136B23F0700313630F4B9B6E13F0B6
S214401AB0080FFAD00C4A136B23F4407343F4807338
S214401AC01363094B9B6E13F0080FFAD0064A136B4C
S214401AD023F0030343F002031363034B9B6E13F0A0
S214401AE0080FFAD0704700BF00060E4008B5024BFC
S214401AF09847024B984708BD511A4000A11A40002B
S214401B0000230BB100207047C3EB03118A0006493F
S214401B108A58824202D00133DBB2F2E7C3EB0313AA
S214401B209A00084610447047DC4A4000034B9842EF
S214401B3000D07047024B1960FBE700BF0000024030
S214401B40B000402008B50369DB6913B1036803B1F0
S214401B50984708BD08B5024B1868024B984708BD21
S214401B60B0004020451B4000F8B506460C46081C11
S214401B7018BF012040F271124449454B9847204611
S214401B80444B98470546346183682360C368E367DF
S214401B900369C4F880304369E3658369A366C36913
S214401BA0C4F8C030036AE366436AC4F82C34836AD8
S214401BB0C4F84C34002319E02F6B180107EB000ED5
S214401BC03A5CDEF8041010325201A1503A5CDEF85E
S214401BD00C10103204EB421251603A5CDEF80810EA
S214401BE004EB4212C2F80C1201335BB2EA6A93422B
S214401BF0E2D3002314E0A96B03EB4300820001EB21
S214401C00020E885CDEF8047004EB0010C0F83871F1
S214401C108A5CDEF8081013321201A15001335BB221
S214401C206A6B9342E7D3314620461B4B984795F95B
S214401C300430002B0DDB5A0903F01F03012101FA83
S214401C4003F32032154941F82230BFF34F8FBFF3DC
S214401C506F8F95F90430002B09DB5A0903F01F03F8
S214401C60012101FA03F360320C4941F8223095F91C
S214401C700430002B08DB590903F01F03012202FA47
S214401C8003F3064A42F821300020F8BD584B400086
S214401C9005164000011B40002D1B400000E100E0FF
S214401CA000207047044B0344C3F30743052B01D081
S214401CB000207047012070470080FFBF70B5064681
S214401CC00C460846204B984700233BB300254FF46C
S214401CD09A721E49002E18BF002C14BF0120002007
S214401CE01B4B984755B3236913F4803F29D1802373
S214401CF0236034606A68174B13402360AB68164A0B
S214401D001A40164B13436360EB6823632B8AF380B9
S214401D10EB6803F0F0033371002070BD03EB8301E2
S214401D208A000F498A5C904202D00133DBB2CCE78E
S214401D3003EB8305AB000D461D44C8E76FF00C006F
S214401D4070BD6FF0100070BDA51C4000844B400075
S214401D50051640007CFFFFFE6FFFF1FF10000E00EF
S214401D60704B40002DE9F04186B007460D460468AA
S214401D700B6801934B680293002303930493037903
S214401D808DF81430261C18BF012640F23122334904
S214401D9000280CBF002006F00100314B984723690D
S214401DA013F4803F22D16FF0130053E0002335E058
S214401DB0507841EA00210232019201330393E160F8
S214401DC0D4F8108040F2222224493046244B9847CB
S214401DD018F0080F38D06FF01200002836DB039852
S214401DE0AB68984202D3049A93422FD9236913F0E2
S214401DF0010FDBD0A3689BB2029A5AB1511C0291E4
S214401E0013709DF81420012A04D90A460131029124
S214401E101B0A1370049B013304930123002BCFD17C
S214401E20039B049A9A42CBD3F988226912F0020F98
S214401E30C6D0019A002AC0D0511C019111789DF855
S214401E4014000128B4D8B8E70020C6E7236913F485
S214401E50007FFBD006B0BDE8F08100BF844B400059
S214401E600516400000207047034B6FF07F425A60D3
S214401E7005221A60704700BF10E000E008B5014B2D
S214401E80984708BD691E4000080E0DE00D4B6FF0E8
S214401E907F40586098600B4B1B6813F4803FFAD025
S214401EA001F17F4101311046431EDAB20028EDD1E0
S214401EB0044B59609960034B1B6813F4803FFAD07B
S214401EC0704700BF10E000E000233BB100207047A1
S214401ED003EB4304E300084618440CE010B403EB5D
S214401EE04301CA0005498A588242F1D00133DBB229
S214401EF0002BF4D000205DF8044B70479C4B40000C
S214401F0038B504460D46002818BF002914BF0120E6
S214401F100020782209490A4B984725612846094BF4
S214401F20984743682B60236982689A632369C2682E
S214401F305A64236902691A61002038BDB44B4000D8
S214401F4005164000C91E400010B5044695220549B6
S214401F50003018BF0120044B9847236904221A60BA
S214401F60002010BDB44B40000516400038B504466E
S214401F700D46002818BF002914BF01200020BA22B1
S214401F805249534B9847638813F4807F40F09A80B9
S214401F906B8813F0010F18D16B889BB243F48073A3
S214401FA06B802B8813F4806F5FD022691B0A43F046
S214401FB078031B0403F4FE0343F4807353602369E1
S214401FC02A78DA60002001465CE06B889BB243F4D6
S214401FD080736B802B8813F4806F22D022691B0A93
S214401FE043F078031B0403F4FE0343F48853536022
S214401FF023692A78DA6023696A68012A19D001229F
S2144020001A6000216B68994222D223691A6A12F03C
S214402010020F10D11B6A13F4807FF6D06FF00100D8
S21440202038BD22691B0403F4FE0343F48053536017
S214402030E1E70322E4E7AA681B6B53546B68023B54
S214402040994201D00131DDE7236902221A60F9E79F
S21440205023691B6A13F0010FFAD063889BB223F4FE
S21440206080739BB26380002038BD22691B0403F452
S214402070FE035360A6E76FF0010078B9AB685B5C7F
S214402080536301316B68994208D22269136A13F48C
S214402090807FF0D113F0040FF7D0EEE76B8813F48F
S2144020A0004F06D163889BB223F480739BB2638053
S2144020B038BD236902221A6023691B6A13F0010F98
S2144020C0FAD0EFE76FF0050038BD00BFB44B4000D4
S2144020D00516400010B5044640F22B220549003054
S2144020E018BF0120044B984704482044C0F387306B
S2144020F010BD00BFDC4B40000516400000C0FDBFD1
S21440210010B5044640F287220E49003018BF012021
S2144021100D4B984720460D4B9847002343B140F25D
S214402120912208490020084B98470023184610BDC6
S21440213003EB43018A0006498A5C9042F6D001339D
S214402140DBB2EBE7DC4B400005164000D5204000F4
S214402150D04B400010B5044640F29E221149003054
S21440216018BF0120104B98472046104B9847104BFD
S214402170C4F8E430002363606362A362AC2222604A
S2144021804FF4807222604FF40022226000EB400041
S2144021908100084A0A4452686260074A226218462A
S2144021A010BD00BFDC4B400005164000012140003A
S2144021B000415355D04B4000F4000100F8B50C46A2
S2144021C0094E0746BD223146003018BF0120074D54
S2144021D0A847BE223146201C18BF0120A8473C60B5
S2144021E02046034B9847F8BDDC4B400005164000A0
S2144021F05521400070B50A4E044640F2051231465D
S214402200003018BF0120074DA847246840F2C72277
S2144022103146201C18BF0120A8475023236070BDBC
S214402220DC4B40000516400038B50C4605464FF4DA
S214402230D4720449003018BF0120034B98472B68DE
S214402240DC6138BDDC4B40000516400010B5044646
S2144022504FF4DD720449003018BF0120034B984705
S21440226023689869C0B210BDDC4B4000051640009C
S21440227010B5044640F2C3120549003018BF01208D
S214402280044B984723685869C0F3400010BD00BF10
S214402290DC4B40000516400010B504464FF4E6728D
S2144022A00549003018BF0120044B984723685869F9
S2144022B0C0F3402010BD00BFDC4B40000516400078
S2144022C010B504464FF4EF720549003018BF0120A0
S2144022D0044B98472368586900F0010010BD00BFC2
S2144022E0DC4B4000051640000020704710B50C4BF4
S2144022F09847C8200B4B9847012100200A4B984727
S21440230000210846094CA04701210020A047002193
S2144023100748084B9847084B9847084B9847FCE7B0
S214402320D5014000851140008D0B4000710B4000E8
S2144023300C14402089104000C90B40009902400010
S21440234058B908B50B4611461846054B984700281D
S21440235000DB08BD4FF0FF3008BD4FF0FF30704740
S214402360B9234000013802280BD808B50B46114661
S2144023701846054B9847002800DB08BD4FF0FF3055
S21440238008BD4FF0FF307047DD23400070B506466D
S214402390064D2B6800219868054CA0472B68002105
S2144023A05868A047034B1E6070BD00BF0000402029
S2144023B0552F4000C000402008B5064B1B6833B17F
S2144023C00A46014692B21846034B984708BD00207D
S2144023D008BD00BFC00040201113400008B5064BA2
S2144023E01B6833B10A46014692B21846034B9847DB
S2144023F008BD002008BD00BFC0004020E1124000DC
S21440240010B5044C2046044B98472046034B98474B
S21440241010BD00BF00144020D91540008D23400059
S21440242081F0004102E000BF83F0004330B54FEA40
S21440243041044FEA430594EA050F08BF90EA020FAD
S2144024401FBF54EA000C55EA020C7FEA645C7FEA40
S214402450655C00F0E2804FEA5454D4EB5555B8BF63
S2144024606D420CDD2C4480EA020281EA030382EAD4
S214402470000083EA010180EA020281EA0303362D66
S21440248088BF30BD11F0004F4FEA01314FF4801C39
S2144024904CEA113102D0404261EB410113F0004F4B
S2144024A04FEA03334CEA133302D0524263EB430302
S2144024B094EA050F00F0A780A4F10104D5F1200EA0
S2144024C00DDB02FA0EFC22FA05F2801841F10001FB
S2144024D003FA0EF2801843FA05F359410EE0A5F1CF
S2144024E020050EF1200E012A03FA0EFC28BF4CF000
S2144024F0020C43FA05F3C01851EBE37101F00045B6
S21440250007D54FF0000EDCF1000C7EEB00006EEBC2
S2144025100101B1F5801F1BD3B1F5001F0CD349084C
S2144025205FEA30004FEA3C0C04F101044FEA4452A3
S21440253012F5800F80F09A80BCF1004F08BF5FEA2A
S214402540500C50F1000041EB045141EA050130BD0A
S2144025505FEA4C0C404141EB010111F4801FA4F1AD
S2144025600104E9D191F0000F04BF01460020B1FA02
S21440257081F308BF2033A3F10B03B3F120020CDA3A
S2144025800C3208DD02F1140CC2F10C0201FA0CF018
S21440259021FA02F10CE002F11402D8BFC2F1200C7D
S2144025A001FA02F120FA0CFCDCBF41EA0C01904033
S2144025B0E41AA2BF01EB0451294330BD6FEA04047C
S2144025C01F3C1CDA0C340EDC04F11404C4F1200267
S2144025D020FA04F001FA02F340EA030021FA04F379
S2144025E045EA030130BDC4F10C04C4F1200220FAD0
S2144025F002F001FA04F340EA0300294630BD21FA0E
S21440260004F0294630BD94F0000F83F4801306BFD3
S21440261081F480110134013D4EE77FEA645C18BFC7
S2144026207FEA655C29D094EA050F08BF90EA020F5E
S21440263005D054EA000C04BF1946104630BD91EA56
S214402640030F1EBF0021002030BD5FEA545C05D159
S2144026504000494128BF41F0004130BD14F5800498
S2144026603CBF01F5801130BD01F0004545F0FE410C
S21440267041F470014FF0000030BD7FEA645C1ABF41
S214402680194610467FEA655C1CBF0B46024650EA78
S214402690013406BF52EA033591EA030F41F40021A4
S2144026A030BD00BF90F0000F04BF0021704730B52A
S2144026B04FF4806404F132044FF000054FF00001FF
S2144026C050E700BF90F0000F04BF0021704730B5C0
S2144026D04FF4806404F1320410F0004548BF404295
S2144026E04FF000013EE700BF42004FEAE2014FEAEA
S2144026F031014FEA02701FBF12F07F4393F07F4FC5
S21440270081F06051704792F0000F14BF93F07F4FF6
S214402710704730B54FF4607401F0004521F0004139
S21440272020E700BF50EA010208BF704730B54FF0BF
S21440273000050AE050EA010208BF704730B511F0C4
S214402740004502D5404261EB41014FF4806404F1FC
S21440275032045FEA915C3FF4DCAE4FF003025FEA7E
S214402760DC0C18BF03325FEADC0C18BF033202EB06
S214402770DC02C2F1200300FA03FC20FA02F001FA60
S21440278003FE40EA0E0021FA02F11444C1E600BFFF
S21440279070B54FF0FF0C4CF4E06C1CEA11541DBFB2
S2144027A01CEA135594EA0C0F95EA0C0F00F0DEF87D
S2144027B02C4481EA030621EA4C5123EA4C5350EA62
S2144027C0013518BF52EA033541F4801143F48013B3
S2144027D038D0A0FB02CE4FF00005E1FB02E506F044
S2144027E00042E0FB03E54FF00006E1FB03569CF099
S2144027F0000F18BF4EF0010EA4F1FF04B6F5007F9F
S21440280064F5407404D25FEA4E0E6D4146EB060610
S21440281042EAC62141EA55514FEAC52040EA5E5099
S2144028204FEACE2EB4F1FD0C88BFBCF5E06F1ED843
S214402830BEF1004F08BF5FEA500E50F1000041EB7A
S214402840045170BD06F0004646EA010140EA020027
S21440285081EA0301B4EB5C04C2BFD4EB0C0541EA49
S214402860045170BD41F480114FF0000E013C00F35E
S214402870AB8014F1360FDEBF002001F0004170BD82
S214402880C4F10004203C35DA0C341BDC04F114049B
S214402890C4F1200500FA05F320FA04F001FA05F227
S2144028A040EA020001F0004221F0004110EBD370F4
S2144028B021FA04F642EB06015EEA430E08BF20EA20
S2144028C0D37070BDC4F10C04C4F1200500FA04F3C3
S2144028D020FA05F001FA04F240EA020001F0004155
S2144028E010EBD37041F100015EEA430E08BF20EAC8
S2144028F0D37070BDC4F1200500FA05F24EEA020E10
S21440290020FA04F301FA05F243EA020321FA04F03E
S21440291001F0004121FA04F220EA020000EBD370F5
S2144029205EEA430E08BF20EAD37070BD94F0000FF5
S2144029300FD101F00046400041EB010111F4801F29
S21440294008BF013CF7D041EA060195F0000F18BFDA
S214402950704703F00046520043EB030313F4801F16
S21440296008BF013DF7D043EA0603704794EA0C0FD0
S2144029700CEA135518BF95EA0C0F0CD050EA4106E6
S21440298018BF52EA4306D1D181EA030101F0004163
S2144029904FF0000070BD50EA410606BF104619468B
S2144029A052EA430619D094EA0C0F02D150EA013697
S2144029B013D195EA0C0F05D152EA03361CBF1046D8
S2144029C019460AD181EA030101F0004141F0FE4177
S2144029D041F470014FF0000070BD41F0FE4141F4FB
S2144029E0780170BD70B54FF0FF0C4CF4E06C1CEAFB
S2144029F011541DBF1CEA135594EA0C0F95EA0C0FB0
S214402A0000F0A7F8A4EB050481EA030E52EA03356A
S214402A104FEA013100F088804FEA03334FF080558B
S214402A2045EA131343EA12634FEA022245EA1115B8
S214402A3045EA10654FEA00260EF000419D4208BF69
S214402A40964244F1FD0404F5407402D25B084FEA16
S214402A503202B61A65EB03055B084FEA32024FF4C2
S214402A6080104FF4002CB6EB020E75EB030E22BF1F
S214402A70B61A754640EA0C005B084FEA3202B6EBDF
S214402A80020E75EB030E22BFB61A754640EA5C008E
S214402A905B084FEA3202B6EB020E75EB030E22BF1E
S214402AA0B61A754640EA9C005B084FEA3202B6EB1F
S214402AB0020E75EB030E22BFB61A754640EADC00DE
S214402AC055EA060E18D04FEA051545EA16754FEA40
S214402AD006164FEAC30343EA52734FEAC2025FEA5E
S214402AE01C1CC0D111F4801F0BD141EA00014FF0ED
S214402AF000004FF0004CB6E711F4801F04BF0143BE
S214402B000020B4F1FD0C88BFBCF5E06F3FF6AFAED9
S214402B10B5EB030C04BFB6EB020C5FEA500C50F169
S214402B20000041EB045170BD0EF0004E4EEA1131EC
S214402B3014EB5C04C2BFD4EB0C0541EA045170BDF3
S214402B4041F480114FF0000E013C90E645EA060E37
S214402B508DE60CEA135594EA0C0F08BF95EA0C0F65
S214402B603FF43BAF94EA0C0F0AD150EA01347FF4AD
S214402B7034AF95EA0C0F7FF425AF104619462CE784
S214402B8095EA0C0F06D152EA03353FF4FDAE1046E7
S214402B90194622E750EA410618BF52EA43067FF438
S214402BA0C5AE50EA41047FF40DAF52EA43057FF4C8
S214402BB0EBAE12E74FEA4102B2F1E04324BFB3F571
S214402BC0001CDCF1FE5C0DD901F0004C4FEAC0025F
S214402BD04CEA5070B2F1004F40EB830008BF20F043
S214402BE00100704711F0804F21D113F13872BCBFFD
S214402BF001F00040704741F480114FEA5252C2F152
S214402C001802C2F1200C10FA0CF320FA02F018BF9A
S214402C1040F001004FEAC1234FEAD32303FA0CFCED
S214402C2040EA0C0023FA02F34FEA4303CCE77FEA7C
S214402C30625307D150EA01331EBF4FF0FE4040F4C6
S214402C404000704701F0004040F0FE4040F4000075
S214402C50704700BF70B50D4E0D4CA41BA410002548
S214402C60A54209D10B4E0C4C02F012F8A41BA4103E
S214402C700025A54205D170BD56F825309847013548
S214402C80EEE756F8253098470135F2E79C4C400071
S214402C909C4C40009C4C4000A04C4000024B0146DF
S214402CA0186800F06DB800BF00004020024B014697
S214402CB0186800F017B800BF0000402010B5431E4B
S214402CC00A44914200D110BD11F8014B03F8014F60
S214402CD0F7E702440346934200D1704703F8011BCE
S214402CE0F9E7000038B50546002945D051F8043CC0
S214402CF00C1F002BB8BFE41800F08CFC1F4A13686A
S214402D00104633B9636014602846BDE8384000F08A
S214402D1082BCA3420CD921686218934204BF1A6849
S214402D205B68636004BF521822600460ECE7134699
S214402D305A680AB1A242FAD919685818A0420BD16B
S214402D4020680144581882421960DDD110685268E4
S214402D505A6001441960D7E702D90C232B60D3E7A9
S214402D60206821188A4204BF11685268626004BF16
S214402D70091821605C60C7E738BD00BFC40040202A
S214402D8070B5CD1C25F0030508350C2D38BF0C2535
S214402D90002D064601DBA94203D90C2333600020F0
S214402DA070BD00F037FC234A1468214691B9224C86
S214402DB023681BB9304600F0BDF8206029463046EF
S214402DC000F0B8F8431C26D10C233360304600F0A0
S214402DD022FCE4E70B685B1B1AD40B2B0FD90B6065
S214402DE0CD50CC18304600F016FC04F10B00231DE5
S214402DF020F00700C31A1BD05A42E25070BD8C42E6
S214402E000DBF63684B686360136018BF0C46E9E704
S214402E100C464968CAE7C41C24F00304A04205D007
S214402E20211A304600F086F80130CDD02560D9E72B
S214402E3070BD00BFC4004020C80040200FB40A4BFD
S214402E4013B51C6824B1A36913B9204600F0F4FA00
S214402E5005AB049AA1680193204600F005FC02B039
S214402E60BDE8104004B070470000402070B50E46E4
S214402E70054618B183690BB900F0DEFAAB69AC6859
S214402E8013B9284600F0D8FA234B9C4217D16C68F9
S214402E90A3891B071DD52369DBB1013EA36816F83D
S214402EA0011F013BA360E9B9002B2EDA22460A2116
S214402EB0284600F00FF9013011D00A2070BD174B9C
S214402EC09C4201D1AC68E3E7154B9C4208BFEC68D6
S214402ED0DEE72146284600F04FF90028DDD04FF0C7
S214402EE0FF3070BD002B04DAA269934206DB0A2944
S214402EF004D023685A1C22601970CFE72246284621
S214402F0000F0E8F80130C9D1E9E723680A205A1CE6
S214402F102260187070BD00BF1C4C40003C4C400006
S214402F20FC4B4000024B01461868FFF79FBF00BFAE
S214402F300000402038B5064C00230546084623606E
S214402F40FEF764FB431C02D1236803B12B6038BDF7
S214402F504814402000294FF480630CBF0222002210
S214402F6000F000B82DE9F7431D46514B1E68044655
S214402F700F46904626B1B36913B9304600F05CFA66
S214402F804C4B9C4252D17468B8F1020F06D0B8F14F
S214402F90010F00F28980002DC0F28680214630461F
S214402FA000F0E0F9616B41B104F14403994202D06C
S214402FB03046FFF797FE002363630023A3616360F8
S214402FC0A3891B0603D521693046FFF78BFEA389EC
S214402FD023F44A6323F00303B8F1020FA3815DD0C4
S214402FE001AB6A462146304600F0B0FAA389184342
S214402FF0A0812DBB009D2846FFF750FE07460028BF
S2144030004ED1DDF80090A9453CD14FF0FF30A38962
S21440301043F00203A3810023A36004F14703236027
S21440302023610123636103B0BDE8F083224B9C42D9
S21440303001D1B468A8E7214B9C4208BFF468A3E7D7
S214403040002FD8D0B36913B9304600F0F5F9B8F17F
S214403050010F08BFA389276004BF43F00103A38183
S214403060A389276113F0080065611BD013F00100A7
S21440307018BF6D424FF000031DBFA360A561184600
S214403080A560D0E74846FFF709FE07460028BCD0B3
S214403090A38943F08003A3814D46D3E70020B6E7DB
S2144030A0A946F5E7A060BEE74FF0FF30BBE700BF9C
S2144030B0000040201C4C40003C4C4000FC4B400074
S2144030C010F8012B11F8013B012A28BF9A42F7D08D
S2144030D0D01A7047F8B50E461446054618B18369AF
S2144030E00BB900F0A9F9214B9C422AD16C68A36920
S2144030F0A360A3891A072ED5236963B32369206882
S214403100C01A6369F6B29842374604DB2146284621
S21440311000F028F928BBA368013BA36023685A1C2B
S21440312022601E7063690130984204D0A389DB0791
S21440313019D50A2E17D12146284600F013F990B12A
S2144031400FE00B4B9C4201D1AC68D0E7094B9C4248
S21440315008BFEC68CBE72146284600F00DF800286B
S214403160CCD04FF0FF373846F8BD00BF1C4C40006F
S2144031703C4C4000FC4B4000324B70B51D68064648
S2144031800C4625B1AB6913B9284600F055F92E4BCD
S2144031909C420FD16C68B4F90C309AB215072CD407
S2144031A0D00611D40922326043F04003A3814FF089
S2144031B0FF3070BD254B9C4201D1AC68EBE7244BF9
S2144031C09C4208BFEC68E6E7510712D5616B41B1F7
S2144031D004F14403994202D03046FFF783FD0023B2
S2144031E06363A38923F02403A381002363602369D8
S2144031F02360A38943F00803A38123694BB9A389BD
S21440320003F42073B3F5007F03D02146304600F028
S214403210C1F9A28912F001030CD00023A3606369B0
S2144032205B42A361236953B9B4F90C3013F08000B4
S214403230BAD170BD920758BF6369A360F2E7002019
S214403240F7E700BF000040201C4C40003C4C4000CC
S214403250FC4B40008A892DE9F041054610070C4694
S2144032605AD44B68002B05DC0B6C002B02DC00208C
S214403270BDE8F081E66A002EF9D0002312F48052B1
S2144032802F682B6033D0606DA3895A0705D56368D5
S214403290C01A636B0BB1236CC01A00230246E66A61
S2144032A0216A2846B047431CA38906D129681D29B0
S2144032B04BD82B4ACA40D60747D500226260D9046D
S2144032C02269226004D5421C01D12B6803B960658F
S2144032D0616B2F600029CAD004F14403994202D0A2
S2144032E02846FFF7FFFC00206063BDE8F081216AB6
S2144032F001232846B047411CC6D12B68002BC3D0BB
S2144033001D2B01D0162B01D12F60B0E7A38943F0C7
S2144033104003A381BDE8F0810F69002FA7D0930733
S2144033200E6808BF4B690F6018BF0023A6EB07085E
S2144033308B60B8F1000F9ADD43463A46216AA66A8A
S2144033402846B047002807DCA38943F04003A38102
S2144033504FF0FF30BDE8F0810744A8EB0008E8E7EF
S2144033600100402038B50B6905460C46DBB118B164
S21440337083690BB900F060F80C4B9C4209D16C682D
S214403380B4F90C307BB121462846BDE83840FFF7FB
S21440339061BF074B9C4201D1AC68F1E7054B9C42AC
S2144033A008BFEC68ECE7002038BD00BF1C4C40006E
S2144033B03C4C4000FC4B4000014900F0A9B800BF1F
S2144033C065334000002310B50446036043608360C5
S2144033D081814366C2810361436183611946082245
S2144033E05C30FFF776FC054B6362054BA362054BEA
S2144033F0E362054B2462236310BD00BFC13B40001F
S214403400E33B40001B3C40003F3C400070B54A1E3A
S214403410682555430E4605F17401FFF7B1FC044696
S21440342040B1002180E842000C30A06005F16802FF
S214403430FFF74FFC204670BD836910B5044633BB8A
S2144034408364C3640365124B124A1B6882629842C7
S21440345004BF0123836100F01FF86060204600F03F
S2144034601BF8A060204600F017F80022E060042118
S2144034706068FFF7A7FF01220921A068FFF7A2FFB7
S21440348002221221E068FFF79DFF0123A36110BDD1
S214403490F84B4000B9334000F8B51C4B1E68B36982
S2144034A0074613B93046FFF7C7FF4836B468736817
S2144034B0013B03D5336833B13668F7E7B4F90C50AF
S2144034C06DB16834F4E704213846FFF79FFF30605B
S2144034D00028F1D10C233B6004462046F8BD4FF649
S2144034E0FF73E3810123A38165662560A56065605F
S2144034F025616561A5610822294604F15C00FFF755
S214403500E8FB6563A563A564E564E6E7F84B400021
S2144035102DE9F8438046894600F14804002614B950
S2144035203046BDE8F883A5686768013F01D5246842
S214403530F5E7AB89012B07D9B5F90E30013303D037
S21440354029464046C84706436835EEE770B50E46FE
S214403550B1F90E10002990B014461D4607DA002334
S2144035602B60B3891A0610D44FF480630EE001AA8C
S21440357000F08CFB0028F2DB029A02F47042A2F5BF
S21440358000535A425A412A60EEE740230020236007
S21440359010B070BD8B8973B59D0706460C4607D59F
S2144035A004F14703236023610123636102B070BDC9
S2144035B001AB6A46FFF7CAFF009905463046FFF75B
S2144035C0DFFB48B9B4F90C309A05EFD423F0030377
S2144035D043F00203A381E3E70D4BB362A389206067
S2144035E043F08003A381009B6361019B20615BB134
S2144035F0B4F90E10304600F05BFB28B1A38923F0E7
S214403600030343F00103A381A3891D43A581CDE7AE
S214403610B9334000704770479368013B002B10B4A5
S214403620936008DA9469A34202DBCBB20A2B02D13C
S21440363010BCFFF74FBD1368581C10601970C8B215
S21440364010BC7047F8B506460F461446D518AC422F
S21440365001D1002007E03A4614F8011B3046FFF738
S214403660DBFF431CF3D1F8BD2DE9F04F9DB00C466F
S21440367017460393064618B183690BB9FFF7DCFE7D
S2144036807C4B9C4257D17468A38918075DD5236943
S214403690002B5AD00023099320238DF8293030235D
S2144036A08DF82A304FF0010BB846454615F8013BD9
S2144036B0002B55D1B8EB070A0BD053463A46214665
S2144036C03046FFF7BFFF013000F0C480099B5344EB
S2144036D0099398F80030002B00F0BC8000234FF090
S2144036E0FF3204930793059206938DF853301A934E
S2144036F005222978604800F003FB05F10108049B89
S214403700002831D1D90644BF20228DF853201A070D
S21440371044BF2B228DF853202A782A2A2CD0079A89
S21440372000210A20A846013598F80030303B092B86
S2144037306DD971B326E0514B9C4201D1B468A3E7E2
S2144037404F4B9C4208BFF4689EE721463046FFF741
S21440375013FD00289ED04FF0FF301DB0BDE8F08F1F
S214403760252BA7D0A846A0E7434A801A0BFA00F0BC
S214403770184304904546BBE7039A111D126803910F
S214403780002A01DB079204E0524243F0020307920C
S214403790049398F800302E2B10D198F801302A2B3D
S2144037A008F1010137D1039B1A1D1B680392002BB9
S2144037B0B8BF4FF0FF3308F102080593314D98F833
S2144037C000100322284600F09BFA40B14023401BDD
S2144037D003FA00F0049B0343049308F1010898F8A9
S2144037E0001029488DF82810062208F1010700F03D
S2144037F087FA002834D0254B03BB039B073323F0BE
S214403800070308330393099B4B4409934CE700FB9B
S2144038100232012186E70023059318460A2588468A
S214403820013198F80020303A092A03D9002BC5D038
S2144038300590C3E705FB00200123F0E703AB0093A8
S2144038402246134B04A93046AFF30080B0F1FF3F49
S2144038508146D8D1A3895B063FF57DAF09987CE7C2
S21440386003AB009322460A4B04A9304600F088F882
S214403870ECE700BF1C4C40005C4C40003C4C400019
S214403880FC4B4000624C4000664C4000000000008C
S214403890453640002DE9F04791461F468A680B6939
S2144038A0DDF820809342B8BF1346C9F8003091F83F
S2144038B0432006460C4612B10133C9F8003023684F
S2144038C0990642BFD9F800300233C9F8003025685F
S2144038D015F0060507D104F1190AE368D9F8002067
S2144038E09B1A9D4229DB94F843302268003318BF68
S2144038F0012392062ED404F1430239463046C0478F
S214403900013021D02368E568D9F8002003F006038B
S214403910042B08BFAD1AA36822690CBF25EAE575DB
S21440392000259342C4BF9B1AED184FF000091A3485
S2144039304D451BD10020BDE8F0870123524639464D
S2144039403046C047013003D14FF0FF30BDE8F08726
S2144039500135C2E7E1185A1C302081F84300224462
S21440396094F8451082F843100233C4E701232246F8
S21440397039463046C0470130E6D009F10109D7E75D
S2144039802DE9F04317460A7E85B06E2A98460646CD
S2144039900C460C9B01F1430E00F0BC801AD8632AFB
S2144039A02ED00AD8002A00F0C880582A00F08A8014
S2144039B004F1420584F842202AE0642A01D0692AAC
S2144039C0F6D121681A6811F0800F23D0111D1960B6
S2144039D0136827E0732A00F0B48008D86F2A2AD0EC
S2144039E0702AE5D10A6842F020020A6003E0752A90
S2144039F021D0782ADCD1782284F845206E4964E0CC
S214403A001A6801F14205111D1960136884F84230A6
S214403A100123A3E011F0400F02F104011960D7D052
S214403A20B2F90030002B03DA2D225B4284F84320A3
S214403A3062490A2217E02068196810F0800F03D008
S214403A40081D18600B6806E010F0400F01F10400F6
S214403A501860F7D00B8859496F2A14BF0A220822EB
S214403A60002084F843006568A560002DC0F29C8065
S214403A70206820F004002060002B3FD1002D40F04D
S214403A8095807546082A0BD12368DA0708D523693E
S214403A9062689A42DEBF302305F8013C05F1FF35E7
S214403AA0AEEB05032361CDF800803B4603AA2146D2
S214403AB03046FFF7EFFE013055D14FF0FF3005B0EE
S214403AC0BDE8F08381F845203C492268186812F02A
S214403AD0800F00F104051D6001D0036802E0550622
S214403AE0FBD50388D00744BF42F0200222601BB9B2
S214403AF0226822F0200222601022B1E77546B3FB0E
S214403B00F2F002FB1033CB5C05F8013D034600287B
S214403B10F5D1B7E708681A68496910F0800F04D0F5
S214403B20101D18601368196007E010F0400F02F18E
S214403B30040018601368F6D0198000232361754688
S214403B40B1E71A68111D1960156862680021284699
S214403B5000F0D6F808B1401B60606368236100231C
S214403B6084F843309FE723692A4639463046C047A3
S214403B700130A2D023689B0707D5002504F1190918
S214403B80E368039A9B1A9D4205DBE068039B9842D4
S214403B90B8BF184693E701234A4639463046C047E1
S214403BA001308AD00135EBE7002BA7D10B7884F89B
S214403BB0423004F1420565E77E4C40006D4C4000C3
S214403BC010B50C46B1F90E1000F0EAF80028ABBF6D
S214403BD0636DA3891B1823F48053ACBF6365A38130
S214403BE010BD2DE9F0411F468B89DB0505460C4686
S214403BF0164605D502230022B1F90E1000F068F8EB
S214403C00A389B4F90E1023F48053A38132463B4671
S214403C102846BDE8F04100F017B810B50C46B1F99B
S214403C200E1000F055F8431CA38915BF606523F4B9
S214403C30805343F48053A38118BFA38110BDB1F9CC
S214403C400E1000F013B8000038B5074C054608467D
S214403C501146002222601A46FEF784FB431C02D11E
S214403C60236803B12B6038BD4814402038B5064C55
S214403C700023054608462360FDF7DAFC431C02D1C4
S214403C80236803B12B6038BD4814402038B5074C34
S214403C9000230546084611462360FDF7CCFC431C2E
S214403CA002D1236803B12B6038BD00BF48144020C2
S214403CB038B5064C0023054608462360FDF7C0FC91
S214403CC0431C02D1236803B12B6038BD4814402002
S214403CD038B5074C054608461146002222601A466B
S214403CE0FDF7B0FC431C02D1236803B12B6038BDFE
S214403CF048144020000000000000000000000000C3
S214403D0001F0FF01102A2BDB10F0070F08D010F847
S214403D10013B013A8B422DD010F0070F42B3F6D14B
S214403D20F0B441EA012141EA014122F007047FF064
S214403D3000070023F0E80256083C85EA010586EABB
S214403D40010685FA47F5A3FA87F586FA47F6A5FAF7
S214403D5087F68EB9EED1F0BC01F0FF0102F0070203
S214403D6032B110F8013B013A83EA010313B1F8D1AE
S214403D700020704701387047002D06BF354603388F
S214403D80073815F0010F07D1013015F4807F02BFC8
S214403D90013015F4C03F0130F0BC0138704700BF19
S214403DA038B5074C054608461146002222601A469A
S214403DB0FEF7C6FA431C02D1236803B12B6038BD18
S214403DC048144020636F6E74726F6C00696E707535
S214403DD0744E6F726D616C00417474656D7074657D
S214403DE06420746F20726561642061207061636B2B
S214403DF06574206F6E2061206368616E6E656C200E
S214403E007468617420686173206E6F7420626565A3
S214403E106E20696E697469616C697A65642074683D
S214403E20726F75676820616E20616476657274692A
S214403E3073656D656E7420796574210D0000000011
S214403E4053485450204164766572746973656D6555
S214403E506E74206F75747075743A0D0047554944FA
S214403E60203D2025750D0A004D6178436172676FCD
S214403E70506C7573486561646572577269746520E5
S214403E803D2025750D0A00004D6178436172676FCD
S214403E90506C757348656164657252656164203D17
S214403EA02025750D0A0000004D61785472616E73CE
S214403EB06665725772697465203D2025750D0A0047
S214403EC04D61785472616E736665725265616420A6
S214403ED03D2025750D0A00004E6F726D616C43687B
S214403EE0616E6E656C203D2025750D0A0000000051
S214403EF057616B654368616E6E656C203D20257525
S214403F000D0A00004170704E616D65203D2025739E
S214403F100D0A00004368616E6E656C4E616D6520EB
S214403F203D2025730D0A00005348545020566572B4
S214403F3073696F6E203D2025730D0A0043616E6ED7
S214403F406F7420756E6465727374616E642061640C
S214403F50766572746973656D656E74207061636BA7
S214403F606574207461672076616C7565000000009A
S214403F7053485450206572726F72206F7574707516
S214403F80743A0D004E6F206572726F720D0000001D
S214403F90487562206170706C69636174696F6E20E9
S214403FA0617474656D7074656420746F20657863A1
S214403FB0656564206D6178696D756D2072656164B4
S214403FC020636172676F206C656E6774680D0000D1
S214403FD0486F7374207772697465207761732074B4
S214403FE06F6F2073686F727420286E6565642061F9
S214403FF074206C65617374206120342D6279746519
S21440400020686561646572290D000000486F73740E
S2144040102077726F746520612068656164657220E0
S21440402077697468206C656E67746820677265612E
S214404030746572207468616E206D6178696D756D07
S21440404020777269746520636172676F206C656E55
S2144040506774680D00000000486F73742077726FB5
S214404060746520612068656164657220776974684C
S214404070206C656E677468206C6573732074686125
S2144040806E206F7220657175616C20746F20686554
S21440409061646572206C656E677468202865697413
S2144040A068657220696E76616C6964206F72206EF6
S2144040B06F207061796C6F6164292E204E6F746535
S2144040C020746861742061206C656E677468206F28
S2144040D0662030206973207065726D6974746564FB
S2144040E02C20696E6469636174696E6720EFBFBD9A
S2144040F06E6F20636172676FEFBFBD0D00000000FA
S214404100486F73742077726F746520626567696E56
S2144041106E696E67206F6620667261676D656E7445
S214404120656420636172676F20287472616E73667F
S2144041306572206C656E67746820776173206C6565
S2144041407373207468616E2066756C6C2063617250
S214404150676F206C656E677468292C20667261678D
S2144041606D656E746174696F6E206E6F74207375C2
S21440417070706F727465640D00000000486F737451
S2144041802077726F746520636F6E74696E756174A4
S214404190696F6E206F6620667261676D656E7465C6
S2144041A06420636172676F2028636F6E74696E75F2
S2144041B06174696F6E206269742073656E74292C11
S2144041C020667261676D656E746174696F6E206E8D
S2144041D06F7420737570706F727465640D000000A4
S2144041E0556E7265636F676E697A656420636F6D3E
S2144041F06D616E64206F6E20636F6E74726F6C209C
S2144042006368616E6E656C0D00000000556E7265E9
S214404210636F676E697A656420706172616D6574FC
S214404220657220746F206765742D6164766572745C
S2144042306973656D656E7420636F6D6D616E640D38
S21440424000000000486F73742077726F74652074A6
S2144042506F20756E7265636F676E697A65642063FA
S21440426068616E6E656C0D00416476657274697344
S214404270656D656E742072657175657374207265C0
S214404280636569766564207768696C652041647605
S2144042906572746973656D656E7420526573706F70
S2144042A06E7365207761732070656E64696E670D06
S2144042B000000000486F737420706572666F726D00
S2144042C065642061207772697465206F70657261DD
S2144042D074696F6E206265666F72652074686520CB
S2144042E0687562206861642066696E697368656493
S2144042F02073656E64696E672069747320616476A6
S2144043006572746973656D656E7420726573706FDF
S2144043106E73650D000000004572726F72206C6906
S214404320737420746F6F206C6F6E6720746F207389
S214404330656E642C207472756E63617465640D00DE
S214404340556E6B6E6F776E206572726F720D0000E1
S214404350436F6D6D616E64206368616E6E656C2040
S214404360636F6D6D616E64207479706520776173DC
S2144043702061207265736572766564206269742177
S2144043800D00000053482D3220436F6E74726F6CE0
S214404390204368616E6E656C204F75747075743A14
S2144043A00D0000005265706F7274204944203D2015
S2144043B03078464320274765742046656174757299
S2144043C06520526573706F6E7365270D00000000A0
S2144043D046656174757265205265706F72742049C7
S2144043E044203D2025750D0A000000004665617496
S2144043F075726520666C616773203D2025750D0AD1
S214404400000000004368616E67652073656E7369DF
S214404410746976697479203D2025750D0A00000080
S2144044205265706F727420696E74657276616C2026
S2144044303D2025750D0A0000426174636820696E50
S21440444074657276616C203D2025750D0A0000006B
S21440445053656E736F722D7370656369666963200A
S214404460636F6E66696775726174696F6E20776F89
S2144044707264203D2025750D0A0000005265706F5D
S2144044807274204944203D203078463820275072A8
S2144044906F6475637420494420526573706F6E7301
S2144044A065270D00526573657420436175736520FA
S2144044B03D2025750D0A00005357205665727369D6
S2144044C06F6E204D616A6F72203D2025750D0A0083
S2144044D053572056657273696F6E204D696E6F72C2
S2144044E0203D2025750D0A005357205061727420D8
S2144044F04E756D626572203D2025750D0A000000E0
S2144045005357204275696C64204E756D6265722003
S2144045103D2025750D0A0000535720566572736975
S2144045206F6E205061746368203D2025750D0A002B
S2144045305265706F7274204944203D20307846356D
S214404540202746525320577269746520526573700F
S2144045506F6E7365270D00005374617475732F4535
S21440456072726F72203D2025750D0A00576F726477
S214404570204F6666736574203D2025750D0A000041
S2144045805265706F7274204944203D20307846331F
S2144045902027465253205265616420526573706FDF
S2144045A06E7365270D00000044617461204C656E93
S2144045B0677468203D2025750D0A000053746174A9
S2144045C07573203D2025750D0A0000004461746116
S2144045D030203D2025750D0A00000000465253202D
S2144045E054797065203D2025750D0A005265706F20
S2144045F07274204944203D20307846312027436F4E
S2144046006D6D616E6420526573706F6E7365270DB5
S21440461000000000436F6D6D616E64203D2025757F
S2144046200D0A0000436F6D6D616E642053657175B1
S214404630656E6365204E756D626572203D202575FA
S2144046400D0A0000526573706F6E73652053657176
S21440465075656E6365204E756D626572203D2025DA
S214404660750D0A0052302056616C7565203D202538
S214404670750D0A0052312056616C7565203D202527
S214404680750D0A0052322056616C7565203D202516
S214404690750D0A0052332056616C7565203D202505
S2144046A0750D0A0052342056616C7565203D2025F4
S2144046B0750D0A0052352056616C7565203D2025E3
S2144046C0750D0A0052362056616C7565203D2025D2
S2144046D0750D0A0052372056616C7565203D2025C1
S2144046E0750D0A0052382056616C7565203D2025B0
S2144046F0750D0A0052392056616C7565203D20259F
S214404700750D0A005231302056616C7565203D208B
S21440471025750D0A0000000052656365697665647C
S214404720207265706F7274204944206F76657220DF
S21440473053483220636F6E74726F6C206368616E8C
S2144047406E656C207468617420776173206E6F7438
S214404750207265636F676E697A65640053482D32D0
S21440476020696E7075744E6F726D616C204368611F
S2144047706E6E656C204F75747075743A0D0000004F
S214404780426173652044656C7461203D2025750D3B
S2144047900A0000005265706F7274204944203D2024
S2144047A0307830352027526F746174696F6E2056AA
S2144047B06563746F72270D0044656C6179203D20F7
S2144047C025750D0A00000000556E6974205175610C
S2144047D07465726E696F6E2069203D2025660D0AED
S2144047E000000000556E6974205175617465726EE4
S2144047F0696F6E206A203D2025660D0A0000000085
S214404800556E6974205175617465726E696F6E205D
S2144048106B203D2025660D0A00000000556E697429
S214404820205175617465726E696F6E207265616C39
S214404830203D2025660D0A004163637572616379E9
S21440484020657374696D617465203D2025660D0A88
S2144048500000000025662C25662C25662C25660D56
S2144048600A0000005265636569766564207265706B
S2144048706F7274204944206F766572205348322008
S214404880696E7075744E6F726D616C206368616E90
S2144048906E656C207468617420776173206E6F74E7
S2144048A0207265636F676E697A6564004661696CFD
S2144048B0656420746F2066696E6420746865205352
S2144048C0482D3220636F6E74726F6C206368616E21
S2144048D06E656C206E756D6265722120284C696B22
S2144048E0656C79206E6F205348545020616476651D
S2144048F072746973656D656E74207061636B657400
S2144049002072656164292049732074686520424E90
S2144049104F30383520636F6E6E65637465643F0D47
S214404920000000005375636365737366756C6C793D
S2144049302073656E74205365742046656174757285
S2144049406520436F6D6D616E6420746F20424E4FDC
S2144049503038350D000000004368616E67696E6749
S2144049602050696E000000002E2E2F68616C2F7359
S21440497072632F68616C5F6164635F73796E632EE8
S214404980630000002E2E2F68616C2F7372632F68B1
S214404990616C5F6932635F6D5F73796E632E63002F
S2144049A02E2E2F68616C2F7372632F68616C5F695F
S2144049B06F2E63002E2E2F68616C2F7372632F68E4
S2144049C0616C5F70776D2E63000000002E2E2F689E
S2144049D0616C2F7372632F68616C5F7370695F6D73
S2144049E05F73796E632E63002E2E2F68616C2F7373
S2144049F072632F68616C5F75736172745F73796EF2
S214404A00632E6300000000000031842F0000000386
S214404A10FFFFFFFFFFFF0000000000000000000057
S214404A20000000000C010000000000000000000034
S214404A30000000000000000000020000000200002D
S214404A400002000000020000000200000002000019
S214404A500002000000020000000200000002000009
S214404A6000020000000200002E2E2F68706C2F619E
S214404A706665632F68706C5F616665632E630000D1
S214404A800000000020000000200000002000000081
S214404A9000000000000000002000000001000000B0
S214404AA002000000020000000200000000000000BB
S214404AB000000000020000000A0B0C10110000006D
S214404AC02E2E2F68706C2F70696F2F68706C5F7019
S214404AD0696F5F6578742E63000000000000024036
S214404AE01F0000000100010001000000010000005E
S214404AF0FF0000000000000004000000000000006E
S214404B00000000000000000004000000184B4000B9
S214404B1000000000B4004020000000000802000032
S214404B20000400000002000001000000080200002F
S214404B30000400000002000002000000080200001E
S214404B40000400000002000003000000080200000D
S214404B5000040000000200002E2E2F68706C2F709C
S214404B60776D2F68706C5F70776D2E630000000065
S214404B7000000000000000800100000002FA9604D9
S214404B80FFFF00002E2E2F68706C2F7370692F6801
S214404B90706C5F7370692E630000000000800140F7
S214404BA0200000000000000000000000BABA02002A
S214404BB0F04902002E2E2F68706C2F747769687348
S214404BC02F68706C5F74776968732E63000000000E
S214404BD001000000C0081000F40001002E2E2F68CF
S214404BE0706C2F75736172742F68706C5F7573612B
S214404BF072742E6300000000040040200000000095
S214404C00000000000000000000000000000000005F
S214404C10000000000000000000000000000000004F
S214404C20000000000000000000000000000000003F
S214404C30000000000000000000000000000000002F
S214404C40000000000000000000000000000000001F
S214404C50000000000000000000000000232D302B64
S214404C602000686C4C006566674546470030313228
S214404C70333435363738394142434445460030317F
S214404C8032333435363738396162636465660000DE
S214404C90F8B500BFF8BC08BC9E4670478D01400082
S214404CA0F8B500BFF8BC08BC9E4670476901400096
S214404CB004004020000000001C4C40003C4C4000DB
S214404CC0FC4B400000000000000000000000000018
S214404CD0000000000000000000000000000000008F
S214404CE0000000000000000000000000000000007F
S214404CF0000000000000000000000000000000006F
S214404D00000000000000000000000000000000005E
S208404D10000000005A
S804400000BB
