S01F0000526F626F745F4669726D776172655F762E31362E332E332E7372656337
S21440000070074020DD014000D9014000D901400082
S214400010D9014000D9014000D9014000000000004D
S214400020000000000000000000000000D901400071
S214400030D901400000000000D9014000D90140002D
S214400040D9014000D9014000D9014000D901400003
S214400050D9014000D9014000D9014000D9014000F3
S214400060D9014000000000006D10400061104000C3
S21440007000000000D9014000D9014000D9014000ED
S214400080D901400000000000D9014000D9014000DD
S214400090D9014000D9014000D9014000D9014000B3
S2144000A0D9014000D9014000D9014000D9014000A3
S2144000B0D9014000D9014000D9014000D11140008B
S2144000C0D9014000D9014000D9014000000000009D
S2144000D000000000000000000000000000000000DB
S2144000E0D9014000D901400000000000D90140007D
S2144000F0D9014000D9014000D9014000D901400053
S214400100D9014000D9014000D9014000D901400042
S214400110D901400000000000000000000000000080
S214400120D9014000D9014000D9014000D901400022
S214400130E5114000D901400000000000D901400010
S214400140D9014000D9014000000000000000000036
S214400150D9014000D901400010B5054C237833B989
S214400160044B13B10448AFF300800123237010BD45
S21440017064004020000000008C2740000C4B43B138
S2144001800C480D4910B5AFF300800C48036823B9FE
S21440019010BD0A48036833B97047094B002BF7D0A7
S2144001A0BDE810401847064B002BF5D0184700BF57
S2144001B0000000008C274000680040208C2740004C
S2144001C00000000008B5024B9847024B984708BD10
S2144001D0C5054000E91B4000FEE7000008B5104B8F
S2144001E0104A9A4209D00E4B0E4A03E01168196035
S2144001F0043304320C498B42F8D30C4B02E0002205
S2144002001A6004330A4A9342F9D30A4A0A4B23F047
S2144002107F039360094B9847094B9847FEE700BF1A
S214400220000040208C2740006400402064004020AE
S2144002307001402000ED00E000004000091C400036
S214400240211A40004FF08042054B1A600422A3F565
S21440025080631A604FF48022A3F500731A607047DB
S21440026000140E40044B9B6913F0005F03D14FF01F
S2144002700052014B1A61704700060E4008B5054B08
S2144002809847054B9847002204490548054B984730
S21440029008BD00BF650240004502400000C0034064
S2144002A01001402069074000034B02225A611A663B
S2144002B0C3F890201A60704700100E40124B4FF45F
S2144002C000425A611A66C3F890201A604FF48002C2
S2144002D05A611A66C3F890201A604FF400025A61B9
S2144002E01A66C3F890201A604FF080725A611A66F8
S2144002F0C3F890201A604FF000725A611A66C3F82D
S21440030090201A60704700BF000E0E40174B1A6FC1
S21440031042F400621A675A6F22F400625A674FF43A
S21440032000625A60A3F5C0631A6F22F004021A678F
S2144003305A6F22F004025A6704225A601A6F42F437
S21440034000521A675A6F22F400525A674FF400520E
S2144003505A601A6F22F400321A675A6F42F400321B
S2144003605A674FF400325A60704700BF00140E4080
S214400370044B9B69002B03DB4FF00042014B1A6194
S214400380704700BF00060E4008B5064B9847064B20
S2144003909847064B9847024605490648064B9847F5
S2144003A008BD00BF710340000D034000A513400088
S2144003B000000240E800402095094000064B1A6FB6
S2144003C022F480521A675A6F42F480525A674FF4AA
S2144003D080525A60704700BF000E0E40054BD3F85F
S2144003E0083113F0805F04D14FF08052014BC3F8C0
S2144003F00021704700060E4008B5064B9847064B4E
S2144004009847064B9847024605490648064B984784
S21440041008BD00BFDD034000BD034000A5134000FB
S21440042000C005403001402095094000114B1A6F2E
S21440043042F480121A675A6F22F480125A674FF4B9
S21440044080125A601A6F42F400121A675A6F22F4EA
S21440045000125A674FF400125A601A6F42F4800234
S2144004601A675A6F22F480025A674FF480025A6025
S214400470704700BF00140E40044B9B6913F4001FE6
S21440048003D14FF40012014B1A61704700060E402C
S21440049010B5084B9847084B9847084C01462046ED
S2144004A0074B984707492046074B9847074B9847BE
S2144004B010BD00BF79044000691540001801402077
S2144004C0150A400000800040350A40002D044000D8
S2144004D00A4B1A6F22F010021A675A6F22F0100267
S2144004E05A6710225A601A6F22F008021A675A6F2B
S2144004F022F008025A6708225A607047000E0E40E3
S214400500044B9B6913F4002F03D14FF40022014B98
S2144005101A61704700060E4008B5044B98470449D8
S2144005200448054B9847054B984708BD01054000D1
S214400530008001404C014020E1084000D1044000CA
S21440054008B50248024B984708BD00BF10E000E0DF
S214400550B5074000044B9B6913F0800F02D1802200
S214400560014B1A61704700BF00060E4008B5054BA8
S2144005709847054B9847024604490548054B984717
S21440058008BD00BF55054000E919400000080E4070
S214400590040140200D0C400008B5482204490120C3
S2144005A0044B98470448054B0360054B984708BDE5
S2144005B0D0234000810C40001401402050180E40CB
S2144005C0ED19400008B55A4B98475A4B9B6913F4AF
S2144005D0806F03D14FF48062564B1A61554B9B692E
S2144005E013F4006F03D14FF40062524B1A61514B23
S2144005F09B6913F4803F03D14FF480324D4B1A6110
S2144006004D4B4FF000625A611A66C3F890201A604C
S2144006104FF080525A611A66C3F890201A604FF025
S21440062080425A611A66C3F890201A604FF0004222
S2144006305A611A66C3F890201A6003F500730822C0
S2144006401A631A611A6003F58063042119631961FD
S21440065019601A631A611A6010225A631A611A6086
S21440066020225A631A611A6040225A631A611A603D
S21440067080221A631A611A604FF480725A631A61B4
S2144006801A604FF400725A631A611A604FF480621F
S2144006905A631A611A604FF480525A611A66C3F858
S2144006A090201A604FF400525A611A66C3F89020A0
S2144006B01A604FF480425A611A66C3F890201A6056
S2144006C04FF400425A631A611A604FF480325A61FE
S2144006D01A66C3F890201A604FF400325A611A66C0
S2144006E0C3F890201A604FF480225A611A66C3F805
S2144006F090201A604FF400225A611A66C3F8902080
S2144007001A600E4B98470E4B98470E4B98470E4B29
S21440071098470E4B98470E4B98470E4B98470E4BB4
S21440072098470E4B98470E4B98470E4B984708BD38
S214400730F10D400000060E40000E0E407D024000C7
S214400740A9024000BD02400089034000F903400072
S2144007509104400019054000410540006D054000E9
S214400760990540004D08400038B504460D4600281F
S21440077018BF002914BF0120002039220349044B2A
S214400780984729462046034B984738BDEC234000FF
S214400790810C40009D0D4000EFF31083036072B65D
S2144007A0BFF35F8F7047BFF35F8F036883F3108894
S2144007B07047000008B5024B1860024B984708BDCA
S2144007C0800040208115400010B5044B1C68044B47
S2144007D0984701462046034B984710BD800040206E
S2144007E0D50D40008D15400010B5044B1C68044BD9
S2144007F0984701462046034B984710BD800040204E
S214400800DF0D40008D15400038B50625002407E072
S2144008100D4A52F83330B3B1984738BD013AD5B295
S214400820AC4210D82B195B10DAB2052A0BD8134607
S214400830054901EBC20149688142E9D08142EDD2C7
S2144008400132D4B2ECE738BD8400402008B500231E
S2144008500AE0084A02EBC3014FF0FF30486000212F
S21440086042F8331001339BB2052BF2D90248034BB2
S214400870984708BD84004020090840007910400091
S21440088010B584B00389ADF80430144602924FF494
S2144008900043ADF80630039101A91438034B98473E
S2144008A010B9204604B010BD0446FAE74D16400085
S2144008B010B584B00389ADF804301446029248F26D
S2144008C00103ADF80630039101A91438034B98474D
S2144008D010B9204604B010BD0446FAE74D16400055
S2144008E038B50D4604465E220849003018BF012040
S2144008F0074B984729462046064B9847034618B963
S214400900054AA261054A6261184638BD082440007F
S214400910810C400005164000B108400081084000A8
S21440092070B5164604460D46002818BF002914BF69
S2144009300120002034220449044B9847236832465D
S21440094029462046984770BD24244000810C40002C
S21440095070B5164604460D46002818BF002914BF39
S214400960012000203D220449044B984763683246E4
S21440097029462046984770BD24244000810C4000FC
S21440098008B5436903B1984708BD08B5836903B104
S214400990984708BD38B504460D46002818BF0029BC
S2144009A014BF0120002033220649074B98472946AA
S2144009B02046064B9847064B2360064B6360002054
S2144009C038BD00BF38244000810C4000F91140007B
S2144009D0810940008B09400010B504464A22094967
S2144009E0003018BF0120084B98472046074B9847D1
S2144009F020B92046064B9847002010BD6FF01000E7
S214400A0010BD00BF38244000810C400075134000E4
S214400A103113400038B50D460446392203490030AC
S214400A2018BF0120024B9847256038BD502440002F
S214400A30810C400038B504460D46002818BF0029F2
S214400A4014BF01200020402209490A4B98472046FF
S214400A5040F8045F2946084B9847002807DB4FF4C8
S214400A600043A382054B2361054BE360002038BD5D
S214400A7050244000810C4000C1134000010B400050
S214400A80C50A400030B585B005460C46002818BF5C
S214400A90002914BF01200020B3220749074B98477E
S214400AA02368019363680293A368039301A9281DF2
S214400AB0034B984705B030BD50244000810C4000A1
S214400AC06914400070B584B00E4615460446A3220D
S214400AD00849003018BF0120074B9847002302936F
S214400AE00196039501A9A4F10C00044B984704B065
S214400AF070BD00BF50244000810C4000850A400075
S214400B0070B584B00E461546044687220849003024
S214400B1018BF0120074B9847029600230193039580
S214400B2001A9A4F10C00044B984704B070BD00BF67
S214400B3050244000810C4000850A4000F8B5164617
S214400B4005460F46002818BF002902D00ABB0020E1
S214400B5000E00020F1221049104B984705F10804A8
S214400B6020460F4B98470028F8D00025795D204650
S214400B700C4B984720460A4B98470028FAD0013538
S214400B80B542F3D32046084B98470028FAD028466B
S214400B90F8BD0120DEE700BF6C244000810C400019
S214400BA07119400029194000991940002DE9F0417B
S214400BB0174605468846002818BF002902D0D2B9F5
S214400BC0002000E000204FF486720C490C4B9847FA
S214400BD0002605F1080420460A4B98470028F8D01E
S214400BE02046094B984708F806000136BE42F0D327
S214400BF03046BDE8F0810120E5E700BF6C244000A8
S214400C00810C4000C11940004D19400038B50446DB
S214400C100D46002818BF002914BF012000203422AA
S214400C200749084B9847294604F10800064B984761
S214400C30034618B9054A6260054A2260184638BD20
S214400C406C244000810C4000BD184000AD0B4000B5
S214400C503D0B400010B5044653220649003018BFED
S214400C600120054B984704F10800044B98470020A4
S214400C7010BD00BF6C244000810C4000F5184000B9
S214400C8000B900BE704700000346064A126822B10B
S214400C90044A10680344136070470349014A1160D0
S214400CA0F6E700BFB4004020700740204FF0FF300A
S214400CB070474FF400534B60002070470020704749
S214400CC064231D4A03FB01235A6842609A68826087
S214400CD0DA68C2601A6902615A6902659A694265B1
S214400CE0DA6902661A6AC0F894205A6AC0F8A020E8
S214400CF09A6AC0F8D020DA6AC0F8D4201B6BC0F8D5
S214400D00D83000220B2A14D810B4426601EB810377
S214400D1003EB830313440C33074C04EB83035B68F9
S214400D20C3660132D2B20B2AEFD900205DF8044BDD
S214400D3070470020704700BF8824400008B5094B24
S214400D4098420AD003F52033984208D0A322064999
S214400D500020064B9847002008BD002008BD012013
S214400D6008BD00BF00C00340EC244000810C40009A
S214400D7008B5084B9847002313B10023184608BD12
S214400D80642202FB03F204498A5C9042F6D00133A7
S214400D90DBB2F1E73D0D40008824400038B50C46F4
S214400DA005464FF48D720749003018BF0120064BA8
S214400DB098472C602046054B984701462046044BF2
S214400DC0984738BDEC244000810C4000710D40002F
S214400DD0C10C40004FF4967303FB00F070474FF48D
S214400DE0967303FB00F04FF47A7303FB00F07047F2
S214400DF000B583B001A80E4B98470E4AD2F888300B
S214400E0043F47003C2F88830BFF34F8FBFF36F8F41
S214400E1001A8094B9847094A136823F4706343F4C2
S214400E20C0631360064B984703B05DF804FB00BFF1
S214400E309907400000ED00E0A7074000000C0E4078
S214400E405511400030B400258D4210D201220023B7
S214400E501F2B0AD850F82540224202D152000133B7
S214400E60F6E703EB451030BC70470135ECE74FF032
S214400E70FF30F8E710B586B0002301930293039342
S214400E8004930593214B1868F8222149003018BF77
S214400E900120204B9847204BDA6C9B6C1340019303
S214400EA01E49CA6C896C0A400292134325E0174BD0
S214400EB01B6820469847631104F01F04012202FA7B
S214400EC004F406AA02EB830353F8142C22EA040225
S214400ED043F8142C052101A8114B98470446B4F159
S214400EE0FF3FE4D10C4AD16C936C0B4001930B4905
S214400EF0C86C8A6C0240029213432BB1052101A8AC
S214400F00074B98470446EAE706B010BDB8004020B5
S214400F1040254000810C4000000E0E4000100E4060
S214400F20450E400010B50446D2220549003018BF91
S214400F300120044B984704482044C0F3472010BD86
S214400F4040254000810C400000F2F1BF10B5044639
S214400F50E0220D49003018BF01200C4B9847204630
S214400F600B4B98470023012B0BD8C3EBC3018A00D9
S214400F7008498A5C904202D00133DBB2F3E758B2AC
S214400F8010BD4FF0FF3010BD40254000810C4000A2
S214400F90250F40000425400038B5044640F259125B
S214400FA02949003018BF0120284B98472046284B37
S214400FB09847002843DB274DC200111A8B002B446C
S214400FC09968C4F8B010D968C4F8C0101969C4F854
S214400FD0C4109B69C4F8D030101A83002B445B6958
S214400FE0C4F8D43020461C4B9847284490F93830F3
S214400FF0002B0CDB5A0903F01F00012181402032F0
S214401000164840F82210BFF34F8FBFF36F8F002B68
S21440101008DB5A0903F01F000121814060320F4867
S21440102040F82210002B0DDB590903F01F03012264
S21440103002FA03F3094A42F82130002038BD6FF027
S214401040100038BD002038BD40254000810C4000CF
S2144010504D0F400004254000250F400000E100E011
S21440106008B5014B984708BD750E400008B5014BC2
S214401070984708BD750E400038B505460448054CEF
S214401080A0470548A047054B1D60002038BD00BF5F
S214401090000E0E40990F400000100E40B800402051
S2144010A0144A116A144B0B431362124B9B6E13F493
S2144010B0003FFAD00F490A6A22F070020F4B1343E2
S2144010C00B620C4B9B6E13F4003FFAD0094B1A6A26
S2144010D022F0807242F45C121A62996A084A0A4008
S2144010E09A62084A9A62034B9B6E13F0020FFAD03C
S2144010F0704700BF00060E4008003700200037004B
S214401100FFFF00F8013F1820114A136B23F07003CD
S21440111013630F4B9B6E13F0080FFAD00C4A136BF9
S21440112023F4407343F480731363094B9B6E13F0B0
S214401130080FFAD0064A136B23F0030343F002036A
S2144011401363034B9B6E13F0080FFAD0704700BF33
S21440115000060E4008B5024B9847024B984708BD1C
S214401160A1104000091140000023012B0FD8C3EB0B
S21440117003118A0007498A58824202D00133DBB203
S214401180F3E7C3EB03139A00084610447047002069
S214401190704700BF5C254000064B984203D0064B84
S2144011A0984203D07047054B1960F8E7034B5960E7
S2144011B0F8E700BF0000024000C00540BC004020E9
S2144011C008B50369DB6913B1036803B1984708BDE6
S2144011D008B5024B1868024B984708BDBC00402033
S2144011E0C111400008B5024B5868024B984708BDED
S2144011F0BC004020C1114000F8B506460C46081C0D
S21440120018BF01204FF4BF724449454B98472046CB
S214401210444B98470546346183682360C368E36758
S2144012200369C4F880304369E3658369A366C3698C
S214401230C4F8C030036AE366436AC4F82C34836A51
S214401240C4F84C34002319E02F6B180107EB000E4E
S2144012503A5CDEF8041010325201A1503A5CDEF8D7
S2144012600C10103204EB421251603A5CDEF8081063
S21440127004EB4212C2F80C1201335BB2EA6A9342A4
S214401280E2D3002314E0A96B03EB4300820001EB9A
S214401290020E885CDEF8047004EB0010C0F838716B
S2144012A08A5CDEF8081013321201A15001335BB29B
S2144012B06A6B9342E7D3314620461B4B984795F9D5
S2144012C00430002B0DDB5A0903F01F03012101FAFD
S2144012D003F32032154941F82230BFF34F8FBFF356
S2144012E06F8F95F90430002B09DB5A0903F01F0372
S2144012F0012101FA03F360320C4941F8223095F996
S2144013000430002B08DB590903F01F03012202FAC0
S21440131003F3064A42F821300020F8BD5426400028
S214401320810C4000691140009911400000E100E046
S21440133038B5044640F2B5120B49003018BF0120BC
S2144013400A4B984720690A4B9847002308E02169D2
S214401350056B1A01AD5C0122AA404A6001335BB2BC
S214401360C26A9342F3D338BD54264000810C4000F5
S2144013706911400010B504464FF4EF72074900303B
S21440138018BF0120064B98472369DB6813F00F0F00
S21440139001D0012010BD002010BD00BF54264000E3
S2144013A0810C400000207047044B0344C3F30743BE
S2144013B0052B01D000207047012070470080FFBFFA
S2144013C070B506460C460846204B984700233BB36C
S2144013D0002540F22F121E49002E18BF002C14BFC5
S2144013E0012000201B4B984755B3236913F4803FD8
S2144013F029D18023236034606A68174B13402360EA
S214401400AB68164A1A40164B13436360EB68236377
S2144014102B8AF380EB6803F0F0033371002070BD35
S21440142003EB83018A000F498A5C904202D0013365
S214401430DBB2CCE703EB8305AB000D461D44C8E7A3
S2144014406FF00C0070BD6FF0100070BDA913400027
S21440145080264000810C40007CFFFFFE6FFFF1FFBE
S21440146010000E006C2640002DE9F04186B007467D
S2144014700D4604680B6801934B6802930023039360
S214401480049303798DF81430261C18BF01264FF4B8
S2144014900B72334900280CBF002006F00100314B88
S2144014A09847236913F4803F22D16FF0130053E02E
S2144014B0002335E0507841EA0021023201920133A0
S2144014C00393E160D4F8108040F21D222449304650
S2144014D0244B984718F0080F38D06FF012000028B9
S2144014E036DB0398AB68984202D3049A93422FD9CE
S2144014F0236913F0010FDBD0A3689BB2029A5AB15E
S214401500511C029113709DF81420012A04D90A46F2
S214401510013102911B0A1370049B0133049301238B
S214401520002BCFD1039B049A9A42CBD3F9882269E9
S21440153012F0020FC6D0019A002AC0D0511C019169
S21440154011789DF814000128B4D8B8E70020C6E703
S214401550236913F4007FFBD006B0BDE8F08100BFDE
S21440156080264000810C400000207047034B6FF0FF
S2144015707F425A6005221A60704700BF10E000E0C4
S21440158008B5014B984708BD6D154000080E0DE0A4
S2144015900D4B6FF07F40586098600B4B1B6813F400
S2144015A0803FFAD001F17F4101311046431EDAB246
S2144015B00028EDD1044B59609960034B1B6813F427
S2144015C0803FFAD0704700BF10E000E000233BB1F8
S2144015D00020704703EB4304E300084618440CE041
S2144015E010B403EB4301CA0005498A588242F1D041
S2144015F00133DBB2002BF4D000205DF8044B70477B
S2144016009826400038B504460D46002818BF0029E5
S21440161014BF01200020782209490A4B98472561CB
S2144016202846094B984743682B60236982689A632B
S2144016302369C2685A64236902691A61002038BD6A
S214401640B0264000810C4000CD15400038B5044619
S2144016500D46002818BF002914BF01200020BA22DA
S2144016605249534B9847638813F4807F40F09A80E2
S2144016706B8813F0010F18D16B889BB243F48073CC
S2144016806B802B8813F4806F5FD022691B0A43F06F
S21440169078031B0403F4FE0343F48073536023690A
S2144016A02A78DA60002001465CE06B889BB243F4FF
S2144016B080736B802B8813F4806F22D022691B0ABC
S2144016C043F078031B0403F4FE0343F4885353604B
S2144016D023692A78DA6023696A68012A19D00122C8
S2144016E01A6000216B68994222D223691A6A12F066
S2144016F0020F10D11B6A13F4807FF6D06FF0010002
S21440170038BD22691B0403F4FE0343F48053536040
S214401710E1E70322E4E7AA681B6B53546B68023B7D
S214401720994201D00131DDE7236902221A60F9E7C8
S21440173023691B6A13F0010FFAD063889BB223F427
S21440174080739BB26380002038BD22691B0403F47B
S214401750FE035360A6E76FF0010078B9AB685B5CA8
S214401760536301316B68994208D22269136A13F4B5
S214401770807FF0D113F0040FF7D0EEE76B8813F4B8
S214401780004F06D163889BB223F480739BB263807C
S21440179038BD236902221A6023691B6A13F0010FC1
S2144017A0FAD0EFE76FF0050038BD00BFB026400026
S2144017B0810C400010B5044640F219221249003010
S2144017C018BF0120114B9847114B9C4213D003F58C
S2144017D000739C4211D003F580539C420FD003F512
S2144017E000739C420DD003F500739C4201D0FF204D
S2144017F010BD042010BD002010BD012010BD0220E9
S21440180010BD032010BD00BFD8264000810C40000C
S21440181000080E4010B504464FF427720E490030BB
S21440182018BF01200D4B984720460D4B9847002384
S21440183043B140F2A62208490020084B98470023AF
S214401840184610BD03EB43018A0006498A5C904265
S214401850F6D00133DBB2EBE7D8264000810C4000DF
S214401860B5174000CC26400010B5044640F2B322DF
S2144018700D49003018BF01200C4B984720460C4BB2
S21440188098470C4BC4F8E430AC2323604FF4807385
S214401890236000EB40008200074B13445B686360A4
S2144018A0F4232362002010BDD8264000810C40005F
S2144018B01518400000524155CC264000F8B50C465D
S2144018C0094E0746A9223146003018BF0120074D71
S2144018D0A847AA223146201C18BF0120A8473C60D2
S2144018E02046034B9847F8BDD8264000810C400060
S2144018F06918400070B50A4E0446F2223146003060
S21440190018BF0120074DA847246840F2D722314629
S214401910201C18BF0120A8475023236070BD00BF7D
S214401920D8264000810C400038B50C46054640F2AB
S21440193095120449003018BF0120034B98472B6886
S214401940DC6138BDD8264000810C400010B5044606
S21440195040F2A7120449003018BF0120034B9847B5
S21440196023689869C0B210BDD8264000810C40005C
S21440197010B504464FF4D8720549003018BF012010
S214401980044B984723685869C0F3400010BD00BF19
S214401990D8264000810C400010B5044640F2B912EB
S2144019A00549003018BF0120044B98472368586902
S2144019B0C0F3402010BD00BFD8264000810C400038
S2144019C010B5044640F2CB120549003018BF01203E
S2144019D0044B98472368586900F0010010BD00BFCB
S2144019E0D8264000810C40000020704710B50446C1
S2144019F068B103684BB1012033220649064B98472D
S214401A002368064A5A60002010BD0020F4E70020F4
S214401A10F2E700BFF0264000810C4000FFAFFF3FDA
S214401A2010B5214B98474FF4FA70204B9847204CFE
S214401A302046204B9847642120461F4B98474FF43A
S214401A40FA7120461D4B984740F2145120461C4BD5
S214401A50984740F6C41120461A4B98471A4B9A6B43
S214401A6002F08002D14301F0800119635A639A6BF9
S214401A7002F08002D14301F0800119635A639A6BE9
S214401A8002F08002D14301F0800119635A639A6BD9
S214401A9002F08002D14301F0800119635A634FF48B
S214401AA0FA700A4B9847D9E7C5014000C90740007D
S214401AB0E8004020D9094000E91A4000F91A4000E1
S214401AC0091B4000191B400000140E40E907400067
S214401AD0036949010B44C3F80822036919444FF4CB
S214401AE03763C1F81032704708B50A460221014BE9
S214401AF0984708BDD11A400008B50A460321014B55
S214401B00984708BDD11A400008B50A460121014B46
S214401B10984708BDD11A400008B50A460021014B37
S214401B20984708BDD11A400058B908B50B4611462B
S214401B301846054B9847002800DB08BD4FF0FF309D
S214401B4008BD4FF0FF307047A11B40000138022807
S214401B500BD808B50B4611461846054B9847002843
S214401B6000DB08BD4FF0FF3008BD4FF0FF30704738
S214401B70C51B400070B50646064D2B680021986888
S214401B80054CA0472B6800215868A047034B1E60B1
S214401B9070BD00BF00004020E91D4000DC00402032
S214401BA008B5064B1B6833B10A46014692B2184642
S214401BB0034B984708BD002008BD00BFDC0040200E
S214401BC05109400008B5064B1B6833B10A4601462A
S214401BD092B21846034B984708BD002008BD00BF88
S214401BE0DC0040202109400010B5044C2046044B40
S214401BF098472046034B984710BD00BF040140203D
S214401C00550C4000751B400070B50D4E0D4CA41B86
S214401C10A4100025A54209D10B4E0C4C00F0A6FDA1
S214401C20A41BA4100025A54205D170BD56F825304A
S214401C3098470135EEE756F8253098470135F2E7E4
S214401C407827400078274000782740007C274000CF
S214401C50024B0146186800F059B800BF000040200B
S214401C6002440346934200D1704703F8011BF9E74C
S214401C7038B50546002945D051F8043C0C1F002BCA
S214401C80B8BFE41800F006FB1F4A1368104633B985
S214401C90636014602846BDE8384000F0FCBAA342B2
S214401CA00CD921686218934204BF1A685B68636067
S214401CB004BF521822600460ECE713465A680AB123
S214401CC0A242FAD919685818A0420BD1206801449C
S214401CD0581882421960DDD1106852685A60014433
S214401CE01960D7E702D90C232B60D3E72068211868
S214401CF08A4204BF11685268626004BF09182160B6
S214401D005C60C7E738BD00BFE000402070B5CD1C22
S214401D1025F0030508350C2D38BF0C25002D06464A
S214401D2001DBA94203D90C233360002070BD00F0CC
S214401D30B1FA234A1468214691B9224C23681BB94C
S214401D40304600F041F820602946304600F03CF826
S214401D50431C26D10C233360304600F09CFAE4E75F
S214401D600B685B1B1AD40B2B0FD90B60CD50CC18CD
S214401D70304600F090FA04F10B00231D20F00700D7
S214401D80C31A1BD05A42E25070BD8C420DBF6368E6
S214401D904B686360136018BF0C46E9E70C46496819
S214401DA0CAE7C41C24F00304A04205D0211A3046DA
S214401DB000F00AF80130CDD02560D9E770BD00BFED
S214401DC0E0004020E400402038B5064C002305469D
S214401DD008462360FEF758FF431C02D1236803B130
S214401DE02B6038BD6C01402000294FF480630CBF47
S214401DF00222002200F000B82DE9F7431D46514B61
S214401E001E6804460F46904626B1B36913B930465D
S214401E1000F092F94C4B9C4252D17468B8F1020FD4
S214401E2006D0B8F1010F00F28980002DC0F28680FE
S214401E302146304600F016F9616B41B104F1440387
S214401E40994202D03046FFF713FF00236363002316
S214401E50A3616360A3891B0603D521693046FFF75B
S214401E6007FFA38923F44A6323F00303B8F1020F64
S214401E70A3815DD001AB6A462146304600F0E6F9C4
S214401E80A3891843A0812DBB009D2846FFF7E0FE9E
S214401E90074600284ED1DDF80090A9453CD14FF0CA
S214401EA0FF30A38943F00203A3810023A36004F11B
S214401EB04703236023610123636103B0BDE8F083D9
S214401EC0224B9C4201D1B468A8E7214B9C4208BFF4
S214401ED0F468A3E7002FD8D0B36913B9304600F0B2
S214401EE02BF9B8F1010F08BFA389276004BF43F060
S214401EF00103A381A389276113F0080065611BD005
S214401F0013F0010018BF6D424FF000031DBFA360E1
S214401F10A5611846A560D0E74846FFF799FE0746F4
S214401F200028BCD0A38943F08003A3814D46D3E765
S214401F300020B6E7A946F5E7A060BEE74FF0FF30C1
S214401F40BBE700BF000040202C2740004C27400045
S214401F500C2740008A892DE9F041054610070C46BB
S214401F605AD44B68002B05DC0B6C002B02DC00209F
S214401F70BDE8F081E66A002EF9D0002312F48052C4
S214401F802F682B6033D0606DA3895A0705D56368E8
S214401F90C01A636B0BB1236CC01A00230246E66A74
S214401FA0216A2846B047431CA38906D129681D29C3
S214401FB04BD82B4ACA40D60747D500226260D90480
S214401FC02269226004D5421C01D12B6803B96065A2
S214401FD0616B2F600029CAD004F14403994202D0B5
S214401FE02846FFF745FE00206063BDE8F081216A81
S214401FF001232846B047411CC6D12B68002BC3D0CE
S2144020001D2B01D0162B01D12F60B0E7A38943F0DA
S2144020104003A381BDE8F0810F69002FA7D0930746
S2144020200E6808BF4B690F6018BF0023A6EB070871
S2144020308B60B8F1000F9ADD43463A46216AA66A9D
S2144020402846B047002807DCA38943F04003A38115
S2144020504FF0FF30BDE8F0810744A8EB0008E8E702
S2144020600100402038B50B6905460C46DBB118B177
S21440207083690BB900F060F80C4B9C4209D16C6840
S214402080B4F90C307BB121462846BDE83840FFF70E
S21440209061BF074B9C4201D1AC68F1E7054B9C42BF
S2144020A008BFEC68ECE7002038BD00BF2C27400096
S2144020B04C2740000C274000014900F0A9B800BF5B
S2144020C065204000002310B50446036043608360EB
S2144020D081814366C2810361436183611946082258
S2144020E05C30FFF7BDFD054B6362054BA362054BB5
S2144020F0E362054B2462236310BD00BF9922400073
S214402100BB224000F32240001723400070B54A1E11
S214402110682555430E4605F17401FFF7F7FD044662
S21440212040B1002180E842000C30A06005F1680212
S214402130FFF796FD204670BD836910B5044633BB55
S2144021408364C3640365124B124A1B6882629842DA
S21440215004BF0123836100F01FF86060204600F052
S2144021601BF8A060204600F017F80022E06004212B
S2144021706068FFF7A7FF01220921A068FFF7A2FFCA
S21440218002221221E068FFF79DFF0123A36110BDE4
S21440219008274000B9204000F8B51C4B1E68B369BC
S2144021A0074613B93046FFF7C7FF4836B46873682A
S2144021B0013B03D5336833B13668F7E7B4F90C50C2
S2144021C06DB16834F4E704213846FFF79FFF30606E
S2144021D00028F1D10C233B6004462046F8BD4FF65C
S2144021E0FF73E3810123A38165662560A560656072
S2144021F025616561A5610822294604F15C00FFF768
S2144022002FFD6563A563A564E564E6E708274000FF
S2144022102DE9F8438046894600F14804002614B963
S2144022203046BDE8F883A5686768013F01D5246855
S214402230F5E7AB89012B07D9B5F90E30013303D04A
S21440224029464046C84706436835EEE770B50E4611
S214402250B1F90E10002990B014461D4607DA002347
S2144022602B60B3891A0610D44FF480630EE001AA9F
S21440227000F078F80028F2DB029A02F47042A2F5E9
S21440228000535A425A412A60EEE74023002023601A
S21440229010B070BD7047704710B50C46B1F90E10BF
S2144022A000F084F80028ABBF636DA3891B1823F4A5
S2144022B08053ACBF6365A38110BD2DE9F0411F4636
S2144022C08B89DB0505460C46164605D502230022BB
S2144022D0B1F90E1000F058F8A389B4F90E1023F4A3
S2144022E08053A38132463B462846BDE8F04100F085
S2144022F017B810B50C46B1F90E1000F045F8431C5F
S214402300A38915BF606523F4805343F48053A381AB
S21440231018BFA38110BDB1F90E1000F013B800002D
S21440232038B5074C054608461146002222601A4634
S214402330FFF70CFC431C02D1236803B12B6038BD69
S2144023406C01402038B5064C0023054608462360FD
S214402350FEF7ACFC431C02D1236803B12B6038BDAA
S2144023606C01402038B5074C002305460846114608
S2144023702360FEF79EFC431C02D1236803B12B600A
S21440238038BD00BF6C01402038B5074C05460846AE
S2144023901146002222601A46FEF790FC431C02D1EA
S2144023A0236803B12B6038BD6C01402038B5074C1C
S2144023B0054608461146002222601A46FFF7B4FB3F
S2144023C0431C02D1236803B12B6038BD6C0140200A
S2144023D02E2E2F68616C2F696E636C7564652F684E
S2144023E0616C5F7764742E68000000002E2E2F68A4
S2144023F0616C2F7372632F68616C5F6164635F7397
S214402400796E632E630000002E2E2F68616C2F734A
S21440241072632F68616C5F6932635F6D5F73796E5C
S214402420632E63002E2E2F68616C2F7372632F68A5
S214402430616C5F696F2E63002E2E2F68616C2F7360
S21440244072632F68616C5F70776D2E6300000000CA
S2144024502E2E2F68616C2F7372632F68616C5F73CA
S21440246070695F6D5F73796E632E63002E2E2F68E2
S214402470616C2F7372632F68616C5F7573617274E1
S2144024805F73796E632E6300000000000031842F76
S21440249000000003FFFFFFFFFFFF000000000000FA
S2144024A000000000000000000C01000000000000DA
S2144024B000000000000000000000000000020000D5
S2144024C000020000000200000002000000020000BF
S2144024D000020000000200000002000000020000AF
S2144024E00002000000020000000200002E2E2F68AE
S2144024F0706C2F616665632F68706C5F616665639C
S2144025002E630000000000000080C0032080C0034F
S2144025102080C003000000000000C00320800000B0
S21440252001000000F2000000F2000000F20000008F
S21440253000000000F0000000020000000A0B10003F
S2144025402E2E2F68706C2F70696F2F68706C5F70BE
S214402550696F5F6578742E630000000000000240DB
S2144025601F00000001000100010000000100000003
S214402570FF00000000000000040000000000000013
S2144025800000000000000000040000001426400088
S21440259000000000D000402000C005403C00000085
S2144025A0010001000100000001000000FF000000E3
S2144025B000000000040000000000000000000000D2
S2144025C00000000004000000D42540000000000089
S2144025D0C400402000000000080000000004000086
S2144025E0000200000100000000000000000400009F
S2144025F0000200000200000000000000000400008E
S214402600000200000300000000000000000400007C
S2144026100002000000000000080200000004000065
S2144026200002000001000000080200000004000054
S2144026300002000002000000080200000004000043
S2144026400002000003000000080200000004000032
S214402650000200002E2E2F68706C2F70776D2F684A
S214402660706C5F70776D2E63000000000000000005
S214402670000000800100000002FA9604FFFF000000
S2144026802E2E2F68706C2F7370692F68706C5F7376
S21440269070692E63000000000080014020000000AA
S2144026A00000000000000000BABA0200F049020034
S2144026B02E2E2F68706C2F74776968732F68706C35
S2144026C05F74776968732E630000000000000000A6
S2144026D000080000F40000002E2E2F68706C2F7546
S2144026E06172742F68706C5F756172742E6300003F
S2144026F02E2E2F68706C2F7764742F68706C5F77FF
S21440270064742E63000000000400402000000000B7
S2144027100000000000000000000000000000000074
S2144027200000000000000000000000000000000064
S2144027300000000000000000000000000000000054
S2144027400000000000000000000000000000000044
S2144027500000000000000000000000000000000034
S214402760000000000000000000000000F8B500BFB8
S214402770F8BC08BC9E4670477D014000F8B500BFD7
S210402780F8BC08BC9E467047590140005B
S21440278C04004020000000002C2740004C2740004E
S21440279C0C27400000000000000000000000000075
S2144027AC00000000000000000000000000000000D8
S2144027BC00000000000000000000000000000000C8
S2144027CC00000000000000000000000000000000B8
S2144027DC00000000000000000000000000000000A8
S2084027EC00000000A4
S804400000BB
