S01C0000526F626F745F4669726D776172655F7631372E322E73726563C9
S21440000050074020D5014000D1014000D1014000BA
S214400010D1014000D1014000D10140000000000065
S214400020000000000000000000000000D101400079
S214400030D101400000000000D1014000D101400045
S214400040D1014000D1014000D1014000D101400023
S214400050D1014000D1014000D1014000D101400013
S214400060D101400000000000851140007911400099
S21440007000000000D1014000D1014000D101400005
S214400080D101400000000000D1014000D1014000F5
S214400090D1014000D1014000D1014000A5184000E8
S2144000A0D1014000D1014000D1014000D1014000C3
S2144000B0D1014000D1014000D10140004913400029
S2144000C0D1014000D1014000D101400000000000B5
S2144000D000000000000000000000000000000000DB
S2144000E0D1014000D101400000000000D101400095
S2144000F0D1014000D1014000D1014000D101400073
S214400100D1014000D1014000D1014000D101400062
S214400110D101400000000000000000000000000088
S214400120D1014000D1014000D1014000D101400042
S2144001305D134000D101400000000000D1014000A6
S214400140D1014000D1014000000000000000000046
S214400150D1014000D101400010B5054C237833B999
S214400160044B13B10448AFF300800123237010BD45
S2144001702400402000000000D02240000C4B43B139
S2144001800C480D4910B5AFF300800C48036823B9FE
S21440019010BD0A48036833B97047094B002BF7D0A7
S2144001A0BDE810401847064B002BF5D0184700BF57
S2144001B000000000D022400028004020D02240000E
S2144001C00000000008B5014B984708BDB105400047
S2144001D0FEE7000008B5104B104A9A4209D00E4B75
S2144001E00E4A03E011681960043304320C498B420E
S2144001F0F8D30C4B02E000221A6004330A4A9342BA
S214400200F9D30A4A0A4B23F07F039360094B984779
S214400210094B9847FEE700BF00004020D022400030
S21440022024004020240040205001402000ED00E003
S214400230000040003D1F4000D51A400008B5084B5E
S2144002409B6913F4000F03D14FF40002044B1A616C
S214400250044B9847024604490448054B984708BD56
S21440026000060E40A118400000C000401401402087
S214400270410D40004FF08042054B1A600422A3F522
S21440028080631A604FF48022A3F500731A607047AB
S21440029000140E40044B9B6913F0005F03D14FF0EF
S2144002A00052014B1A61704700060E4008B5054BD8
S2144002B09847054B9847002204490548054B984700
S2144002C008BD00BF950240007502400000C00340D4
S2144002D0B800402085074000034B02225A611A6648
S2144002E0C3F890201A60704700100E40124B4FF42F
S2144002F000425A611A66C3F890201A604FF4800292
S2144003005A611A66C3F890201A604FF400025A6188
S2144003101A66C3F890201A604FF080725A611A66C7
S214400320C3F890201A604FF000725A611A66C3F8FC
S21440033090201A60704700BF000E0E40174B1A6F91
S21440034042F400621A675A6F22F400625A674FF40A
S21440035000625A60A3F5C0631A6F22F004021A675F
S2144003605A6F22F004025A6704225A601A6F42F407
S21440037000521A675A6F22F400525A674FF40052DE
S2144003805A601A6F22F400321A675A6F42F40032EB
S2144003905A674FF400325A60704700BF00140E4050
S2144003A0044B9B69002B03DB4FF00042014B1A6164
S2144003B0704700BF00060E4008B5064B9847064BF0
S2144003C09847064B9847024605490648064B9847C5
S2144003D008BD00BFA10340003D0340001D1540007E
S2144003E0000002409C0040208D0A4000064B1A6FD9
S2144003F022F480521A675A6F42F480525A674FF47A
S21440040080525A60704700BF000E0E40054BD3F82E
S214400410083113F0805F04D14FF08052014BC3F88F
S2144004200021704700060E4008B5064B9847064B1D
S2144004309847064B9847024605490648064B984754
S21440044008BD00BF0D044000ED0340001D154000F0
S21440045000C00540D80040208D0A4000114B1A6F5E
S21440046042F480121A675A6F22F480125A674FF489
S21440047080125A601A6F42F400121A675A6F22F4BA
S21440048000125A674FF400125A601A6F42F4800204
S2144004901A675A6F22F480025A674FF480025A60F5
S2144004A0704700BF00140E40044B9B6913F4001FB6
S2144004B003D14FF40012014B1A61704700060E40FC
S2144004C010B5084B9847084B9847084C01462046BD
S2144004D0074B984707492046074B9847074B98478E
S2144004E010BD00BFA90440001D174000C0004020BA
S2144004F00D0B4000008000402D0B40005D04400086
S2144005000A4B1A6F22F010021A675A6F22F0100236
S2144005105A6710225A601A6F22F008021A675A6FFA
S21440052022F008025A6708225A607047000E0E40B2
S214400530044B9B6913F4002F03D14FF40022014B68
S2144005401A61704700060E4008B5044B98470449A8
S2144005500448054B9847054B984708BD3105400071
S21440056000800140F4004020D909400001054000C9
S21440057008B50248024B984708BD00BF10E000E0AF
S214400580FD07400008B5482204490120044B98471F
S2144005900448054B0360054B984708BD941F400030
S2144005A07D0D4000BC00402050180E40A11A40006F
S2144005B010B5664B9847664B9B6913F4806F03D122
S2144005C04FF48062624B1A61614B9B6913F4006F73
S2144005D003D14FF400625E4B1A615D4B9B6913F486
S2144005E0803F03D14FF48032594B1A61594B4FF03C
S2144005F0006159611966C3F8901019604FF0805237
S2144006005A611A66C3F890201A604FF080405861CD
S2144006101866C3F8900018604FF00040586118669E
S214400620C3F89000186003F500730820186318613B
S214400630186003F5806304241C631C611C60186307
S214400640186118601020586318611860202058639D
S21440065018611860402058631861186080205863FD
S214400660186118604FF480705863186118604FF432
S21440067000705863186118604FF4806058631861C2
S21440068018604FF4805058611866C3F890001860A0
S2144006904FF4005058611866C3F8900018604FF445
S2144006A0804058611866C3F8900018604FF40040C8
S2144006B058611866C3F8900018604FF4803058614F
S2144006C01866C3F8900018604FF4003058611866FA
S2144006D0C3F8900018604FF4802058611866C3F83D
S2144006E0900018604FF4002058611866C3F89000D8
S2144006F018604FF080705863186118604FF00070B3
S2144007005863186118604FF080605863186118602D
S2144007105963196119605A631A611A600E4B9847FB
S2144007200E4B98470E4B98470E4B98470E4B9847A4
S2144007300E4B98470E4B98470E4B98470E4B984794
S2144007400E4B98470E4B984710BD00BF090F400010
S21440075000060E40000E0E40AD024000D90240009A
S214400760ED024000B903400029044000C1044000A7
S2144007703D024000490540007105400085054000A7
S2144007807508400038B504460D46002818BF0029B5
S21440079014BF0120002039220349044B98472946BC
S2144007A02046034B984738BDB01F40007D0D4000A3
S2144007B0B90E400038B50D4604464E220549003075
S2144007C018BF0120044B984729462046034B9847BC
S2144007D0002038BDB01F40007D0D4000F10E4000A7
S2144007E0EFF31083036072B6BFF35F8F7047BFF3BB
S2144007F05F8F036883F310887047000008B5024B8C
S2144008001860024B984708BD40004020351740000E
S21440081010B5044B1C68044B984701462046034BD2
S214400820984710BD40004020FD0E40004117400054
S21440083038B50625002407E00D4A52F83330B3B1E8
S214400840984738BD013AD5B2AC4210D82B195B1048
S214400850DAB2052A0BD81346054901EBC2014968AE
S2144008608142E9D08142EDD20132D4B2ECE738BDC4
S2144008704400402008B500230AE0084A02EBC301C2
S2144008804FF0FF304860002142F8331001339BB2EE
S214400890052BF2D90248034B984708BD4400402038
S2144008A03108400091114000F0B583B00546002362
S2144008B0052B0ED818462E4A02EBC3025268AA42AF
S2144008C002D00133DBB2F3E7294B43F8301001275F
S2144008D000E0002759B1002F3DD10026052E13D841
S2144008E0234B53F8363043B10136F6B2F6E7002FC5
S2144008F038D028461F4B984732E01D4B43F83610F9
S21440090003EBC60255600127002301E00133DBB24A
S214400910052B98BF052E1ED8B646154A02EBC601D3
S214400920486802EBC30252689042EFD2B2F1FF3FF2
S214400930ECD00F4C04EBC30292E803008DE80300B2
S21440094004EBC60494E8030082E803009DE8030035
S21440095084E80300DAE747B101212846054B98476B
S21440096003B0F0BD6FF00C00FAE76FF00C00F7E74D
S21440097044004020B911400010B584B00389ADF85A
S2144009800430144602924FF40043ADF8063003910B
S21440099001A91438034B984710B9204604B010BD3F
S2144009A00446FAE73919400010B584B00389ADF81B
S2144009B004301446029248F20103ADF80630039123
S2144009C001A91438034B984710B9204604B010BD0F
S2144009D00446FAE73919400038B50D4604465E220B
S2144009E00849003018BF0120074B98472946204643
S2144009F0064B9847034618B9054AA261054A626104
S214400A00184638BDCC1F40007D0D4000F118400010
S214400A10A90940007909400070B5164604460D46BF
S214400A20002818BF002914BF0120002034220449A2
S214400A30044B98472368324629462046984770BD5F
S214400A40E81F40007D0D400070B5164604460D4632
S214400A50002818BF002914BF012000203D22044969
S214400A60044B98476368324629462046984770BDEF
S214400A70E81F40007D0D400008B5436903B1984724
S214400A8008BD08B5836903B1984708BD38B5044624
S214400A900D46002818BF002914BF0120002033222D
S214400AA00649074B984729462046064B9847064B2B
S214400AB02360064B6360002038BD00BFFC1F40002B
S214400AC07D0D400071134000790A4000830A4000C3
S214400AD010B504464A220949003018BF0120084B89
S214400AE098472046074B984720B92046064B9847DC
S214400AF0002010BD6FF0100010BD00BFFC1F40006E
S214400B007D0D4000ED144000A914400038B50D4658
S214400B10044639220349003018BF0120024B98474B
S214400B20256038BD142040007D0D400038B5044691
S214400B300D46002818BF002914BF0120002040227F
S214400B4009490A4B9847204640F8045F2946084B17
S214400B509847002807DB4FF40043A382054B2361E8
S214400B60054BE360002038BD142040007D0D40005A
S214400B7041154000210C4000E50B400010B50446EE
S214400B8057220549003018BF0120044B9847201DC6
S214400B90034B984710BD00BF142040007D0D400019
S214400BA0E915400030B585B005460C46002818BF0C
S214400BB0002914BF01200020B3220749074B98475D
S214400BC02368019363680293A368039301A9281DD1
S214400BD0034B984705B030BD142040007D0D4000C3
S214400BE01D16400070B584B00E4615460446A32236
S214400BF00849003018BF0120074B9847002302934E
S214400C000196039501A9A4F10C00044B984704B043
S214400C1070BD00BF142040007D0D4000A50B400075
S214400C2070B584B00E461546044687220849003003
S214400C3018BF0120074B984702960023019303955F
S214400C4001A9A4F10C00044B984704B070BD00BF46
S214400C50142040007D0D4000A50B400038B50446EA
S214400C600D46002818BF002914BF01200020BD22D1
S214400C700349044B98470C342C60002038BD00BF15
S214400C80142040007D0D4000F8B5076817B13C467B
S214400C9000260BE00E4B9847F8BDA5682B449B1AE0
S214400CA001338D68AB4209D22646246834B1636866
S214400CB09342F2D8A5689B1A2B44F2E7BC4203D075
S214400CC03046044B9847F8BD014B9847F8BD00BFE7
S214400CD0990D4000C50D4000F8B5446906690136D7
S214400CE00661037E13F0010F05D1037E13F0020F59
S214400CF001D1054609E0037E43F002030376F8BDC2
S214400D006F69E368204698473C469CB16368F31A8F
S214400D10A26893420ED305F114073846064B98470F
S214400D20237C012BECD16660324621463846034B85
S214400D309847E5E7F8BD00BFCD0D4000890C400060
S214400D4038B504460D46002818BF002914BF0120B8
S214400D5000203B220549064B984729462046054B2E
S214400D60984700202061044B236038BD3020400067
S214400D707D0D4000E5174000D90C400000B900BE8C
S214400D80704703681BB18B4203D01B68FAE700200C
S214400D90704701207047000038B504460D46064BA4
S214400DA0984780F0010039220449C0B2044B984766
S214400DB023682B60256038BD830D400048204000E6
S214400DC07D0D400003680B600160704703681BB1EF
S214400DD01A680260184670470020704764231D4A10
S214400DE003FB01235A6842609A688260DA68C260F0
S214400DF01A6902615A6902659A694265DA69026649
S214400E001A6AC0F894205A6AC0F8A0209A6AC0F8B5
S214400E10D020DA6AC0F8D4201B6BC0F8D830002245
S214400E200B2A14D810B4426601EB810303EB83030C
S214400E3013440C33074C04EB83035B68C3660132F0
S214400E40D2B20B2AEFD900205DF8044B7047002041
S214400E50704700BF6820400008B5094B98420AD04A
S214400E6003F52033984208D0A32206490020064BBB
S214400E709847002008BD002008BD012008BD00BFDF
S214400E8000C00340CC2040007D0D400008B5084B14
S214400E909847002313B10023184608BD642202FB7E
S214400EA003F204498A5C9042F6D00133DBB2F1E7A4
S214400EB0590E40006820400038B50C4605464FF4B1
S214400EC08D720749003018BF0120064B98472C60AA
S214400ED02046054B984701462046044B984738BD68
S214400EE0CC2040007D0D40008D0E4000DD0D4000C2
S214400EF00268012303FA01F1516170474FF496737B
S214400F0003FB00F07047000000B583B001A80E4B0D
S214400F1098470E4AD2F8883043F47003C2F88830B7
S214400F20BFF34F8FBFF36F8F01A8094B9847094A0D
S214400F30136823F4706343F4C0631360064B98470A
S214400F4003B05DF804FB00BFE107400000ED00E0A1
S214400F50EF074000000C0E40CD12400030B4002594
S214400F608D4210D2012200231F2B0AD850F825406C
S214400F70224202D152000133F6E703EB451030BC63
S214400F8070470135ECE74FF0FF30F8E710B586B014
S214400F90002301930293039304930593214B18680F
S214400FA0F8222149003018BF0120204B9847204B9B
S214400FB0DA6C9B6C134001931E49CA6C896C0A40DC
S214400FC00292134325E0174B1B682046984763114F
S214400FD004F01F04012202FA04F406AA02EB83037B
S214400FE053F8142C22EA040243F8142C052101A8D5
S214400FF0114B98470446B4F1FF3FE4D10C4AD16CFC
S214401000936C0B4001930B49C86C8A6C0240029269
S21440101013432BB1052101A8074B98470446EAE73E
S21440102006B010BD74004020202140007D0D4000D9
S214401030000E0E4000100E405D0F400010B50446F6
S214401040D2220549003018BF0120044B9847044877
S2144010502044C0F3472010BD202140007D0D4000B5
S21440106000F2F1BF10B50446E0220D49003018BF2B
S21440107001200C4B984720460B4B98470023012BEA
S2144010800BD8C3EBC3018A0008498A5C904202D061
S2144010900133DBB2F3E758B210BD4FF0FF3010BD5E
S2144010A0202140007D0D40003D104000E4204000DF
S2144010B038B5044640F259122949003018BF01207D
S2144010C0284B98472046284B9847002843DB274D17
S2144010D0C200111A8B002B449968C4F8B010D96826
S2144010E0C4F8C0101969C4F8C4109B69C4F8D0305D
S2144010F0101A83002B445B69C4F8D43020461C4B3E
S2144011009847284490F93830002B0CDB5A0903F0F6
S2144011101F00012181402032164840F82210BFF3BC
S2144011204F8FBFF36F8F002B08DB5A0903F01F0069
S2144011300121814060320F4840F82210002B0DDB21
S214401140590903F01F03012202FA03F3094A42F841
S2144011502130002038BD6FF0100038BD002038BD6B
S214401160202140007D0D400065104000E4204000F6
S2144011703D10400000E100E008B5014B984708BD2F
S2144011808D0F400008B5014B984708BD8D0F4000B5
S21440119038B505460448054CA0470548A047054BCA
S2144011A01D60002038BD00BF000E0E40B11040004C
S2144011B000100E40740040202DE9F04104460F46D2
S2144011C0DFF850804FF4D37241469F288CBF0020F2
S2144011D001200E4EB047E5B2C32241469F2D8CBF3C
S2144011E000200120B0476D09094B03EB452504F06C
S2144011F01F0437B9012303FA04F46C640020BDE8E9
S214401200F081012303FA04F42C64F7E77D0D4000D7
S214401210000E0E4020214000144A116A144B0B4326
S2144012201362124B9B6E13F4003FFAD00F490A6AC2
S21440123022F070020F4B13430B620C4B9B6E13F461
S214401240003FFAD0094B1A6A22F0807242F45C12D0
S2144012501A62996A084A0A409A62084A9A62034B96
S2144012609B6E13F0020FFAD0704700BF00060E4088
S2144012700800370020003700FFFF00F8013F182025
S214401280114A136B23F0700313630F4B9B6E13F0DE
S214401290080FFAD00C4A136B23F4407343F4807360
S2144012A01363094B9B6E13F0080FFAD0064A136B74
S2144012B023F0030343F002031363034B9B6E13F0C8
S2144012C0080FFAD0704700BF00060E4008B5024B24
S2144012D09847024B984708BD1912400081124000BB
S2144012E00023012B0FD8C3EB03118A0007498A5805
S2144012F0824202D00133DBB2F3E7C3EB03139A001A
S2144013000846104470470020704700BF3C2140000C
S214401310064B984203D0064B984203D07047054B85
S2144013201960F8E7034B5960F8E700BF0000024039
S21440133000C005407800402008B50369DB6913B15A
S214401340036803B1984708BD08B5024B1868024BBE
S214401350984708BD780040203913400008B5024B36
S2144013605868024B984708BD780040203913400023
S214401370F8B506460C46081C18BF01204FF4BF724D
S2144013804449454B98472046444B98470546346168
S21440139083682360C368E3670369C4F880304369A1
S2144013A0E3658369A366C369C4F8C030036AE3662D
S2144013B0436AC4F82C34836AC4F84C34002319E0DA
S2144013C02F6B180107EB000E3A5CDEF80410103263
S2144013D05201A1503A5CDEF80C10103204EB421277
S2144013E051603A5CDEF8081004EB4212C2F80C1268
S2144013F001335BB2EA6A9342E2D3002314E0A96B5E
S21440140003EB4300820001EB020E885CDEF80470BA
S21440141004EB0010C0F838718A5CDEF8081013320E
S2144014201201A15001335BB26A6B9342E7D3314657
S21440143020461B4B984795F90430002B0DDB5A0984
S21440144003F01F03012101FA03F32032154941F846
S2144014502230BFF34F8FBFF36F8F95F90430002BC8
S21440146009DB5A0903F01F03012101FA03F3603236
S2144014700C4941F8223095F90430002B08DB590915
S21440148003F01F03012202FA03F3064A42F8213012
S2144014900020F8BD042240007D0D4000E1124000CF
S2144014A01113400000E100E038B5044640F2B512A2
S2144014B00B49003018BF01200A4B984720690A4B59
S2144014C09847002308E02169056B1A01AD5C0122AC
S2144014D0AA404A6001335BB2C26A9342F3D338BD36
S2144014E0042240007D0D4000E112400010B5044645
S2144014F04FF4EF720749003018BF0120064B98475B
S2144015002369DB6813F00F0F01D0012010BD0020C7
S21440151010BD00BF042240007D0D400000207047F3
S2144015200123036000207047044B0344C3F3074382
S214401530052B01D000207047012070470080FFBF78
S21440154070B506460C460846204B984700233BB3EA
S214401550002540F22F121E49002E18BF002C14BF43
S214401560012000201B4B984755B3236913F4803F56
S21440157029D18023236034606A68174B1340236068
S214401580AB68164A1A40164B13436360EB682363F6
S2144015902B8AF380EB6803F0F0033371002070BDB4
S2144015A003EB83018A000F498A5C904202D00133E4
S2144015B0DBB2CCE703EB8305AB000D461D44C8E722
S2144015C06FF00C0070BD6FF0100070BD2915400024
S2144015D0302240007D0D40007CFFFFFE6FFFF1FF94
S2144015E010000E001C22400010B5044668B1036887
S2144015F04BB1012040F26D120549064B98472068D2
S214401600054B984710BD0020F4E70020F2E700BFE6
S214401610302240007D0D4000211540002DE9F0416C
S21440162086B007460D4604680B6801934B680293E4
S21440163000230393049303798DF81430261C18BFB7
S21440164001264FF40B72334900280CBF002006F0E9
S2144016500100314B9847236913F4803F22D16FF045
S214401660130053E0002335E0507841EA002102326F
S214401670019201330393E160D4F8108040F21D22BA
S21440168024493046244B984718F0080F38D06FF05E
S2144016901200002836DB0398AB68984202D3049ABF
S2144016A093422FD9236913F0010FDBD0A3689BB276
S2144016B0029A5AB1511C029113709DF81420012AC7
S2144016C004D90A46013102911B0A1370049B013368
S2144016D004930123002BCFD1039B049A9A42CBD389
S2144016E0F988226912F0020FC6D0019A002AC0D0AB
S2144016F0511C019111789DF814000128B4D8B8E720
S2144017000020C6E7236913F4007FFBD006B0BDE88F
S214401710F08100BF302240007D0D40000020704721
S214401720034B6FF07F425A6005221A60704700BF35
S21440173010E000E008B5014B984708BD211740006F
S214401740080E0DE00D4B6FF07F40586098600B4BD5
S2144017501B6813F4803FFAD001F17F4101311046F7
S214401760431EDAB20028EDD1044B59609960034B12
S2144017701B6813F4803FFAD0704700BF10E000E0CB
S21440178000233BB10020704703EBC304A300084688
S21440179018440CE010B403EBC3018A0005498A588C
S2144017A08242F1D00133DBB2002BF4D000205DF84A
S2144017B0044B704700004020034B984200D07047CF
S2144017C0024B1960FBE700BF00C000409800402075
S2144017D008B5C3681B6A13F0100F00D108BD036834
S2144017E09847FBE7F8B507460C460846274B984708
S2144017F005468668FC60912225490120254B98477E
S21440180016F4004F01D046F4142666606B69636197
S214401810AB69A361EB682363EB69E3611023636202
S2144018202B69C4F8D830394620461B4B984795F963
S2144018300430002B0DDB5A0903F01F03012101FA87
S21440184003F32032154941F82230BFF34F8FBFF3E0
S2144018506F8F95F90430002B09DB5A0903F01F03FC
S214401860012101FA03F360320C4941F8223095F920
S2144018700430002B08DB590903F01F03012202FA4B
S21440188003F3064A42F821300020F8BD8117400095
S214401890482240007D0D4000B917400000E100E0BE
S2144018A00020704708B5024B1868024B984708BDA1
S2144018B098004020D117400000233BB100207047DD
S2144018C003EB4304E300084618440CE010B403EB73
S2144018D04301CA0005498A588242F1D00133DBB23F
S2144018E0002BF4D000205DF8044B70475C2240008B
S2144018F038B504460D46002818BF002914BF0120FD
S2144019000020782209490A4B984725612846094B0A
S214401910984743682B60236982689A632369C26844
S2144019205A64236902691A61002038BD7422400057
S2144019307D0D4000B918400038B504460D460028D5
S21440194018BF002914BF01200020BA225249534B29
S2144019509847638813F4807F40F09A806B8813F032
S214401960010F18D16B889BB243F480736B802B8831
S21440197013F4806F5FD022691B0A43F078031B0480
S21440198003F4FE0343F48073536023692A78DA60D5
S214401990002001465CE06B889BB243F480736B800A
S2144019A02B8813F4806F22D022691B0A43F07803F9
S2144019B01B0403F4FE0343F48853536023692A78D8
S2144019C0DA6023696A68012A19D001221A60002168
S2144019D06B68994222D223691A6A12F0020F10D11C
S2144019E01B6A13F4807FF6D06FF0010038BD226981
S2144019F01B0403F4FE0343F480535360E1E70322E1
S214401A00E4E7AA681B6B53546B68023B994201D0CB
S214401A100131DDE7236902221A60F9E723691B6A70
S214401A2013F0010FFAD063889BB223F480739BB205
S214401A306380002038BD22691B0403F4FE03536014
S214401A40A6E76FF0010078B9AB685B5C5363013181
S214401A506B68994208D22269136A13F4807FF0D1EA
S214401A6013F0040FF7D0EEE76B8813F4004F06D15F
S214401A7063889BB223F480739BB2638038BD23692E
S214401A8002221A6023691B6A13F0010FFAD0EFE7AF
S214401A906FF0050038BD00BF742240007D0D400049
S214401AA010B5044668B103684BB10120332206499D
S214401AB0064B98472368064A5A60002010BD00200F
S214401AC0F4E70020F2E700BF902240007D0D400082
S214401AD0FFAFFF3F10B58AB0324B98470DF1270055
S214401AE0314B98479DF8273013F0010F2FD08021B7
S214401AF02E4A116313F0020F2DD04FF480712B4AFB
S214401B00116313F0040F2BD04FF40071274A116372
S214401B1013F0080F29D04FF48062244B1A6320221A
S214401B20002101A8224B984701A8224B98474FF422
S214401B30FA70214B9847214B98472148214CA047A3
S214401B402148A04700212148214B98471FE080218B
S214401B50164A5163CEE74FF48071144A5163D0E77A
S214401B604FF40071114A5163D2E74FF480620F4B35
S214401B705A63D4E701331F2BFCDD0DF1270101A882
S214401B80144B98472022002101A8094B9847012072
S214401B90114B98470028FAD001A8104B98470023CD
S214401BA0E9E700BFC5014000E11B400000140E40BD
S214401BB0851F4000091E400011084000E51E4000F9
S214401BC09C004020D10A4000D8004020B800402069
S214401BD0B5074000391C4000BD1E4000891D40002E
S214401BE00A4AD36BC3F30033D16BC1F3403103EBE6
S214401BF04103D16BC1F3803103EB8103D26BC2F357
S214401C00C032D20052FA83F30370704700140E407D
S214401C108B5C11444A7803EB02231BB207EE903AE2
S214401C20F8EEE77ADFED036A87EEA67A80ED007A73
S214401C30704700BF0000C84238B503780A7803F002
S214401C400F039A4200D038BD0446012201460D4893
S214401C500D4DA847032221460C48A8470522214699
S214401C600B48A847072221460A48A847092221468A
S214401C700948A847E27A094B1A70227B084B1A702B
S214401C80E1E700BF40014020111C400044014020D5
S214401C90340140203C0140203001402038014020A3
S214401CA03901402030B583B040F020008DF8040064
S214401CB08DF80510054C08256563022201A9044BE2
S214401CC01868044B9847256303B030BD00100E409B
S214401CD04C014020190A40002DE9F04383B0884665
S214401CE0914640F0200002A901F8010D084C082555
S214401CF06563084F01223868074EB0471FFA89F2DD
S214401D0041463868B047256303B0BDE8F08300BF5E
S214401D1000100E404C014020190A400070B582B0B9
S214401D2002A901F8020D094C08256563084E0122F8
S214401D303068084B984701220DF107013068064B82
S214401D40984725639DF8070002B070BD00100E400E
S214401D504C014020190A4000490A400030B583B083
S214401D6002A901F8010D054C082565630122044BC4
S214401D701868044B9847256303B030BD00100E40EA
S214401D804C014020190A400070B582B002A9612378
S214401D9001F8013D134C08256563134E0122306857
S214401DA0124B98472022124B19683068114B9847BF
S214401DB025630B20104B9847E2208DF807000F4B09
S214401DC0984707200E4B984740F04001C9B207207D
S214401DD00C4B9847002300E001331F2BFCDD02B07C
S214401DE070BD00BF00100E404C014020190A400054
S214401DF048014020490A4000110840005D1D40004F
S214401E001D1D4000A51C400030B583B005461F4C44
S214401E101F4920461F4B984720461F4B98471F4B4D
S214401E201D6004251E4B5D63002108461D4CA047DF
S214401E3007201D4B984740F04001C9B20720A047F5
S214401E4000210120A04700210220A0470321084688
S214401E50A04700212846A04778210520A047062114
S214401E600846A047114B93E8030000908DF80410F5
S214401E700522694610200E4B984702210020A047B5
S214401E800C4921200C4B984703B030BDC000402081
S214401E904C0140205D0C40007D0B40004801402036
S214401EA000140E40A51C40001D1D4000A822400006
S214401EB0D91C4000891D4000A908400008B50720ED
S214401EC0064B984700F04200422801D0002008BD4B
S214401ED040210720024B9847012008BD1D1D4000A9
S214401EE0A51C400010B582B000200F4B984740F02C
S214401EF00101C9B200200D4CA04702210846A04768
S214401F000B4B93E8030000908DF8041005226946B9
S214401F100B20084B984720211220A0470422064B4E
S214401F201A6302B010BD00BF1D1D4000A51C400036
S214401F30A8224000D91C400000140E4070B50D4E3B
S214401F400D4CA41BA4100025A54209D10B4E0C4CE9
S214401F5000F0AEF9A41BA4100025A54205D170BD23
S214401F6056F8253098470135EEE756F8253098471D
S214401F700135F2E7BC224000BC224000BC224000B3
S214401F80C022400002440346934200D1704703F803
S214401F90011BF9E72E2E2F68616C2F696E636C75F6
S214401FA064652F68616C5F7764742E68000000007B
S214401FB02E2E2F68616C2F7372632F68616C5F6181
S214401FC064635F73796E632E630000002E2E2F6865
S214401FD0616C2F7372632F68616C5F6932635F6DEB
S214401FE05F73796E632E63002E2E2F68616C2F739D
S214401FF072632F68616C5F696F2E63002E2E2F68A8
S214402000616C2F7372632F68616C5F70776D2E639F
S214402010000000002E2E2F68616C2F7372632F68AD
S214402020616C5F7370695F6D5F73796E632E63007A
S2144020302E2E2F68616C2F7372632F68616C5F74ED
S214402040696D65722E6300002E2E2F68616C2F75A9
S21440205074696C732F7372632F7574696C735F6CDD
S2144020606973742E63000000000000000031842F66
S21440207000000003FFFFFFFFFFFF0000000000001E
S21440208000000000000000000C01000000000000FE
S21440209000000000000000000000000000020000F9
S2144020A000020000000200000002000000020000E3
S2144020B000020000000200000002000000020000D3
S2144020C00002000000020000000200002E2E2F68D2
S2144020D0706C2F616665632F68706C5F61666563C0
S2144020E02E630000000000000080C0032080C00374
S2144020F02080C003000000000000C00320800000D5
S2144021000100000002000000F2000000F2000000A3
S21440211000000000F0000000020000000A0B100063
S2144021202E2E2F68706C2F70696F2F68706C5F70E2
S214402130696F5F6578742E630000000000000240FF
S2144021401F00000001000100010000000100000027
S214402150FF00000000000000040000000000000037
S214402160000000000000000004000000C421400001
S214402170000000008C00402000C005403C000000ED
S214402180010001000100000001000000FF00000007
S21440219000000000040000000000000000000000F6
S2144021A00000000001000000B421400000000000D4
S2144021B080004020000000000802000000040000EC
S2144021C000020000000000000802000000040000BA
S2144021D000020000010000000802000000040000A9
S2144021E00002000002000000080200000004000098
S2144021F00002000003000000080200000004000087
S214402200000200002E2E2F68706C2F70776D2F689E
S214402210706C5F70776D2E63000000000000000059
S214402220000000800100000002FA9604FFFF000054
S2144022302E2E2F68706C2F7370692F68706C5F73CA
S21440224070692E63000000002E2E2F68706C2F746D
S214402250632F68706C5F74632E63000000800140DB
S214402260200000000000000000000000BABA020093
S214402270F04902002E2E2F68706C2F7477696873B1
S2144022802F68706C5F74776968732E630000000077
S2144022902E2E2F68706C2F7764742F68706C5F7763
S2144022A064742E6300000000EEDDCCBBAA00000084
S2144022B0F8B500BFF8BC08BC9E4670477D0140009C
S2144022C0F8B500BFF8BC08BC9E46704759014000B0
S2144022D000C000401700000001C0000000000000E1
S2144022E0000000009F240000000000003E4900005F
S2084022F000000000A5
S804400000BB
