S018000031372E345F4350505F56657273696F6E2E73726563BB
S21440000018104020D5014000D1014000D1014000E9
S214400010D1014000D1014000D10140000000000065
S214400020000000000000000000000000D101400079
S214400030D101400000000000D1014000D101400045
S214400040D1014000D1014000D1014000D101400023
S214400050D1014000D1014000D1014000D101400013
S214400060D101400000000000C10F4000B50F400025
S21440007000000000D1014000D1014000D101400005
S214400080D101400000000000D1014000D1014000F5
S214400090D1014000D1014000D1014000A1154000EF
S2144000A0D1014000D1014000B5154000D1014000CB
S2144000B0D1014000D1014000D1014000251140004F
S2144000C0D1014000D1014000D101400000000000B5
S2144000D000000000000000000000000000000000DB
S2144000E0D1014000D101400000000000D101400095
S2144000F0D1014000D1014000D1014000D101400073
S214400100D1014000D1014000D1014000D101400062
S214400110D101400000000000000000000000000088
S214400120D1014000D1014000D1014000D101400042
S21440013039114000D101400000000000D1014000CC
S214400140D1014000D1014000000000000000000046
S214400150D1014000D101400010B5054C237833B999
S214400160044B13B10448AFF300800123237010BD45
S2144001708C08402000000000AC2440000C4B43B1EB
S2144001800C480D4910B5AFF300800C48036823B9FE
S21440019010BD0A48036833B97047094B002BF7D0A7
S2144001A0BDE810401847064B002BF5D0184700BF57
S2144001B000000000AC24400090084020AC244000E2
S2144001C00000000008B5014B984708BDE90540000F
S2144001D0FEE7000008B5104B104A9A4209D00E4B75
S2144001E00E4A03E011681960043304320C498B420E
S2144001F0F8D30C4B02E000221A6004330A4A9342BA
S214400200F9D30A4A0A4B23F07F039360094B984779
S214400210094B9847FEE700BF00004020AC24400052
S2144002208C0840208C084020180A402000ED00E052
S21440023000004000FD174000E517400008B5084B99
S2144002409B6913F4000F03D14FF40002044B1A616C
S214400250044B9847024604490448054B984708BD56
S21440026000060E409D15400000C00040D4094020C6
S214400270750B400008B5084B9B6913F0806F03D19F
S2144002804FF08062044B1A61044B9847024604497B
S2144002900448054B984708BD00060E409D15400093
S2144002A00000014064094020750B40004FF080423A
S2144002B0054B1A600422A3F580631A604FF480222F
S2144002C0A3F500731A60704700140E40044B9B69F8
S2144002D013F0005F03D14FF00052014B1A61704794
S2144002E000060E4008B5054B9847054B9847002238
S2144002F004490548054B984708BD00BFCD0240005D
S214400300AD02400000C003405C094020C5074000E5
S214400310034B02225A611A66C3F890201A6070474F
S21440032000100E40124B4FF400425A611A66C3F852
S21440033090201A604FF480025A611A66C3F89020E3
S2144003401A604FF400025A611A66C3F890201A6089
S2144003504FF080725A611A66C3F890201A604FF0C8
S21440036000725A611A66C3F890201A60704700BF40
S214400370000E0E40174B1A6F42F400621A675A6F0F
S21440038022F400625A674FF400625A60A3F5C063D5
S2144003901A6F22F004021A675A6F22F004025A6754
S2144003A004225A601A6F42F400521A675A6F22F4B7
S2144003B000525A674FF400525A601A6F22F40032C5
S2144003C01A675A6F42F400325A674FF400325A6046
S2144003D0704700BF00140E40044B9B69002B03DBA4
S2144003E04FF00042014B1A61704700BF00060E40B6
S2144003F008B5064B9847064B9847064B9847024623
S21440040005490648064B984708BD00BFD90340003B
S214400410750340008512400000000240400940201D
S21440042051094000064B1A6F22F480521A675A6FE1
S21440043042F480525A674FF480525A60704700BF69
S214400440000E0E40054BD3F8083113F0805F04D100
S2144004504FF08052014BC3F80021704700060E4013
S21440046008B5064B9847064B9847064B98470246B2
S21440047005490648064B984708BD00BF450440005E
S214400480250440008512400000C0054098094020E1
S21440049051094000114B1A6F42F480121A675A6F86
S2144004A022F480125A674FF480125A601A6F42F450
S2144004B000121A675A6F22F400125A674FF400125D
S2144004C05A601A6F42F480021A675A6F22F480020A
S2144004D05A674FF480025A60704700BF00140E40BF
S2144004E0044B9B6913F4001F03D14FF40012014BD9
S2144004F01A61704700060E4010B5084B9847084BE7
S2144005009847084C01462046074B984707492046DF
S214400510074B9847074B984710BD00BFE104400083
S2144005204914400080094020950940000080004062
S214400530B5094000950440000A4B1A6F22F010029D
S2144005401A675A6F22F010025A6710225A601A6FC2
S21440055022F008021A675A6F22F008025A670822E9
S2144005605A607047000E0E40044B9B6913F4002FF0
S21440057003D14FF40022014B1A61704700060E402B
S21440058008B5044B984704490448054B9847054B23
S214400590984708BD6905400000800140B4094020E6
S2144005A0FD0840003905400008B50248024B984710
S2144005B008BD00BF10E000E01108400008B5482222
S2144005C004490120044B98470448054B0360054BFB
S2144005D0984708BD84214000B10B40006009402088
S2144005E050180E40B117400010B5674B9847674B00
S2144005F09B6913F4806F03D14FF48062634B1A619A
S214400600624B9B6913F4006F03D14FF400625F4B5B
S2144006101A615E4B9B6913F4803F03D14FF48032DE
S2144006205A4B1A615A4B4FF0006159611966C3F82C
S214400630901019604FF080525A611A66C3F89020A5
S2144006401A604FF0804058611866C3F890001860F2
S2144006504FF0004058611866C3F89000186003F5E4
S2144006600073082018631861186003F5806304243B
S2144006701C631C611C601863186118601020586366
S214400680186118602020586318611860402058632D
S2144006901861186080205863186118604FF48070A5
S2144006A05863186118604FF40070586318611860FA
S2144006B04FF480605863186118604FF4805058615A
S2144006C01866C3F8900018604FF4005058611866DA
S2144006D0C3F8900018604FF4804058611866C3F81D
S2144006E0900018604FF4004058611866C3F89000B8
S2144006F018604FF4803058611866C3F89000186050
S2144007004FF4003058611866C3F8900018604FF4F4
S214400710802058611866C3F8900018604FF4002097
S21440072058611866C3F8900018604FF080705863A0
S214400730186118604FF000705863186118604FF0E9
S21440074080605863186118605963196119605A636C
S2144007501A611A600F4B98470F4B98470F4B9847B4
S2144007600F4B98470F4B98470F4B98470F4B984760
S2144007700F4B98470F4B98470F4B98470F4B984750
S2144007800F4B984710BD00BF450D400000060E4079
S214400790000E0E40E50240001103400025034000D5
S2144007A0F103400061044000F90440003D0240006F
S2144007B07502400081054000A9054000BD05400087
S2144007C06908400038B504460D46002818BF002981
S2144007D014BF0120002039220349044B984729467C
S2144007E02046034B984738BDA0214000B10B40003F
S2144007F00D0D4000EFF31083036072B6BFF35F8FBA
S2144008007047BFF35F8F036883F31088704700001C
S21440081008B5024B1860024B984708BDA808402010
S2144008206114400038B50625002407E00D4A52F80A
S2144008303330B3B1984738BD013AD5B2AC4210D840
S2144008402B195B10DAB2052A0BD81346054901EB83
S214400850C20149688142E9D08142EDD20132D4B228
S214400860ECE738BDAC08402008B500230AE0084A4B
S21440087002EBC3014FF0FF304860002142F83310CE
S21440088001339BB2052BF2D90248034B984708BD6B
S214400890AC08402025084000CD0F400010B584B07D
S2144008A00389ADF80430144602924FF40043ADF885
S2144008B00630039101A91438034B984710B92046D7
S2144008C004B010BD0446FAE74916400010B584B09F
S2144008D00389ADF804301446029248F20103ADF89D
S2144008E00630039101A91438034B984710B92046A7
S2144008F004B010BD0446FAE74916400038B50D4628
S21440090004465E220849003018BF0120074B98472E
S21440091029462046064B9847034618B9054AA26121
S214400920054A6261184638BDBC214000B10B400004
S21440093001164000CD0840009D08400008B54369B8
S21440094003B1984708BD08B5836903B1984708BD09
S21440095038B504460D46002818BF002914BF0120AC
S214400960002033220649074B984729462046064B27
S2144009709847064B2360064B6360002038BD00BF97
S214400980D8214000B10B40004D1140003D094000C9
S2144009904709400038B50D46044639220349003021
S2144009A018BF0120024B9847256038BDF021400013
S2144009B0B10B400038B504460D46002818BF002944
S2144009C014BF01200020402209490A4B9847204680
S2144009D040F8045F2946084B9847002807DB4FF449
S2144009E00043A382054B2361054BE360002038BDDE
S2144009F0F0214000B10B4000A1124000810A4000A7
S214400A00450A400030B585B005460C46002818BF5C
S214400A10002914BF01200020B3220749074B9847FE
S214400A202368019363680293A368039301A9281D72
S214400A30034B984705B030BDF0214000B10B400055
S214400A404913400070B584B00E4615460446A322AE
S214400A500849003018BF0120074B984700230293EF
S214400A600196039501A9A4F10C00044B984704B0E5
S214400A7070BD00BFF0214000B10B4000050A4000A9
S214400A8070B584B00E4615460446872208490030A5
S214400A9018BF0120074B9847029600230193039501
S214400AA001A9A4F10C00044B984704B070BD00BFE8
S214400AB0F0214000B10B4000050A4000F8B5076839
S214400AC017B13C4600260BE00E4B9847F8BDA5688C
S214400AD02B449B1A01338D68AB4209D226462468C4
S214400AE034B163689342F2D8A5689B1A2B44F2E768
S214400AF0BC4203D03046044B9847F8BD014B98475C
S214400B00F8BD00BFCD0B4000F90B4000F8B5446976
S214400B10066901360661037E13F0010F05D1037E98
S214400B2013F0020F01D1054609E0037E43F00203AD
S214400B300376F8BD6F69E368204698473C469CB10B
S214400B406368F31AA26893420ED305F11407384639
S214400B50064B9847237C012BECD1666032462146F3
S214400B603846034B9847E5E7F8BD00BF010C400008
S214400B70BD0A400038B504460D46002818BF002977
S214400B8014BF012000203B220549064B98472946C2
S214400B902046054B984700202061044B236038BD13
S214400BA00C224000B10B4000E11440000D0B400009
S214400BB000B900BE704703681BB18B4203D01B6868
S214400BC0FAE70020704701207047000038B5044619
S214400BD00D46064B984780F0010039220449C0B2C2
S214400BE0044B984723682B60256038BDB70B400000
S214400BF024224000B10B400003680B600160704740
S214400C0003681BB11A680260184670470020704798
S214400C100346064A126822B1044A10680344136029
S214400C2070470349014A1160F6E700BFDC084020E0
S214400C301810402064231C4A03FB01235A68426074
S214400C409A688260DA68C2601A6902615A69026507
S214400C509A694265DA6902661A6AC0F894205A6A46
S214400C60C0F8A0209A6AC0F8D020DA6AC0F8D4202B
S214400C701B6BC0F8D83000220B2A13D810B442663B
S214400C8001EB810303EB830313440C33064C04EB64
S214400C9083035B68C3660132D2B20B2AEFD90020C9
S214400CA010BC7047002070474422400008B5094BEE
S214400CB098420AD003F52033984208D0A32206492A
S214400CC00020064B9847002008BD002008BD0120A4
S214400CD008BD00BF00C00340A8224000B10B400042
S214400CE008B5084B9847002313B10023184608BDA3
S214400CF0642202FB03F204498A5C9042F6D0013338
S214400D00DBB2F1E7AD0C40004422400038B50C465B
S214400D1005464FF48D720749003018BF0120064B38
S214400D2098472C602046054B984701462046044B82
S214400D30984738BDA8224000B10B4000E10C400067
S214400D40350C400000B583B001A80E4B98470E4ABC
S214400D50D2F8883043F47003C2F88830BFF34F8F20
S214400D60BFF36F8F01A8094B9847094A136823F4CD
S214400D70706343F4C0631360064B984703B05DF856
S214400D8004FB00BFF507400000ED00E0030840000C
S214400D90000C0E40A910400030B400258D4210D201
S214400DA0012200231F2B0AD850F82540224202D1A8
S214400DB052000133F6E703EB451030BC704701356F
S214400DC0ECE74FF0FF30F8E710B586B0002301930C
S214400DD00293039304930593214B1868F822214904
S214400DE0003018BF0120204B9847204BDA6C9B6C94
S214400DF0134001931E49CA6C896C0A400292134301
S214400E0025E0174B1B6820469847631104F01F04E3
S214400E10012202FA04F406AA02EB830353F8142CC8
S214400E2022EA040243F8142C052101A8114B9847E6
S214400E300446B4F1FF3FE4D10C4AD16C936C0B40AE
S214400E4001930B49C86C8A6C0240029213432BB143
S214400E50052101A8074B98470446EAE706B010BDAF
S214400E60E0084020FC224000B10B4000000E0E403F
S214400E7000100E40990D400010B50446D222054998
S214400E80003018BF0120044B984704482044C0F364
S214400E90472010BDFC224000B10B400000F2F1BFDD
S214400EA010B50446E0220D49003018BF01200C4B17
S214400EB0984720460B4B98470023012B0BD8C3EB93
S214400EC0C3018A0008498A5C904202D00133DBB2F3
S214400ED0F3E758B210BD4FF0FF3010BDFC22400083
S214400EE0B10B4000790E4000C022400038B50446A1
S214400EF040F259122949003018BF0120284B984724
S214400F002046284B9847002843DB274DC200111A3D
S214400F108B002B449968C4F8B010D968C4F8C01048
S214400F201969C4F8C4109B69C4F8D030101A8300FD
S214400F302B445B69C4F8D43020461C4B9847284461
S214400F4090F93830002B0CDB5A0903F01F000121C2
S214400F5081402032164840F82210BFF34F8FBFF32F
S214400F606F8F002B08DB5A0903F01F0001218140D8
S214400F7060320F4840F82210002B0DDB590903F071
S214400F801F03012202FA03F3094A42F821300020E7
S214400F9038BD6FF0100038BD002038BDFC22400040
S214400FA0B10B4000A10E4000C0224000790E400028
S214400FB000E100E008B5014B984708BDC90D400068
S214400FC008B5014B984708BDC90D400038B50546E1
S214400FD00448054CA0470548A047054B1D60002027
S214400FE038BD00BF000E0E40ED0E400000100E4013
S214400FF0E0084020144A116A144B0B431362124B0C
S2144010009B6E13F4003FFAD00F490A6A22F0700232
S2144010100F4B13430B620C4B9B6E13F4003FFAD0FE
S214401020094B1A6A22F0807242F45C121A62996A7C
S214401030084A0A409A62084A9A62034B9B6E13F02B
S214401040020FFAD0704700BF00060E400800370077
S21440105020003700FFFF00F8013F1820114A136BAD
S21440106023F0700313630F4B9B6E13F0080FFAD0F8
S2144010700C4A136B23F4407343F480731363094B99
S2144010809B6E13F0080FFAD0064A136B23F0030347
S21440109043F002031363034B9B6E13F0080FFAD022
S2144010A0704700BF00060E4008B5024B9847024BFB
S2144010B0984708BDF50F40005D1040000023012B07
S2144010C00FD8C3EB03118A0007498A58824202D0E0
S2144010D00133DBB2F3E7C3EB03139A000846104430
S2144010E070470020704700BF18234000064B9842C8
S2144010F003D0064B984203D07047054B1960F8E77B
S214401100034B5960F8E700BF0000024000C00540AE
S214401110E408402008B50369DB6913B1036803B1EE
S214401120984708BD08B5024B1868024B984708BD5B
S214401130E40840201511400008B5024B5868024BA1
S214401140984708BDE408402015114000F8B506460B
S2144011500C46081C18BF01204FF4BF724449454B4B
S21440116098472046444B9847054634618368236039
S214401170C368E3670369C4F880304369E3658369FD
S214401180A366C369C4F8C030036AE366436AC4F81A
S2144011902C34836AC4F84C34002319E02F6B1801B2
S2144011A007EB000E3A5CDEF8041010325201A150F4
S2144011B03A5CDEF80C10103204EB421251603A5C96
S2144011C0DEF8081004EB4212C2F80C1201335BB290
S2144011D0EA6A9342E2D3002314E0A96B03EB430090
S2144011E0820001EB020E885CDEF8047004EB00100F
S2144011F0C0F838718A5CDEF8081013321201A1502C
S21440120001335BB26A6B9342E7D3314620461B4BB1
S214401210984795F90430002B0DDB5A0903F01F035D
S214401220012101FA03F32032154941F82230BFF379
S2144012304F8FBFF36F8F95F90430002B09DB5A09A7
S21440124003F01F03012101FA03F360320C4941F811
S214401250223095F90430002B08DB590903F01F03B0
S214401260012202FA03F3064A42F821300020F8BD74
S214401270E0234000B10B4000BD104000ED104000A0
S21440128000E100E000207047044B0344C3F30743EB
S214401290052B01D000207047012070470080FFBF1B
S2144012A070B506460C460846204B984700233BB38D
S2144012B0002540F22F121E49002E18BF002C14BFE6
S2144012C0012000201B4B984755B3236913F4803FF9
S2144012D029D18023236034606A68174B134023600B
S2144012E0AB68164A1A40164B13436360EB68236399
S2144012F02B8AF380EB6803F0F0033371002070BD57
S21440130003EB83018A000F498A5C904202D0013386
S214401310DBB2CCE703EB8305AB000D461D44C8E7C4
S2144013206FF00C0070BD6FF0100070BD8912400069
S2144013300C244000B10B40007CFFFFFE6FFFF1FF26
S21440134010000E00F82340002DE9F04186B0074615
S2144013500D4604680B6801934B6802930023039381
S214401360049303798DF81430261C18BF01264FF4D9
S2144013700B72334900280CBF002006F00100314BA9
S2144013809847236913F4803F22D16FF0130053E04F
S214401390002335E0507841EA0021023201920133C1
S2144013A00393E160D4F8108040F21D222449304671
S2144013B0244B984718F0080F38D06FF012000028DA
S2144013C036DB0398AB68984202D3049A93422FD9EF
S2144013D0236913F0010FDBD0A3689BB2029A5AB17F
S2144013E0511C029113709DF81420012A04D90A4614
S2144013F0013102911B0A1370049B013304930123AD
S214401400002BCFD1039B049A9A42CBD3F98822690A
S21440141012F0020FC6D0019A002AC0D0511C01918A
S21440142011789DF814000128B4D8B8E70020C6E724
S214401430236913F4007FFBD006B0BDE8F08100BFFF
S2144014400C244000B10B400000207047034B6FF067
S2144014507F425A6005221A60704700BF10E000E0E5
S21440146008B5014B984708BD4D1440000023012B9A
S21440147014D810B403EBC3018A0009498A58824243
S21440148006D00133DBB2012BF4D9002010BC7047E4
S21440149003EBC304A30008461844F7E70020704750
S2144014A000004020064B984203D0064B984203D09B
S2144014B07047054B1960F8E7034B5960F8E700BFE3
S2144014C000C00040000001400409402008B5C36841
S2144014D01B6A13F0100F00D108BD03689847FBE75E
S2144014E0F8B507460C460846274B98470546866893
S2144014F0FC60962225490120254B984716F4004F5C
S21440150001D046F4142666606B696361AB69A361DB
S214401510EB682363EB69E361102363622B69C4F8CD
S214401520D830394620461B4B984795F90430002B57
S2144015300DDB5A0903F01F03012101FA03F32032A1
S214401540154941F82230BFF34F8FBFF36F8F95F99F
S2144015500430002B09DB5A0903F01F03012101FA6E
S21440156003F360320C4941F8223095F90430002BE1
S21440157008DB590903F01F03012202FA03F3064A67
S21440158042F821300020F8BD6D144000242440006D
S214401590B10B4000A514400000E100E00020704779
S2144015A008B5024B1868024B984708BD040940200E
S2144015B0CD14400008B5024B5868024B984708BD0A
S2144015C004094020CD14400000233BB10020704762
S2144015D003EB4304E300084618440CE010B403EB66
S2144015E04301CA0005498A588242F1D00133DBB232
S2144015F0002BF4D0002010BC704700BF38244000B9
S21440160038B504460D46002818BF002914BF0120EF
S2144016100020782209490A4B984725612846094BFD
S214401620984743682B60236982689A632369C26837
S2144016305A64236902691A61002038BD502440006C
S214401640B10B4000C915400038B504460D46002889
S21440165018BF002914BF01200020BA225249534B1C
S2144016609847638813F4807F40F09A806B8813F025
S214401670010F18D16B889BB243F480736B802B8824
S21440168013F4806F5FD022691B0A43F078031B0473
S21440169003F4FE0343F48073536023692A78DA60C8
S2144016A0002001465CE06B889BB243F480736B80FD
S2144016B02B8813F4806F22D022691B0A43F07803EC
S2144016C01B0403F4FE0343F48853536023692A78CB
S2144016D0DA6023696A68012A19D001221A6000215B
S2144016E06B68994222D223691A6A12F0020F10D10F
S2144016F01B6A13F4807FF6D06FF0010038BD226974
S2144017001B0403F4FE0343F480535360E1E70322D3
S214401710E4E7AA681B6B53546B68023B994201D0BE
S2144017200131DDE7236902221A60F9E723691B6A63
S21440173013F0010FFAD063889BB223F480739BB2F8
S2144017406380002038BD22691B0403F4FE03536007
S214401750A6E76FF0010078B9AB685B5C5363013174
S2144017606B68994208D22269136A13F4807FF0D1DD
S21440177013F0040FF7D0EEE76B8813F4004F06D152
S21440178063889BB223F480739BB2638038BD236921
S21440179002221A6023691B6A13F0010FFAD0EFE7A2
S2144017A06FF0050038BD00BF50244000B10B40002C
S2144017B010B5044668B103684BB101203322064990
S2144017C0064B98472368064A5A60002010BD002002
S2144017D0F4E70020F2E700BF6C244000B10B400065
S2144017E0FFAFFF3F08B5034B98478022024B5A6332
S2144017F0002008BDC501400000140E4070B50F4ED5
S2144018000F4D761BB61018BF002405D0013455F88E
S214401810043B9847A642F9D10A4E0B4D761B00F082
S21440182033FEB61018BF002406D0013455F8043BEA
S2144018309847A642F9D170BD70BD00BF94244000C1
S214401840942440009C24400094244000024B0146CF
S214401850186800F003B800BF480040202DE9F04F5C
S21440186001F10B06162E83B0054640F29E8036F0F8
S214401870070600F1BD80B14200F2BA8000F09EFA41
S214401880B6F5FC7FC0F09382730A00F0B880042B54
S21440189000F27981B30903F1390003F1380EC30031
S2144018A0BF4F3B44A3F108015C68A14206D10CE05F
S2144018B0002A80F2AA80E468A14206D0636823F03A
S2144018C003039A1B0F2AF3DD70463C69DFF8E4E217
S2144018D0744500F0AB81636823F003039A1B0F2A1C
S2144018E000F39081002AC7F814E0C7F810E080F2B1
S2144018F09D80B3F5007F80F06181DB0803F1010C29
S21440190099107A6857F83C80C4F8088001238B40C9
S21440191007EBCC0113430839E1607B6047F83C4055
S214401920C8F80C408210012494409C4200F28B8000
S2144019301C4206D120F0030064001C4200F1040063
S214401940FAD007EBC009CC468046DCF80C309C4504
S21440195007D16DE1002A80F27B81DB689C4500F070
S2144019606781596821F003018A1B0F2AF2DDD3F8FC
S2144019700CC0D3F8088000939C19284646F0010610
S21440198042F001055E60C8F80CC0CCF808807C6167
S2144019903C61C4F80CE0C4F808E065605A5000F0BA
S2144019A013FA009B03F108041EE0102920D800F02B
S2144019B005FA102618230220794F3B44A3F108026B
S2144019C05C68944200F03D816368E168A66823F055
S2144019D00303234428465A68F16042F001028E60B1
S2144019E05A6000F0F1F90834204603B0BDE8F08FA5
S2144019F000240C2320462B6003B0BDE8F08F402027
S214401A004FF400734FF03F0E4AE72344E1685A68AC
S214401A10A66842F00102F16028468E605A6000F0E7
S214401A20D3F90834204603B0BDE8F08F2344284657
S214401A305A6842F001025A6000F0C6F9083420465F
S214401A4003B0BDE8F08FBC68636823F00308B04578
S214401A5004D3A8EB06030F2B00F38580DFF85891DC
S214401A60504BD9F800201B680132334404EB080A77
S214401A7000F0558103F580530F3323F47F6B2BF032
S214401A800F0B5946284600F0A5F9411C024600F0C7
S214401A90FC80824500F2F780434B19685944196030
S214401AA000F04D81D9F8000001301BBFA2EB0A0AB6
S214401AB05144C9F80020196012F0070100F0158162
S214401AC0C1F10800C1F580510244083102EB0B0910
S214401AD0C9F30B09A1EB0909494628460193009230
S214401AE000F078F9431C9DE80C0000F04381801A12
S214401AF0484440F001001968BA604944BC4250600E
S214401B00196017D0B8F10F0F40F2FB806068A8F15B
S214401B100C0222F0070204EB020E00F001004FF028
S214401B20050C10430F2A6060CEF804C0CEF808C0FB
S214401B3000F217811D4BBC681A68914288BF196035
S214401B401B4B1A689142626888BF196022F00302F4
S214401B509642A2EB060301D80F2B04DC284600F081
S214401B6033F9002440E7A21943F0010346F001068A
S214401B7066602846BA60536000F026F9083420466E
S214401B8003B0BDE8F08F142B71D9542B00F2A3801C
S214401B90330B03F16F0003F16E0EC30080E600BF07
S214401BA0780440203C0940200C094020340940205D
S214401BB03809402080044020800840205A0A042AE1
S214401BC05BD9142A00F2AE8002F15C01C9005B3298
S214401BD007EB010C7958ACF1080C8C4500F0888076
S214401BE04A6822F00302934273D289688C45F7D143
S214401BF0DCF80C207B68E260C4F808C09460CCF83F
S214401C000C408FE6A11946F0010C42F00106C4F8DC
S214401C1004C0284679613961C1F80CE0C1F808E093
S214401C204E60E25000F0D0F80834DDE67B6879E696
S214401C3008F1010818F0030F0CF1080C7FF485AE8C
S214401C402DE0DC68A34208BF02303FF43EAEBBE660
S214401C5019441C464A68DB6854F8086F42F0010293
S214401C604A602846F3609E6000F0AEF8BCE603F19A
S214401C705C0003F15B0EC30012E69A0902F13901DB
S214401C80C9003832A4E7BC4254D0BC68626822F02F
S214401C9003025DE759F80839994540F0868010F010
S214401CA0030F00F1FF30F5D17B6823EA04037B6025
S214401CB064009C423FF6C7AE002C3FF4C4AE1C42C4
S214401CC040467FF43EAE64001C4200F10400FAD069
S214401CD037E68C468CE7B3F5AA7F15D8F30B03F1AD
S214401CE0780003F1770EC300DAE54FF48051EDE655
S214401CF07B689210012101FA02F213437B60624630
S214401D0079E70123536029E740F25452934222D8A0
S214401D10B30C03F17D0003F17C0EC300C0E503F174
S214401D20100BAEE6542A29D81A0B02F16F01C900EF
S214401D306E324DE7204B196859441960B2E6CAF333
S214401D400B0000287FF4AEAE08EB0B03BA6843F0F6
S214401D5001035360EEE67F204FF47E734FF07E0E15
S214401D609EE504F108012846009300F0BFF8009B6A
S214401D701968DFE601204FF00009BCE6B2F5AA7FFD
S214401D8005D8DA0B02F17801C900773220E740F235
S214401D9054518A4205D89A0C02F17D01C9007C3222
S214401DA016E74FF47E717E2212E77B6880E7F008E4
S214401DB006F1080300E600BF0C094020014800F089
S214401DC07BB900BF000A4020014800F077B900BF49
S214401DD0000A402038B5074C0023054608462360D5
S214401DE0FEF716FF431C00D038BD2368002BFBD0FF
S214401DF02B6038BD140A4020024B13B1024800F055
S214401E0005B8704700000000191E40000023014638
S214401E101A46184600F054B938B50A4C0A4D641BA9
S214401E20A4100AD004F18043013B05EB8305013C36
S214401E3055F804399847002CF9D1BDE8384000F0F1
S214401E402DBB00BFAC244000A8244000F8B5244F6A
S214401E500C460646FFF7B2FFBB685D68C4F57E6178
S214401E600F3125F00305294421F47F6121F00F014D
S214401E70A1F58054B4F5805F07DB00213046FFF7BC
S214401E80A9FFBB682B44984204D03046FFF79CFF1E
S214401E900020F8BD61423046FFF79CFF01300DD070
S214401EA0104BBA6819682D1B45F001053046091BD2
S214401EB055601960FFF788FF0120F8BD00213046C5
S214401EC0FFF788FFBA68831A0F2BDEDD064C0549FC
S214401ED0246843F00103001B53600860D5E700BF49
S214401EE0780440200C09402080084020002944D037
S214401EF02DE9F0410D468046FFF760FF55F8047C1B
S214401F00694927F00103A5F10804E2188E68506875
S214401F10B24220F003005ED0FE0750600BD455F866
S214401F20087CE41B01F1080EA56875453B446DD05E
S214401F30E768EF60BD6015186D68ED073ED543F065
S214401F4001026260E350B3F5007F17D2DB08581CED
S214401F509A104D6851F83070A7600123934001EB0A
S214401F60C0022B43083AE2604B6041F83040FC60C8
S214401F704046BDE8F041FFF727BF70475A0A042A9B
S214401F8052D89A0902F13907FF0002F13805C819FC
S214401F90CA59083890424FD0516821F003018B420D
S214401FA032D292689042F7D1C368A060E3609C60EA
S214401FB0C4604046BDE8F041FFF706BF95683B4F1A
S214401FC0BD42034440D0D068E86043F001028560DB
S214401FD06260E350B7E7FF07034407D455F8082C80
S214401FE0A41A1344A068E268C2609060304A12683F
S214401FF043F00100934260608C60B9D32D4B40465D
S2144020001968FFF723FFB3E71046CDE71118496874
S214402010C90744D49168D268CA60034443F00100BB
S21440202091606060E350A3E7142A16D802F15C077B
S214402030FF0002F15B05AAE7AA1001234D68934012
S2144020402B434B600346B0E743F001024C610C6102
S214402050E560A5606260E3508AE7542A06D81A0B0A
S21440206002F16F07FF0002F16E0590E7B2F5AA7F16
S21440207006D8DA0B02F17807FF0002F1770586E70B
S21440208040F25450824206D89A0C02F17D07FF0077
S21440209002F17C057BE74FF47E777E2577E743F0B9
S2144020A001016160136063E77804402080044020AB
S2144020B0840840203C094020704700BF704700BF5E
S2144020C02DE9F8432C4D0646286898460F4691461B
S2144020D0FFF7F2FF294B1C68D4F84831002B3ED05E
S2144020E05A681F2A1CDC02F1010E76B103EB82010E
S2144020F00124C1F88890D3F8880194402043022EEA
S214402100C3F88801C1F8088123D00232C3F804E03E
S214402110286843F82270FFF7D1FF0020BDE8F88317
S214402120174B0BB34FF4C870FFF790FB0346D8B17C
S214402130D4F848210260002141600A46C4F84801AC
S2144021404FF0010EC0F88811C0F88C11002EDCD07C
S214402150CCE7D3F88C110C43C3F88C41D5E704F593
S214402160A673C4F84831BBE72868FFF7A7FF4FF0CF
S214402170FF30BDE8F88300BF880840208424400034
S2144021804D1840002E2E2F68616C2F696E636C755B
S21440219064652F68616C5F7764742E680000000089
S2144021A02E2E2F68616C2F7372632F68616C5F618F
S2144021B064635F73796E632E630000002E2E2F6873
S2144021C0616C2F7372632F68616C5F6932635F6DF9
S2144021D05F73796E632E63002E2E2F68616C2F73AB
S2144021E072632F68616C5F70776D2E63000000002D
S2144021F02E2E2F68616C2F7372632F68616C5F732D
S21440220070695F6D5F73796E632E63002E2E2F6844
S214402210616C2F7372632F68616C5F74696D657251
S2144022202E6300002E2E2F68616C2F7574696C73B8
S2144022302F7372632F7574696C735F6C6973742E39
S21440224063000000000000000031842F00000003FF
S214402250FFFFFFFFFFFF000000000000000000003F
S214402260000000000C01000000000000000000001C
S2144022700000000000000000000200000002000015
S2144022800002000000020000000200000002000001
S21440229000020000000200000002000000020000F1
S2144022A000020000000200002E2E2F68706C2F6186
S2144022B06665632F68706C5F616665632E630000B9
S2144022C0000000000080C0032080C0032080C003C0
S2144022D0000000000000C003208000000100000055
S2144022E002000000F2000000F200000000000000C3
S2144022F0F0000000020000000A0B10002E2E2F688F
S214402300706C2F70696F2F68706C5F70696F5F6557
S21440231078742E6300000000000002401F0000009A
S214402320010001000100000001000000FF00000065
S2144023300000000004000000000000000000000054
S2144023400000000004000000A02340000000000041
S214402350F808402000C005403C0000000100010095
S2144023600100000001000000FF0000000000000027
S2144023700400000000000000000000000000000014
S214402380010000009023400000000000EC084020C0
S21440239000000000080200000004000000020000E8
S2144023A000000000080200000004000000020000D8
S2144023B001000000080200000004000000020000C7
S2144023C002000000080200000004000000020000B6
S2144023D003000000080200000004000000020000A5
S2144023E02E2E2F68706C2F70776D2F68706C5F7014
S2144023F0776D2E63000000000000000000000080A3
S2144024000100000002FA9604FFFF00002E2E2F68FF
S214402410706C2F7370692F68706C5F7370692E6371
S214402420000000002E2E2F68706C2F74632F68708B
S2144024306C5F74632E630000008001402000000043
S2144024400000000000000000BABA0200F049020096
S2144024502E2E2F68706C2F74776968732F68706C97
S2144024605F74776968732E63000000002E2E2F6815
S214402470706C2F7764742F68706C5F7764742E630B
S2144024800000000050004020F8B500BFF8BC08BC73
S2144024909E467047F91D40007D014000F8B500BFDC
S2104024A0F8BC08BC9E467047590140003E
S2144024AC00C000401700000001C000000000000003
S2144024BC000000009F240000000000003E49000081
S2144024CC00000000000001401A00000001C000009F
S2144024DC00000000000000009F24000000000000E8
S2144024EC3E49000000000000500040200000000064
S2144024FC000000003C034020A40340200C04402075
S21440250C000000000000000000000000000000007A
S21440251C000000000000000000000000000000006A
S21440252C000000000000000000000000000000005A
S21440253C000000000000000000000000000000004A
S21440254C000000000000000000000000000000003A
S21440255C000000000000000000000000000000002A
S21440256C000000000000000000000000000000001A
S21440257C000000000000000000000000000000000A
S21440258C00000000000000000000000000000000FA
S21440259C00000000000000000100000000000000E9
S2144025AC0E33CDAB34126DE6ECDE05000B000000AE
S2144025BC00000000000000000000000000000000CA
S2144025CC00000000000000000000000000000000BA
S2144025DC00000000000000000000000000000000AA
S2144025EC000000000000000000000000000000009A
S21440292C78044020780440208004402080044020D6
S21440293C8804402088044020900440209004402086
S21440294C9804402098044020A0044020A004402036
S21440295CA8044020A8044020B0044020B0044020E6
S21440296CB8044020B8044020C0044020C004402096
S21440297CC8044020C8044020D0044020D004402046
S21440298CD8044020D8044020E0044020E0044020F6
S21440299CE8044020E8044020F0044020F0044020A6
S2144029ACF8044020F8044020000540200005402054
S2144029BC0805402008054020100540201005402002
S2144029CC18054020180540202005402020054020B2
S2144029DC2805402028054020300540203005402062
S2144029EC3805402038054020400540204005402012
S2144029FC48054020480540205005402050054020C2
S214402A0C5805402058054020600540206005402071
S214402A1C6805402068054020700540207005402021
S214402A2C78054020780540208005402080054020D1
S214402A3C8805402088054020900540209005402081
S214402A4C9805402098054020A0054020A005402031
S214402A5CA8054020A8054020B0054020B0054020E1
S214402A6CB8054020B8054020C0054020C005402091
S214402A7CC8054020C8054020D0054020D005402041
S214402A8CD8054020D8054020E0054020E0054020F1
S214402A9CE8054020E8054020F0054020F0054020A1
S214402AACF8054020F805402000064020000640204F
S214402ABC08064020080640201006402010064020FD
S214402ACC18064020180640202006402020064020AD
S214402ADC280640202806402030064020300640205D
S214402AEC380640203806402040064020400640200D
S214402AFC48064020480640205006402050064020BD
S214402B0C580640205806402060064020600640206C
S214402B1C680640206806402070064020700640201C
S214402B2C78064020780640208006402080064020CC
S214402B3C880640208806402090064020900640207C
S214402B4C9806402098064020A0064020A00640202C
S214402B5CA8064020A8064020B0064020B0064020DC
S214402B6CB8064020B8064020C0064020C00640208C
S214402B7CC8064020C8064020D0064020D00640203C
S214402B8CD8064020D8064020E0064020E0064020EC
S214402B9CE8064020E8064020F0064020F00640209C
S214402BACF8064020F806402000074020000740204A
S214402BBC08074020080740201007402010074020F8
S214402BCC18074020180740202007402020074020A8
S214402BDC2807402028074020300740203007402058
S214402BEC3807402038074020400740204007402008
S214402BFC48074020480740205007402050074020B8
S214402C0C5807402058074020600740206007402067
S214402C1C6807402068074020700740207007402017
S214402C2C78074020780740208007402080074020C7
S214402C3C8807402088074020900740209007402077
S214402C4C9807402098074020A0074020A007402027
S214402C5CA8074020A8074020B0074020B0074020D7
S214402C6CB8074020B8074020C0074020C007402087
S214402C7CC8074020C8074020D0074020D007402037
S214402C8CD8074020D8074020E0074020E0074020E7
S214402C9CE8074020E8074020F0074020F007402097
S214402CACF8074020F8074020000840200008402045
S214402CBC08084020080840201008402010084020F3
S214402CCC18084020180840202008402020084020A3
S214402CDC2808402028084020300840203008402053
S214402CEC3808402038084020400840204008402003
S214402CFC48084020480840205008402050084020B3
S214402D0C5808402058084020600840206008402062
S214402D1C6808402068084020700840207008402012
S210402D2CFFFFFFFF00000200F0094020FF
S804400000BB
