:020000040040BA
:10000000A8064020E5014000E1014000E101400078
:10001000E1014000E1014000E1014000000000007A
:10002000000000000000000000000000E1014000AE
:10003000E101400000000000E1014000E10140005A
:10004000E1014000E1014000E1014000E101400028
:10005000E1014000E1014000E1014000E101400018
:10006000E101400000000000E1014000E10140002A
:10007000E1014000E1014000E1014000E1014000F8
:10008000E1014000E1014000E1014000E1014000E8
:10009000E1014000E1014000E1014000E1014000D8
:1000A000E1014000E1014000E1014000E1014000C8
:1000B000E10140005D084000E1014000990A400074
:1000C000E1014000E1014000E1014000E1014000A8
:1000D000E1014000E1014000E1014000E101400098
:1000E000E1014000E1014000E1014000E101400088
:1000F000E1014000E1014000E1014000E101400078
:10010000E1014000E1014000E1014000E101400067
:10011000E1014000E101400000000000000000009B
:10012000E1014000E1014000E1014000E101400047
:10013000E1014000E1014000E1014000E101400037
:10014000E1014000E1014000E1014000E101400027
:10015000E1014000E1014000E1014000E101400017
:10016000E1014000E101400010B5054C237833B9AE
:10017000044B13B10448AFF300800123237010BD7A
:100180000000402000000000AC0E40000C4B43B1CA
:100190000C480D4910B5AFF300800C48036823B933
:1001A00010BD0A48036833B97047094B002BF7D0DC
:1001B000BDE810401847064B002BF5D0184700BF8C
:1001C00000000000AC0E400004004020AC0E4000D7
:1001D0000000000008B5014B984708BD6D034000C2
:1001E000FEE7000008B5104B104A9A4209D00E4BAA
:1001F0000E4A03E011681960043304320C498B4243
:10020000F8D30C4B02E000221A6004330A4A9342EE
:10021000F9D30A4A0A4B23F07F039360094B9847AE
:10022000094B9847FEE700BF00004020AC0E40009D
:100230000000402000004020A800402000ED00E029
:1002400000004000DD0C4000790C4000F0B585B0A6
:10025000114B9B6913F0005F03D14FF000520E4B1E
:100260001A610E4E0E4D002402940E4B0193012391
:100270000093234632460C4928460C4FB8471023BA
:10028000321D214628460A4CA0474FF08042094BB8
:100290001A6005B0F0BD00BF00060E401C004020F3
:1002A000480040209000402000C003400904400066
:1002B000B104400000140E40184B1A6F42F4006263
:1002C0001A675A6F22F400625A674FF400625A604C
:1002D000A3F5C0631A6F22F004021A675A6F22F066
:1002E00004025A6704225A6003F580631A6F42F4CD
:1002F00000221A675A6F22F400225A674FF4002234
:100300005A601A6F42F400521A675A6F22F4005270
:100310005A674FF400525A60704700BF00140E40F5
:10032000044B9B69002B03DB4FF00042014B1A6129
:10033000704700BF00060E4008B5064B9847064BB5
:100340009847064B9847024605490648064B98478A
:1003500008BD00BF21034000B9024000590C400015
:100360000000024074004020B905400008B5064B6B
:100370009847064A536843F400435360044B984738
:10038000044B984708BD00BF4109400050180E407B
:100390004D0240003903400008B5836903B1984716
:1003A00008BD08B5C36903B1984708BD2DE9F047FA
:1003B000054688469146036A5B5C876A03EB430304
:1003C000DE00BC1904F1040AD1B250460C4B984728
:1003D00028460C4B9847012807D94FEA1921504667
:1003E000074B9847A38A0133A382A38A0133A382D0
:1003F000BB5913B1414628469847BDE8F08700BF76
:1004000085064000250940002DE9F84F16461C4698
:100410009DF828800B9D07468946002818BF0029B3
:100420000BD0131C18BF0123B8F1000F17D0B3B1C4
:100430000DB1012002E0002000E00020DFF868B0EC
:100440003F225946DFF864A0D047601C402259463D
:100450008045CCBF00200120D047002305E00020CC
:10046000ECE7FF22F2540133DBB2A342F9D93E623A
:1004700087F8244087F82580BD6249463846064BF8
:100480009847034628B9054ABA60054A3A60054AC2
:100490007A601846BDE8F88F71084000AD0340004F
:1004A00099034000A3034000240D4000390640009A
:1004B0002DE9F8430E461F4605469046002818BF12
:1004C000002A02D0C3B9002000E00020DFF8949099
:1004D00066224946214CA04795F8240067224946E8
:1004E000B04234BF00200120A047296A8B5DFF2B5A
:1004F0002BD10024234603E00120E7E70133DBB2E0
:1005000095F82420934205D8CA5CFF2AF6D001341E
:10051000E4B2F3E795F825309C4219D8A86A04EBB9
:1005200044034FEAC30948443A46414604300C4B61
:100530009847024678B92B6A9C55AB6A99440023C8
:10054000A9F814301046BDE8F8836FF00C02F9E703
:100550006FF01B02F6E76FF00C02F3E7390640007C
:1005600041064000240D4000EFF31083036072B693
:10057000BFF35F8F7047BFF35F8F036883F310880B
:100580007047000010B5044B1C68044B98470146A7
:100590002046034B984710BD3000402029094000F9
:1005A0003B09400008B5436903B1984708BD08B549
:1005B000836903B1984708BD38B504460D46002845
:1005C00018BF002914BF0120002033220649074B21
:1005D000984729462046064B9847064B2360064B12
:1005E0006360002038BD00BF400D40003906400068
:1005F000AD0A4000A5054000AF05400010B5044617
:100600004A220949003018BF0120084B984720466C
:10061000074B984720B92046064B9847002010BD4D
:100620006FF0100010BD00BF400D400039064000C3
:10063000290C4000E50B400000B900BE70470000E7
:1006400070B5154604460E46002818BF002902D092
:100650007AB9002000E0002028220849084B98477A
:100660006B1E1D4207D163600020A060E060266021
:1006700070BD0120F0E76FF00C0070BD580D400018
:100680003906400038B50D46044651220B4900306A
:1006900018BF01200A4B98472268E36861680B4045
:1006A000D554E368A2689A1A61688A4201D9591A36
:1006B000A1600133E360002038BD00BF580D400049
:1006C000390640004369074A934205D002F52032BB
:1006D000934203D1282070471D2070474FF0FF3010
:1006E000704700BF00C00340034B984200D07047E2
:1006F000024B1960FBE700BF00C0034034004020FC
:1007000064231D4A03FB01235A6842609A68826091
:10071000DA68C2601A6902615A6902659A694265BB
:10072000DA6902661A6AC0F894205A6AC0F8A020F2
:100730009A6AC0F8D020DA6AC0F8D4201B6BC0F8DF
:10074000D83000220B2A14D810B4426601EB810382
:1007500003EB830313440C33074C04EB83035B6804
:10076000C3660132D2B20B2AEFD900205DF8044BE8
:1007700070470020704700BF7C0D400030B583B04B
:1007800005464269116BD36A0B400193019B13F03C
:10079000806F0ED1019B13F0007F0ED1019BC3F33C
:1007A0000B030193019CB4FA84F4C4F12004E4B275
:1007B0001FE0036800219847ECE76B68002128469A
:1007C0009847EBE7013CE4B26B695C66AB686A6929
:1007D000926E92B22146284698470123A340019C7D
:1007E00024EA03040194019CB4FA84F4C4F12004C3
:1007F000E4B2002CE6D103B030BD000008B5094BCF
:1008000098420AD003F52033984208D0A522064921
:100810000020064B9847002008BD002008BD01209D
:1008200008BD00BF00C00340E00D40003906400095
:1008300008B5084B9847002313B10023184608BD9C
:10084000642202FB03F204498A5C9042F6D0013331
:10085000DBB2F1E7FD0740007C0D400008B5024B1C
:100860001868024B984708BD340040207D074000BF
:1008700070B50C46054640F235122349003018BFCA
:100880000120224B98472046214B9847014620469D
:10089000204B9847064608B1304670BD6C6129462A
:1008A00020461D4B984728461C4B984700280DDBD7
:1008B000430900F01F00012202FA00F02033184A19
:1008C00042F82300BFF34F8FBFF36F8F2846134BBF
:1008D0009847002809DB430900F01F00012202FAB3
:1008E00000F060330E4A42F8230028460B4B98472D
:1008F0000028D1DB420900F01F00012303FA00F0B9
:10090000074B43F82200C7E7E00D400039064000DE
:100910003108400001074000E9064000C5064000DC
:1009200000E100E0022070474FF4967303FB00F0F3
:100930004FF47A7303FB00F070470139FDD870471C
:1009400000B583B001A80E4B98470E4AD2F8883004
:1009500043F47003C2F88830BFF34F8FBFF36F8F3B
:1009600001A8094B9847094A136823F4706343F4BC
:10097000A0631360064B984703B05DF804FB00BF0B
:100980006905400000ED00E077054000000C0E40D6
:10099000310A40000E490A6A22F002020D4B13434D
:1009A0000B620B4B9B6E13F0010FFAD0084B196AC8
:1009B000094A0A431A62996A084A0A409A62084A2E
:1009C0009A62034B9B6E13F0020FFAD0704700BF80
:1009D00000060E40013E370000003701FFFF00F81F
:1009E000013F1820114A136B23F0700313630F4B60
:1009F0009B6E13F0080FFAD00C4A136B23F440736C
:100A000043F480731363094B9B6E13F0080FFAD005
:100A1000064A136B23F0030343F002031363034BF3
:100A20009B6E13F0080FFAD0704700BF00060E400F
:100A300008B5024B9847024B984708BD95094000FE
:100A4000E509400000230BB100207047C3EB031100
:100A50008A0006498A58824202D00133DBB2F2E7AB
:100A6000C3EB03139A00084610447047F80D40008A
:100A7000034B984200D07047024B1960FBE700BF60
:100A8000000002403800402008B50369DB6913B15B
:100A9000036803B1984708BD08B5024B1868024BBC
:100AA000984708BD38004020890A4000F8B506463E
:100AB0000C46081C18BF012040F271124449454BF6
:100AC00098472046444B9847054634618368236025
:100AD000C368E3670369C4F880304369E3658369E9
:100AE000A366C369C4F8C030036AE366436AC4F806
:100AF0002C34836AC4F84C34002319E02F6B18019E
:100B000007EB000E3A5CDEF8041010325201A150DF
:100B10003A5CDEF80C10103204EB421251603A5C81
:100B2000DEF8081004EB4212C2F80C1201335BB27B
:100B3000EA6A9342E2D3002314E0A96B03EB43007B
:100B4000820001EB020E885CDEF8047004EB0010FA
:100B5000C0F838718A5CDEF8081013321201A15017
:100B600001335BB26A6B9342E7D3314620461B4B9D
:100B7000984795F90430002B0DDB5A0903F01F0349
:100B8000012101FA03F32032154941F82230BFF365
:100B90004F8FBFF36F8F95F90430002B09DB5A0993
:100BA00003F01F03012101FA03F360320C4941F8FD
:100BB000223095F90430002B08DB590903F01F039C
:100BC000012202FA03F3064A42F821300020F8BD60
:100BD000740E400039064000450A4000710A40008A
:100BE00000E100E038B504464FF4D4720B49003000
:100BF00018BF01200A4B984720690A4B98470023E9
:100C000008E02169056B1A01AD5C0122AA404A6027
:100C100001335BB2C26A9342F3D338BD740E400015
:100C200039064000450A400010B5044640F2D11292
:100C30000749003018BF0120064B98472369DB683D
:100C400013F00F0F01D0012010BD002010BD00BF18
:100C5000740E4000390640000020704710B404694B
:100C600049010C44C4F8083203691944C1F8102240
:100C70005DF8044B7047000008B5134B9847134CC0
:100C80002046134B984741F2883342F210720221FA
:100C90002046104DA84740F6C41342F210720021BE
:100CA0002046A8474FF47A7342F210720121204681
:100CB000A8474FF4487342F2107203212046A84718
:100CC0006420054B9847FBE7D501400074004020A5
:100CD000FD0540005D0C40008505400070B50D4EDF
:100CE0000D4CA41BA4100025A54209D10B4E0C4CA1
:100CF00000F0CCF8A41BA4100025A54205D170BDBE
:100D000056F8253098470135EEE756F825309847D4
:100D10000135F2E7980E4000980E4000980E400012
:100D20009C0E40002E2E2F68616C2F7372632F680B
:100D3000616C5F6164635F6173796E632E63000051
:100D40002E2E2F68616C2F7372632F68616C5F7039
:100D5000776D2E63000000002E2E2F68616C2F75BA
:100D600074696C732F7372632F7574696C735F721F
:100D7000696E676275666665722E6300000000002A
:100D80000031841200000003FFFFFFFFFFFF00009F
:100D90000000000000000000000000000C01000046
:100DA0000000000000000000000000000000000043
:100DB000000200000002000000020000000200002B
:100DC000000200000002000000020000000200001B
:100DD000000200000002000000020000000200000B
:100DE0002E2E2F68706C2F616665632F68706C5FA4
:100DF000616665632E630000000002401F00000072
:100E0000010001000100000001000000FF000000DF
:100E100000000000040000000000000000000000CE
:100E20000000000004000000340E4000000000003C
:100E30003C00402000000000000200000004000010
:100E40000002000001000000000200000004000099
:100E50000002000002000000000200000004000088
:100E60000002000003000000000200000004000077
:100E7000000200002E2E2F68706C2F70776D2F6887
:100E8000706C5F70776D2E6300000000F8B500BFD6
:100E9000F8BC08BC9E4670478D014000F8B500BF05
:0C0EA000F8BC08BC9E4670476901400089
:0400000500400000B7
:00000001FF
