:020000040040BA
:10000000A0464020F9014000F5014000F501400004
:10001000F5014000F5014000F5014000000000003E
:10002000000000000000000000000000F50140009A
:10003000F501400000000000F5014000F50140001E
:10004000F5014000F5014000F5014000F5014000D8
:10005000F5014000F5014000F5014000F5014000C8
:10006000F501400000000000D5144000C914400014
:1000700000000000F5014000F5014000F5014000DE
:10008000F501400000000000F5014000F5014000CE
:10009000F5014000F5014000F5014000351C40002D
:1000A000F5014000F5014000491C4000F501400009
:1000B000F5014000F5014000F501400099164000AF
:1000C000F5014000F5014000F5014000000000008E
:1000D0000000000000000000000000000000000020
:1000E000F5014000F501400000000000F50140006E
:1000F000F5014000F5014000F5014000F501400028
:10010000F5014000F5014000F5014000F501400017
:10011000F5014000000000000000000000000000A9
:10012000F5014000F5014000F5014000F5014000F7
:10013000AD164000F501400000000000F501400050
:10014000F5014000F5014000000000000000000043
:10015000F5014000F501400010B5054C237833B996
:10016000044B13B10448AFF300800123237010BD8A
:100170005000402000000000F03440000C4B43B120
:100180000C480D4910B5AFF300800C48036823B943
:1001900010BD0A48036833B97047094B002BF7D0EC
:1001A000BDE810401847064B002BF5D0184700BF9C
:1001B00000000000F034400054004020F0344000C3
:1001C0000000000038B5064D00212846054CA04728
:1001D00005212846A04707212846A04738BD00BF73
:1001E00048014020D109400008B5014B984708BD9F
:1001F00071064000FEE7000008B5104B104A9A4215
:1002000009D00E4B0E4A03E0116819600433043222
:100210000C498B42F8D30C4B02E000221A600433E5
:100220000A4A9342F9D30A4A0A4B23F07F039360A8
:10023000094B9847094B9847FEE700BF0000402054
:10024000F034400050004020500040209C404020AE
:1002500000ED00E0000040005D314000791E4000EC
:1002600010F0010F18D08022154B1A6310F0020F06
:1002700016D04FF48072124B1A6310F0040F14D092
:100280004FF400720E4B1A6310F0080F12D14FF4A6
:1002900080620B4B5A6370478022094B5A63E5E733
:1002A0004FF48072064B5A63E7E74FF40072044B39
:1002B0005A63E9E74FF48062014B1A63704700BF4D
:1002C00000140E4008B5084B9B6913F4000F03D1CE
:1002D0004FF40002044B1A61044B9847024604494C
:1002E0000448054B984708BD00060E40311C4000ED
:1002F00000C00040C00140207D0F400008B5084B01
:100300009B6913F0806F03D14FF08062044B1A6138
:10031000044B9847024604490448054B984708BDDA
:1003200000060E40311C40000000014050014020FA
:100330007D0F40004FF08042054B1A600422A3F568
:1003400080631A604FF48022A3F500731A6070472F
:1003500000140E40044B9B6913F0005F03D14FF073
:100360000052014B1A61704700060E4008B5054B5C
:100370009847054B9847002204490548054B984784
:1003800008BD00BF550340003503400000C00340D6
:1003900048014020A1094000034B02225A611A661D
:1003A000C3F890201A60704700100E40124B4FF4B3
:1003B00000425A611A66C3F890201A604FF4800216
:1003C0005A611A66C3F890201A604FF400025A610D
:1003D0001A66C3F890201A604FF080725A611A664C
:1003E000C3F890201A604FF000725A611A66C3F881
:1003F00090201A60704700BF000E0E40174B1A6F16
:1004000042F400621A675A6F22F400625A674FF48E
:1004100000625A60A3F5C0631A6F22F004021A67E3
:100420005A6F22F004025A6704225A601A6F42F48B
:1004300000521A675A6F22F400525A674FF4005262
:100440005A601A6F22F400321A675A6F42F400326F
:100450005A674FF400325A60704700BF00140E40D4
:10046000044B9B69002B03DB4FF00042014B1A61E8
:10047000704700BF00060E4008B5064B9847064B74
:100480009847064B9847024605490648064B984749
:1004900008BD00BF61044000FD0340006D1840002E
:1004A000000002402C014020C90C4000064B1A6F8E
:1004B00022F480521A675A6F42F480525A674FF4FE
:1004C00080525A60704700BF000E0E40054BD3F8B3
:1004D000083113F0805F04D14FF08052014BC3F814
:1004E0000021704700060E4008B5064B9847064BA2
:1004F0009847064B9847024605490648064B9847D9
:1005000008BD00BFCD044000AD0440006D184000A0
:1005100000C0054084014020C90C4000114B1A6FF7
:1005200042F480121A675A6F22F480125A674FF40D
:1005300080125A601A6F42F400121A675A6F22F43E
:1005400000125A674FF400125A601A6F42F4800288
:100550001A675A6F22F480025A674FF480025A6079
:10056000704700BF00140E40044B9B6913F4001F3A
:1005700003D14FF40012014B1A61704700060E4080
:1005800010B5084B9847084B9847084C0146204641
:10059000074B984707492046074B9847074B984712
:1005A00010BD00BF690540006D1A40006C0140207D
:1005B000490D400000800040690D40001D054000CD
:1005C0000A4B1A6F22F010021A675A6F22F01002BB
:1005D0005A6710225A601A6F22F008021A675A6F7F
:1005E00022F008025A6708225A607047000E0E4037
:1005F000044B9B6913F4002F03D14FF40022014BED
:100600001A61704700060E4008B5044B984704492C
:100610000448054B9847054B984708BDF105400035
:1006200000800140A0014020150C4000C1054000A1
:1006300008B50248024B984708BD00BF10E000E033
:10064000190A400008B5482204490120044B984784
:100650000448054B0360054B984708BDB431400082
:100660009D1040004C01402050180E40451E400097
:1006700010B5674B9847674B9B6913F4806F03D1A4
:100680004FF48062634B1A61624B9B6913F4006FF5
:1006900003D14FF400625F4B1A615E4B9B6913F408
:1006A000803F03D14FF480325A4B1A615A4B4FF0BE
:1006B000006159611966C3F8901019604FF08052BB
:1006C0005A611A66C3F890201A604FF08040586152
:1006D0001866C3F8900018604FF000405861186623
:1006E000C3F89000186003F50073082018631861C0
:1006F000186003F5806304241C631C611C6018638C
:100700001861186010205863186118602020586321
:100710001861186040205863186118608020586381
:10072000186118604FF480705863186118604FF4B6
:1007300000705863186118604FF480605863186146
:1007400018604FF4805058611866C3F89000186024
:100750004FF4005058611866C3F8900018604FF4C9
:10076000804058611866C3F8900018604FF400404C
:1007700058611866C3F8900018604FF480305861D3
:100780001866C3F8900018604FF40030586118667E
:10079000C3F8900018604FF4802058611866C3F8C1
:1007A000900018604FF4002058611866C3F890005C
:1007B00018604FF080705863186118604FF0007037
:1007C0005863186118604FF08060586318611860B2
:1007D0005963196119605A631A611A600F4B98477F
:1007E0000F4B98470F4B98470F4B98470F4B984725
:1007F0000F4B98470F4B98470F4B98470F4B984715
:100800000F4B98470F4B98470F4B984710BD00BFB1
:100810005912400000060E40000E0E406D034000CD
:1008200099034000AD03400079044000E904400012
:1008300081054000C5024000FD024000090640005D
:100840003106400045064000B10A400038B50C4B67
:10085000DB6B13F0805F09D10A4C00220A4BD4E90C
:1008600000010A4DA847C4E9000138BD054C00222B
:10087000054BD4E90001064DA847C4E9000138BD85
:10088000000E0E40700040200000F03F3129400073
:100890003529400038B50C4BDB6B002B09DB0B4CCA
:1008A00000220B4BD4E902010A4DA847C4E902011A
:1008B00038BD064C0022064BD4E90201064DA8477C
:1008C000C4E9020138BD00BF000E0E407000402098
:1008D0000000F03F312940003529400038B50C4B6D
:1008E000DB6B13F0006F09D10A4C00220A4BD4E9EC
:1008F00004010A4DA847C4E9040138BD054C002293
:10090000054BD4E90401064DA847C4E9040138BDEC
:10091000000E0E40700040200000F03F31294000E2
:100920003529400038B50C4BDB6B13F0804F09D1F3
:100930000A4C00220A4BD4E906010A4DA847C4E933
:10094000060138BD054C0022054BD4E90601064DD1
:10095000A847C4E9060138BD000E0E4070004020D3
:100960000000F03F312940003529400010B507490B
:100970001620074CA04707491720A0470649182012
:10098000A04706491920A04710BD00BFDD08400060
:10099000E50A40004D084000250940009508400048
:1009A00038B504460D46002818BF002914BF0120A1
:1009B000002039220349044B984729462046034B1F
:1009C000984738BDD03140009D104000D9114000FB
:1009D00038B50D4604464E220549003018BF0120A7
:1009E000044B984729462046034B9847002038BDC2
:1009F000D03140009D10400011124000EFF31083F1
:100A0000036072B6BFF35F8F7047BFF35F8F0368F9
:100A100083F310887047000008B5024B1860024B42
:100A2000984708BD90004020851A400010B5044B3F
:100A30001C68044B984701462046034B984710BD5D
:100A4000900040203D124000911A400010B5044B28
:100A50001C68044B984701462046034B984710BD3D
:100A60009000402047124000911A400038B50625FA
:100A7000002407E00D4A52F83330B3B1984738BD2F
:100A8000013AD5B2AC4210D82B195B10DAB2052A64
:100A90000BD81346054901EBC20149688142E9D0F0
:100AA0008142EDD20132D4B2ECE738BD940040204F
:100AB00008B500230AE0084A02EBC3014FF0FF30FB
:100AC0004860002142F8331001339BB2052BF2D964
:100AD0000248034B984708BD940040206D0A40002F
:100AE000E1144000F0B583B005460023052B0ED875
:100AF00018462E4A02EBC3025268AA4202D00133C2
:100B0000DBB2F3E7294B43F83010012700E0002760
:100B100059B1002F3DD10026052E13D8234B53F891
:100B2000363043B10136F6B2F6E7002F38D028460A
:100B30001F4B984732E01D4B43F8361003EBC602BB
:100B400055600127002301E00133DBB2052B98BF7C
:100B5000052E1ED8B646154A02EBC601486802EBC0
:100B6000C30252689042EFD2B2F1FF3FECD00F4C7B
:100B700004EBC30292E803008DE8030004EBC60413
:100B800094E8030082E803009DE8030084E8030082
:100B9000DAE747B101212846054B984703B0F0BD7D
:100BA0006FF00C00FAE76FF00C00F7E794004020BC
:100BB0000915400010B584B00389ADF8043014461F
:100BC00002924FF40043ADF80630039101A91438A6
:100BD000034B984710B9204604B010BD0446FAE70D
:100BE000DD1C400010B584B00389ADF80430144614
:100BF000029248F20103ADF80630039101A91438BE
:100C0000034B984710B9204604B010BD0446FAE7DC
:100C1000DD1C400038B50D4604465E220849003010
:100C200018BF0120074B984729462046064B984796
:100C3000034618B9054AA261054A6261184638BDE3
:100C4000EC3140009D104000951C4000E50B400039
:100C5000B50B400070B5164604460D46002818BF77
:100C6000002914BF0120002034220449044B984776
:100C70002368324629462046984770BD0832400016
:100C80009D10400070B5164604460D46002818BF5A
:100C9000002914BF012000203D220449044B98473D
:100CA0006368324629462046984770BD08324000A6
:100CB0009D10400008B5436903B1984708BD08B5C9
:100CC000836903B1984708BD38B504460D4600282E
:100CD00018BF002914BF0120002033220649074B0A
:100CE000984729462046064B9847064B2360064BFB
:100CF0006360002038BD00BF1C3240009D104000E2
:100D0000C1164000B50C4000BF0C400010B50446B1
:100D10004A220949003018BF0120084B9847204655
:100D2000074B984720B92046064B9847002010BD36
:100D30006FF0100010BD00BF1C3240009D1040003D
:100D40003D184000F917400038B50D4604463922D9
:100D50000349003018BF0120024B9847256038BD79
:100D6000343240009D10400038B504460D4600283E
:100D700018BF002914BF01200020402209490A4B56
:100D80009847204640F8045F2946084B98470028BA
:100D900007DB4FF40043A382054B2361054BE3605F
:100DA000002038BD343240009D10400091184000B2
:100DB0005D0E4000210E400010B504465722054943
:100DC000003018BF0120044B9847201D034B984763
:100DD00010BD00BF343240009D1040003919400062
:100DE00030B585B005460C46002818BF002914BF51
:100DF00001200020B3220749074B9847236801933D
:100E000063680293A368039301A9281D034B9847C5
:100E100005B030BD343240009D1040006D194000D7
:100E200070B584B00E4615460446A322084900302A
:100E300018BF0120074B98470023029301960395A2
:100E400001A9A4F10C00044B984704B070BD00BF89
:100E5000343240009D104000E10D400070B584B078
:100E60000E461546044687220849003018BF012067
:100E7000074B9847029600230193039501A9A4F11B
:100E80000C00044B984704B070BD00BF34324000E2
:100E90009D104000E10D400038B504460D46002885
:100EA00018BF002914BF01200020BD220349044BB4
:100EB00098470C342C60002038BD00BF343240000D
:100EC0009D104000F8B5076817B13C4600260BE0BE
:100ED0000E4B9847F8BDA5682B449B1A01338D68CB
:100EE000AB4209D22646246834B163689342F2D8F3
:100EF000A5689B1A2B44F2E7BC4203D03046044B52
:100F00009847F8BD014B9847F8BD00BFB9104000A5
:100F1000E5104000F8B54469066901360661037EB4
:100F200013F0010F05D1037E13F0020F01D1054626
:100F300009E0037E43F002030376F8BD6F69E368BE
:100F4000204698473C469CB16368F31AA2689342D6
:100F50000ED305F114073846064B9847237C012B26
:100F6000ECD16660324621463846034B9847E5E7A8
:100F7000F8BD00BFED104000C50E400038B5044676
:100F80000D46002818BF002914BF012000203B2275
:100F90000549064B984729462046054B98470020AF
:100FA0002061044B236038BD503240009D1040004A
:100FB000491B4000150F400010B504465322094953
:100FC000003018BF0120084B98472046074B984730
:100FD00020B92046064B9847002010BD6FF0100046
:100FE00010BD00BF503240009D1040000D1C40005D
:100FF000051C400070B582B004460D46002818BF9D
:10100000002914BF012000207A221D491D4B98475A
:10101000237E43F00103237604F11406294630466B
:10102000194B984788B923696B6022692946304675
:10103000164B9847237E03F0FE032376237E13F09E
:10104000020F0ED1002002B070BD237E03F0FE031C
:1010500023767F220A4900200A4B98476FF011003F
:10106000F1E701A80A4B9847237E03F0FD0323769E
:101070002046084B984701A8074B98470020E2E715
:10108000503240009D104000A3104000C50E4000AB
:10109000FD094000191C40000B0A400000B900BEC9
:1010A000704703681BB18B4203D01B68FAE700202E
:1010B000704701207047000038B504460D46064BC6
:1010C000984780F0010039220449C0B2044B984788
:1010D00023682B60256038BDA310400068324000B3
:1010E0009D10400003680B600160704703681BB1EE
:1010F0001A680260184670470020704764231D4A32
:1011000003FB01235A6842609A688260DA68C26011
:101110001A6902615A6902659A694265DA6902666A
:101120001A6AC0F894205A6AC0F8A0209A6AC0F8D7
:10113000D020DA6AC0F8D4201B6BC0F8D830002267
:101140000B2A14D810B4426601EB810303EB83032E
:1011500013440C33074C04EB83035B68C366013212
:10116000D2B20B2AEFD900205DF8044B7047002063
:10117000704700BF8832400008B5094B98420AD03A
:1011800003F52033984208D0A32206490020064BDD
:101190009847002008BD002008BD012008BD00BF01
:1011A00000C00340EC3240009D10400008B5084BE1
:1011B0009847002313B10023184608BD642202FBA0
:1011C00003F204498A5C9042F6D00133DBB2F1E7C6
:1011D000791140008832400038B50C4605464FF47E
:1011E0008D720749003018BF0120064B98472C60CC
:1011F0002046054B984701462046044B984738BD8A
:10120000EC3240009D104000AD114000FD10400048
:101210000268012303FA01F15161704743B2002BC8
:1012200009DB5B0900F01F00012202FA00F04033E5
:10123000014A42F82300704700E100E04FF4967342
:1012400003FB00F070474FF4967303FB00F04FF47C
:101250007A7303FB00F0704700B583B001A80E4B12
:1012600098470E4AD2F8883043F47003C2F88830A9
:10127000BFF34F8FBFF36F8F01A8094B9847094AFF
:10128000136823F4706343F4C0631360064B9847FC
:1012900003B05DF804FB00BFFD09400000ED00E075
:1012A0000B0A4000000C0E401D16400030B4002513
:1012B0008D4210D2012200231F2B0AD850F825405E
:1012C000224202D152000133F6E703EB451030BC55
:1012D00070470135ECE74FF0FF30F8E710B586B006
:1012E000002301930293039304930593214B186801
:1012F000F8222149003018BF0120204B9847204B8D
:10130000DA6C9B6C134001931E49CA6C896C0A40CD
:101310000292134325E0174B1B6820469847631140
:1013200004F01F04012202FA04F406AA02EB83036C
:1013300053F8142C22EA040243F8142C052101A8C6
:10134000114B98470446B4F1FF3FE4D10C4AD16CED
:10135000936C0B4001930B49C86C8A6C024002925B
:1013600013432BB1052101A8074B98470446EAE730
:1013700006B010BDC4004020403340009D10400026
:10138000000E0E4000100E40AD12400010B5044695
:10139000D2220549003018BF0120044B9847044869
:1013A0002044C0F3472010BD403340009D10400052
:1013B00000F2F1BF10B50446E0220D49003018BF1D
:1013C00001200C4B984720460B4B98470023012BDC
:1013D0000BD8C3EBC3018A0008498A5C904202D053
:1013E0000133DBB2F3E758B210BD4FF0FF3010BD50
:1013F000403340009D1040008D13400004334000F6
:1014000038B5044640F259122949003018BF01206E
:10141000284B98472046284B9847002843DB274D08
:10142000C200111A8B002B449968C4F8B010D96817
:10143000C4F8C0101969C4F8C4109B69C4F8D0304E
:10144000101A83002B445B69C4F8D43020461C4B2F
:101450009847284490F93830002B0CDB5A0903F0E8
:101460001F00012181402032164840F82210BFF3AE
:101470004F8FBFF36F8F002B08DB5A0903F01F005B
:101480000121814060320F4840F82210002B0DDB13
:10149000590903F01F03012202FA03F3094A42F833
:1014A0002130002038BD6FF0100038BD002038BD5D
:1014B000403340009D104000B5134000043340000D
:1014C0008D13400000E100E008B5014B984708BDCE
:1014D000DD12400008B5014B984708BDDD12400001
:1014E00038B505460448054CA0470548A047054BBC
:1014F0001D60002038BD00BF000E0E4001144000EA
:1015000000100E40C40040202DE9F04104460F4673
:10151000DFF850804FF4D37241469F288CBF0020E3
:1015200001200E4EB047E5B2C32241469F2D8CBF2D
:1015300000200120B0476D09094B03EB452504F05D
:101540001F0437B9012303FA04F46C640020BDE8DA
:10155000F081012303FA04F42C64F7E79D104000A6
:10156000000E0E4040334000144A116A144B0B43E6
:101570001362124B9B6E13F4003FFAD00F490A6AB4
:1015800022F070020F4B13430B620C4B9B6E13F453
:10159000003FFAD0094B1A6A22F0807242F45C12C2
:1015A0001A62996A084A0A409A62084A9A62034B88
:1015B0009B6E13F0020FFAD0704700BF00060E407A
:1015C0000800370020003700FFFF00F8013F182017
:1015D000114A136B23F0700313630F4B9B6E13F0D0
:1015E000080FFAD00C4A136B23F4407343F4807352
:1015F0001363094B9B6E13F0080FFAD0064A136B66
:1016000023F0030343F002031363034B9B6E13F0B9
:10161000080FFAD0704700BF00060E4008B5024B15
:101620009847024B984708BD69154000D115400006
:101630000023012B0FD8C3EB03118A0007498A58F6
:10164000824202D00133DBB2F3E7C3EB03139A000B
:101650000846104470470020704700BF5C334000CC
:10166000064B984203D0064B984203D07047054B77
:101670001960F8E7034B5960F8E700BF000002402B
:1016800000C00540C800402008B50369DB6913B1FC
:10169000036803B1984708BD08B5024B1868024BB0
:1016A000984708BDC80040208916400008B5024B85
:1016B0005868024B984708BDC80040208916400072
:1016C000F8B506460C46081C18BF01204FF4BF723F
:1016D0004449454B98472046444B9847054634615A
:1016E00083682360C368E3670369C4F88030436993
:1016F000E3658369A366C369C4F8C030036AE3661F
:10170000436AC4F82C34836AC4F84C34002319E0CB
:101710002F6B180107EB000E3A5CDEF80410103254
:101720005201A1503A5CDEF80C10103204EB421268
:1017300051603A5CDEF8081004EB4212C2F80C1259
:1017400001335BB2EA6A9342E2D3002314E0A96B4F
:1017500003EB4300820001EB020E885CDEF80470AC
:1017600004EB0010C0F838718A5CDEF80810133200
:101770001201A15001335BB26A6B9342E7D3314649
:1017800020461B4B984795F90430002B0DDB5A0976
:1017900003F01F03012101FA03F32032154941F838
:1017A0002230BFF34F8FBFF36F8F95F90430002BBA
:1017B00009DB5A0903F01F03012101FA03F3603228
:1017C0000C4941F8223095F90430002B08DB590907
:1017D00003F01F03012202FA03F3064A42F8213004
:1017E0000020F8BD243440009D1040003116400018
:1017F0006116400000E100E038B5044640F2B51241
:101800000B49003018BF01200A4B984720690A4B4A
:101810009847002308E02169056B1A01AD5C01229D
:10182000AA404A6001335BB2C26A9342F3D338BD27
:10183000243440009D1040003116400010B504468D
:101840004FF4EF720749003018BF0120064B98474C
:101850002369DB6813F00F0F01D0012010BD0020B9
:1018600010BD00BF243440009D1040000020704790
:101870000123036000207047044B0344C3F3074374
:10188000052B01D000207047012070470080FFBF6A
:1018900070B506460C460846204B984700233BB3DC
:1018A000002540F22F121E49002E18BF002C14BF35
:1018B000012000201B4B984755B3236913F4803F48
:1018C00029D18023236034606A68174B134023605A
:1018D000AB68164A1A40164B13436360EB682363E8
:1018E0002B8AF380EB6803F0F0033371002070BDA6
:1018F00003EB83018A000F498A5C904202D00133D6
:10190000DBB2CCE703EB8305AB000D461D44C8E713
:101910006FF00C0070BD6FF0100070BD79184000C2
:10192000503440009D1040007CFFFFFE6FFFF1FF30
:1019300010000E003C34400010B5044668B1036846
:101940004BB1012040F26D120549064B98472068C3
:10195000054B984710BD0020F4E70020F2E700BFD8
:10196000503440009D104000711840002DE9F041B6
:1019700086B007460D4604680B6801934B680293D6
:1019800000230393049303798DF81430261C18BFA9
:1019900001264FF40B72334900280CBF002006F0DB
:1019A0000100314B9847236913F4803F22D16FF037
:1019B000130053E0002335E0507841EA0021023261
:1019C000019201330393E160D4F8108040F21D22AC
:1019D00024493046244B984718F0080F38D06FF050
:1019E0001200002836DB0398AB68984202D3049AB1
:1019F00093422FD9236913F0010FDBD0A3689BB268
:101A0000029A5AB1511C029113709DF81420012AB8
:101A100004D90A46013102911B0A1370049B013359
:101A200004930123002BCFD1039B049A9A42CBD37A
:101A3000F988226912F0020FC6D0019A002AC0D09C
:101A4000511C019111789DF814000128B4D8B8E711
:101A50000020C6E7236913F4007FFBD006B0BDE881
:101A6000F08100BF503440009D10400000207047BE
:101A7000034B6FF07F425A6005221A60704700BF27
:101A800010E000E008B5014B984708BD711A40000E
:101A9000080E0DE00D4B6FF07F40586098600B4BC7
:101AA0001B6813F4803FFAD001F17F4101311046E9
:101AB000431EDAB20028EDD1044B59609960034B04
:101AC0001B6813F4803FFAD0704700BF10E000E0BD
:101AD0000023012B15D810B403EBC3018A000A4977
:101AE0008A58824207D00133DBB2012BF4D900209F
:101AF0005DF8044B704703EBC304A3000846184489
:101B0000F6E70020704700BF00004020064B9842D7
:101B100003D0064B984203D07047054B1960F8E795
:101B2000034B5960F8E700BF00C0004000000140CF
:101B3000E800402008B5C3681B6A13F0100F00D1FD
:101B400008BD03689847FBE7F8B507460C4608460A
:101B5000274B984705468668FC6096222549012058
:101B6000254B984716F4004F01D046F414266660C2
:101B70006B696361AB69A361EB682363EB69E36144
:101B8000102363622B69C4F8D830394620461B4BBA
:101B9000984795F90430002B0DDB5A0903F01F0319
:101BA000012101FA03F32032154941F82230BFF335
:101BB0004F8FBFF36F8F95F90430002B09DB5A0963
:101BC00003F01F03012101FA03F360320C4941F8CD
:101BD000223095F90430002B08DB590903F01F036C
:101BE000012202FA03F3064A42F821300020F8BD30
:101BF000D11A4000683440009D1040000D1B400089
:101C000000E100E0C36805221A607047C368186AE3
:101C1000C0F300407047000008B5C068024B984709
:101C20000079024B984708BDD11A40001D124000B0
:101C30000020704708B5024B1868024B984708BD52
:101C4000E8004020351B400008B5024B5868024BA5
:101C5000984708BDE8004020351B400000233BB1F9
:101C60000020704703EB4304E300084618440CE0EF
:101C700010B403EB4301CA0005498A588242F1D0EF
:101C80000133DBB2002BF4D000205DF8044B704729
:101C90007C34400038B504460D46002818BF0029A2
:101CA00014BF01200020782209490A4B984725617A
:101CB0002846094B984743682B60236982689A63DA
:101CC0002369C2685A64236902691A61002038BD19
:101CD000943440009D1040005D1C400038B504461F
:101CE0000D46002818BF002914BF01200020BA2289
:101CF0005249534B9847638813F4807F40F09A8091
:101D00006B8813F0010F18D16B889BB243F480737A
:101D10006B802B8813F4806F5FD022691B0A43F01D
:101D200078031B0403F4FE0343F4807353602369B8
:101D30002A78DA60002001465CE06B889BB243F4AD
:101D400080736B802B8813F4806F22D022691B0A6A
:101D500043F078031B0403F4FE0343F488535360F9
:101D600023692A78DA6023696A68012A19D0012276
:101D70001A6000216B68994222D223691A6A12F014
:101D8000020F10D11B6A13F4807FF6D06FF00100B0
:101D900038BD22691B0403F4FE0343F480535360EF
:101DA000E1E70322E4E7AA681B6B53546B68023B2C
:101DB000994201D00131DDE7236902221A60F9E777
:101DC00023691B6A13F0010FFAD063889BB223F4D6
:101DD00080739BB26380002038BD22691B0403F42A
:101DE000FE035360A6E76FF0010078B9AB685B5C57
:101DF000536301316B68994208D22269136A13F464
:101E0000807FF0D113F0040FF7D0EEE76B8813F466
:101E1000004F06D163889BB223F480739BB263802A
:101E200038BD236902221A6023691B6A13F0010F6F
:101E3000FAD0EFE76FF0050038BD00BF94344000E2
:101E40009D10400010B5044668B103684BB10120F5
:101E500033220649064B98472368064A5A600020F9
:101E600010BD0020F4E70020F2E700BFB0344000CE
:101E70009D104000FFAFFF3FF0B58FB04FF47A7672
:101E80003246002159485A4FB84732460021594836
:101E9000B847324600215848B847324600215748D3
:101EA000B84700250D95564B98470020554B98474D
:101EB00000240EA800F8054D534B984720222146D8
:101EC00004A8B84704A8514B98474FF4FA70504BF8
:101ED0009847504B9847504B98475048504FB847F9
:101EE0005048B84703950295019500952146204634
:101EF0004D4DA84721460120A84721460220A8476A
:101F000021460320A8472046484B9847484B98470E
:101F1000484B9847484B98473046484EB04741F2A7
:101F20002E312046A84741F22E310120A84741F228
:101F30002E310220A84741F22E310320A8474FF04E
:101F400080433F4A13603F4A13603F4A13603F4A51
:101F500013604FF47A60B04720E004A83C4B9847E8
:101F60000398012204A93B4DA8470298032204A923
:101F7000A8470198052204A9A8470098072204A9A8
:101F8000A8472022002104A8194B984710E00022FE
:101F9000314B1A70314A1368013313602F4B1B68A1
:101FA000B3F57A7F16DA01202D4B98470028D4D15B
:101FB000294B1B78002BEAD0002CE8D1234B1B685F
:101FC000214A12681F4909681D480068254CA0472E
:101FD0000446DCE700231A4A13601A4A13601B4ABE
:101FE0001360194A136000200FB0F0BD3821402063
:101FF000A5314000F4014020DC3040209811402001
:10200000E90140006102400055254000F9264000EA
:102010002D0A4000D52740006D0940002C014020CA
:102020000D0D400084014020452840008D284000CF
:10203000C5014000BD284000F12840004D0A400085
:10204000DC014020D83040207C40402094114020CA
:10205000792640008525400028014020F0004020DE
:10206000AD27400069224000F8B50C4BD3E900676A
:102070000B4CD4E90423304639460A4DA8470A4B95
:1020800098470A4BD3ED007AC4E9046707EE100ABB
:1020900067EE277A17EE900AF8BD00BF780040205F
:1020A000F800402031294000BD3040004800402069
:1020B000F8B50C4BD3E900670B4CD4E90623304646
:1020C00039460A4DA8470A4B98470A4BD3ED007A88
:1020D000C4E9066707EE100A67EE277A17EE900A42
:1020E000F8BD00BF70004020F800402031294000BA
:1020F000BD30400048004020F8B50C4BD3E90067E4
:102100000B4CD4E90823304639460A4DA8470A4B00
:1021100098470A4BD3ED007AC4E9086707EE100A26
:1021200067EE277A17EE900AF8BD00BF80004020C6
:10213000F800402031294000BD30400048004020D8
:10214000F8B50C4BD3E900670B4CD4E90A233046B1
:1021500039460A4DA8470A4B98470A4BD3ED007AF7
:10216000C4E90A6707EE100A67EE277A17EE900AAD
:10217000F8BD00BF88004020F80040203129400011
:10218000BD3040004800402010B582B0A8B90846D4
:10219000194B984714A3D3E90023184CA047184CB7
:1021A00013A3D3E90023A0470022164BA047164BE8
:1021B00098470190019802B010BD08460E4B984711
:1021C00009A3D3E900230D4CA047104C02460B464F
:1021D00007A1D1E90001A04700220A4BA0470A4B02
:1021E00098470190E6E700BF3333333333334C4035
:1021F00000000000002EB340F12B4000992C40005D
:102200003529400000003E40BD30400031294000EB
:1022100010B52DED048B08EE100A09EE102A08EE19
:10222000903A07EE901AFCEEE77A17EE901A00202B
:102230000B4CA047FCEEC97A17EE901A0120A0477C
:10224000FCEEE87A17EE901A0220A047FCEEC87A5E
:1022500017EE901A0320A047BDEC048B10BD00BF01
:1022600045284000000000002DE9F04F2DED068BC1
:102270008BB009EE900A09EE101A08EE902A08EECB
:10228000103A9F4B984709909E4B984708909E4B59
:10229000984707909D4B98470690DDED087A79EEB8
:1022A000E77ACDED057ADDED097A79EE677ACDED45
:1022B000047ADDED077A78EEE77ACDED037ADDED8D
:1022C000067A78EE677ACDED027A05990020904C77
:1022D000A047059004990120A0470490029901208D
:1022E000A047029003990120A04703909DED056A45
:1022F000884BD3ED017A36EE276A83ED016ADDED76
:10230000046AD3ED007A76EEA76AC3ED006A9DED0C
:10231000037AD3ED027A37EE277A83ED027AD3ED92
:10232000037A77EEA77AC3ED037A7B4B1B68B3F58C
:102330007A7F13DC08989A0078491144086009985C
:102340007749114408600698764911440860079857
:1023500075490A44106001336F4A1360DFED735A08
:10236000B4EEE56AF1EE10FA02DD6A4BC3ED015AF4
:10237000684BD3ED015A9FED6E6AF4EEC65AF1EE4A
:1023800010FA01D583ED016A9FED686AF4EEC66A22
:10239000F1EE10FA02DD5F4B83ED006A5D4B93EDC9
:1023A000006ADFED636AB4EEE66AF1EE10FA01D579
:1023B000C3ED006ADFED5D6AB4EEE67AF1EE10FA85
:1023C00002DD544BC3ED026A524BD3ED026A9FED1E
:1023D000587AF4EEC76AF1EE10FA01D583ED027A6D
:1023E0009FED527AF4EEC77AF1EE10FA02DD494B16
:1023F00083ED037A474B93ED037ADFED4D7AB4EE2C
:10240000E77AF1EE10FA01D5C3ED037A0598494C4D
:10241000A047804689463F4F7868A047464E36A37E
:10242000D3E90023B04702460B4640464946434D98
:10243000A847434DA84783460498A047804689464D
:102440003868A0472CA3D3E90023B047DFF800A1E8
:1024500002460B4640464946D047A8470AEE100AB6
:102460000398A04780468946B868A04722A3D3E9CD
:102470000023B04702460B4640464946D047A8478E
:1024800080460298A047CDE90001F868A0471AA34A
:10249000D3E90023B04702460B46DDE90001D047EF
:1024A000A8470346F5EE409AF1EE10FA01D1DFF8A5
:1024B00098B0B5EE409AF1EE10FA01D19FED21AA45
:1024C000F5EE408AF1EE10FA01D1DFF87C80B5EE2E
:1024D000408AF1EE10FA00D11B4B42461AEE101A58
:1024E00058461A4CA04700200BB0BDEC068BBDE847
:1024F000F08F00BFAFF300807B14AE47E17A843FDA
:10250000B120400069204000F920400041214000F6
:1025100089214000F8004020F4004020382140206C
:10252000F4014020DC304020981140200000E145BB
:102530000000E1C5F12B4000992C400035294000F6
:10254000BD3040000070994500709945112240004F
:10255000312940000A4AD36BC3F30033D16BC1F376
:10256000403103EB4103D16BC1F3803103EB8103B5
:10257000D26BC2F3C032D20052FA83F303707047B9
:1025800000140E404FF48072014B1A63704700BF75
:1025900000140E4030B583B040F020008DF80400E8
:1025A0008DF80510054C08256563022201A9044B2E
:1025B0001868044B9847256303B030BD00100E40E7
:1025C00098404020550C40002DE9F04383B08846E8
:1025D000914640F0200002A901F8010D084C0825A1
:1025E0006563084F01223868074EB0471FFA89F229
:1025F00041463868B047256303B0BDE8F08300BFAB
:1026000000100E4098404020550C400070B582B03C
:1026100002A901F8020D094C08256563084E012244
:102620003068084B984701220DF107013068064BCE
:10263000984725639DF8070002B070BD00100E405A
:1026400098404020550C4000850C400030B583B0C8
:1026500002A901F8010D054C082565630122044B10
:102660001868044B9847256303B030BD00100E4036
:1026700098404020550C400070B582B002A96123FB
:1026800001F8013D134C08256563134E01223068A3
:10269000124B98472022124B19683068114B98470B
:1026A00025630B20104B9847E2208DF807000F4B55
:1026B000984707200E4B984740F04001C9B20720C9
:1026C0000C4B9847002300E001331F2BFCDD02B0C8
:1026D00070BD00BF00100E4098404020550C4000D7
:1026E00094404020850C40002D0A40004D264000BB
:1026F0000D2640009525400030B583B005461F4C9F
:102700001F4920461F4B984720461F4B98471F4B99
:102710001D6004251E4B5D63002108461D4CA0472B
:1027200007201D4B984740F04001C9B20720A04741
:1027300000210120A04700210220A04703210846D4
:10274000A04700212846A04778210520A047062160
:102750000846A047114B93E8030000908DF8041041
:102760000522694610200E4B984702210020A04701
:102770000C4921200C4B984703B030BD6C01402020
:1027800098404020990E4000B90D400094404020F0
:1027900000140E40952540000D264000C83440002E
:1027A000C925400079264000E50A400008B5072009
:1027B000064B984700F04200422801D0002008BD97
:1027C00040210720024B9847012008BD0D264000FC
:1027D0009525400010B582B000200F4B984740F07F
:1027E0000101C9B200200D4CA04702210846A047B4
:1027F0000B4B93E8030000908DF804100522694606
:102800000B20084B984720211220A0470422064B9A
:102810001A6302B010BD00BF0D2640009525400090
:10282000C8344000C925400000140E400369490126
:102830000B44C3F80822036919444FF4B753C1F895
:102840001032704708B503281AD8DFE800F00208F4
:102850000E140A4602210B480B4B984708BD0A4646
:1028600003210848084B984708BD0A46012105483E
:10287000054B984708BD0A4600210248024B98477D
:1028800008BD00BF2C0140202D28400008B502469D
:1028900000210248024B984708BD00BF8401402038
:1028A0002D2840000122014B1A707047280140205A
:1028B0000122014B5A7070472801402010B507498A
:1028C0000A238B60064BCB6001230B74054C20461A
:1028D000054B98472046054B984710BDE001402026
:1028E000A5284000C0014020F50F4000B90F40006E
:1028F00010B508494FF4FA738B60074BCB60012386
:102900000B74064C2046064B98472046054B9847CB
:1029100010BD00BF80404020B12840005001402041
:10292000F50F4000B90F400081F0004102E000BF08
:1029300083F0004330B54FEA41044FEA430594EA7F
:10294000050F08BF90EA020F1FBF54EA000C55EABA
:10295000020C7FEA645C7FEA655C00F0E2804FEA8B
:102960005454D4EB5555B8BF6D420CDD2C4480EA6D
:10297000020281EA030382EA000083EA010180EA9D
:10298000020281EA0303362D88BF30BD11F0004FEB
:102990004FEA01314FF4801C4CEA113102D0404221
:1029A00061EB410113F0004F4FEA03334CEA13335C
:1029B00002D0524263EB430394EA050F00F0A78074
:1029C000A4F10104D5F1200E0DDB02FA0EFC22FA6F
:1029D00005F2801841F1000103FA0EF2801843FA63
:1029E00005F359410EE0A5F120050EF1200E012A54
:1029F00003FA0EFC28BF4CF0020C43FA05F3C01892
:102A000051EBE37101F0004507D54FF0000EDCF10A
:102A1000000C7EEB00006EEB0101B1F5801F1BD3B3
:102A2000B1F5001F0CD349085FEA30004FEA3C0CB7
:102A300004F101044FEA445212F5800F80F09A80AD
:102A4000BCF1004F08BF5FEA500C50F1000041EBB1
:102A5000045141EA050130BD5FEA4C0C404141EBB5
:102A6000010111F4801FA4F10104E9D191F0000FDC
:102A700004BF01460020B1FA81F308BF2033A3F15F
:102A80000B03B3F120020CDA0C3208DD02F1140C56
:102A9000C2F10C0201FA0CF021FA02F10CE002F191
:102AA0001402D8BFC2F1200C01FA02F120FA0CFC8A
:102AB000DCBF41EA0C019040E41AA2BF01EB0451D3
:102AC000294330BD6FEA04041F3C1CDA0C340EDCD1
:102AD00004F11404C4F1200220FA04F001FA02F314
:102AE00040EA030021FA04F345EA030130BDC4F1D2
:102AF0000C04C4F1200220FA02F001FA04F340EAC7
:102B00000300294630BD21FA04F0294630BD94F077
:102B1000000F83F4801306BF81F480110134013D5E
:102B20004EE77FEA645C18BF7FEA655C29D094EACF
:102B3000050F08BF90EA020F05D054EA000C04BF4D
:102B40001946104630BD91EA030F1EBF0021002038
:102B500030BD5FEA545C05D14000494128BF41F0D7
:102B6000004130BD14F580043CBF01F5801130BD3B
:102B700001F0004545F0FE4141F470014FF00000C6
:102B800030BD7FEA645C1ABF194610467FEA655C77
:102B90001CBF0B46024650EA013406BF52EA033519
:102BA00091EA030F41F4002130BD00BF90F0000F07
:102BB00004BF0021704730B54FF4806404F1320443
:102BC0004FF000054FF0000150E700BF90F0000FFC
:102BD00004BF0021704730B54FF4806404F1320423
:102BE00010F0004548BF40424FF000013EE700BFF3
:102BF00042004FEAE2014FEA31014FEA02701FBF83
:102C000012F07F4393F07F4F81F06051704792F054
:102C1000000F14BF93F07F4F704730B54FF46074CE
:102C200001F0004521F0004120E700BF50EA010219
:102C300008BF704730B54FF000050AE050EA0102C6
:102C400008BF704730B511F0004502D5404261EB36
:102C500041014FF4806404F132045FEA915C3FF477
:102C6000DCAE4FF003025FEADC0C18BF03325FEA10
:102C7000DC0C18BF033202EBDC02C2F1200300FAC5
:102C800003FC20FA02F001FA03FE40EA0E0021FAEA
:102C900002F11444C1E600BF70B54FF0FF0C4CF4D4
:102CA000E06C1CEA11541DBF1CEA135594EA0C0F8A
:102CB00095EA0C0F00F0DEF82C4481EA030621EAC5
:102CC0004C5123EA4C5350EA013518BF52EA033500
:102CD00041F4801143F4801338D0A0FB02CE4FF0B2
:102CE0000005E1FB02E506F00042E0FB03E54FF0E2
:102CF0000006E1FB03569CF0000F18BF4EF0010EDA
:102D0000A4F1FF04B6F5007F64F5407404D25FEAD5
:102D10004E0E6D4146EB060642EAC62141EA555188
:102D20004FEAC52040EA5E504FEACE2EB4F1FD0CCA
:102D300088BFBCF5E06F1ED8BEF1004F08BF5FEA48
:102D4000500E50F1000041EB045170BD06F00046FA
:102D500046EA010140EA020081EA0301B4EB5C04A7
:102D6000C2BFD4EB0C0541EA045170BD41F480119F
:102D70004FF0000E013C00F3AB8014F1360FDEBFC4
:102D8000002001F0004170BDC4F10004203C35DAA0
:102D90000C341BDC04F11404C4F1200500FA05F323
:102DA00020FA04F001FA05F240EA020001F00042C4
:102DB00021F0004110EBD37021FA04F642EB06013A
:102DC0005EEA430E08BF20EAD37070BDC4F10C0464
:102DD000C4F1200500FA04F320FA05F001FA04F228
:102DE00040EA020001F0004110EBD37041F1000114
:102DF0005EEA430E08BF20EAD37070BDC4F120051F
:102E000000FA05F24EEA020E20FA04F301FA05F286
:102E100043EA020321FA04F001F0004121FA04F22E
:102E200020EA020000EBD3705EEA430E08BF20EAFE
:102E3000D37070BD94F0000F0FD101F00046400038
:102E400041EB010111F4801F08BF013CF7D041EABA
:102E5000060195F0000F18BF704703F000465200BE
:102E600043EB030313F4801F08BF013DF7D043EA8F
:102E70000603704794EA0C0F0CEA135518BF95EA45
:102E80000C0F0CD050EA410618BF52EA4306D1D1CC
:102E900081EA030101F000414FF0000070BD50EAEB
:102EA000410606BF1046194652EA430619D094EA75
:102EB0000C0F02D150EA013613D195EA0C0F05D15F
:102EC00052EA03361CBF104619460AD181EA0301B3
:102ED00001F0004141F0FE4141F470014FF000006B
:102EE00070BD41F0FE4141F4780170BD70B54FF006
:102EF000FF0C4CF4E06C1CEA11541DBF1CEA135586
:102F000094EA0C0F95EA0C0F00F0A7F8A4EB050467
:102F100081EA030E52EA03354FEA013100F088805E
:102F20004FEA03334FF0805545EA131343EA126327
:102F30004FEA022245EA111545EA10654FEA0026DC
:102F40000EF000419D4208BF964244F1FD0404F595
:102F5000407402D25B084FEA3202B61A65EB0305F1
:102F60005B084FEA32024FF480104FF4002CB6EBAE
:102F7000020E75EB030E22BFB61A754640EA0C002E
:102F80005B084FEA3202B6EB020E75EB030E22BF6E
:102F9000B61A754640EA5C005B084FEA3202B6EBAF
:102FA000020E75EB030E22BFB61A754640EA9C006E
:102FB0005B084FEA3202B6EB020E75EB030E22BF3E
:102FC000B61A754640EADC0055EA060E18D04FEAFC
:102FD000051545EA16754FEA06164FEAC30343EA9C
:102FE00052734FEAC2025FEA1C1CC0D111F4801F69
:102FF0000BD141EA00014FF000004FF0004CB6E762
:1030000011F4801F04BF01430020B4F1FD0C88BF00
:10301000BCF5E06F3FF6AFAEB5EB030C04BFB6EB0B
:10302000020C5FEA500C50F1000041EB045170BDFE
:103030000EF0004E4EEA113114EB5C04C2BFD4EB2B
:103040000C0541EA045170BD41F480114FF0000EAF
:10305000013C90E645EA060E8DE60CEA135594EA2B
:103060000C0F08BF95EA0C0F3FF43BAF94EA0C0F2E
:103070000AD150EA01347FF434AF95EA0C0F7FF4A3
:1030800025AF104619462CE795EA0C0F06D152EAF7
:1030900003353FF4FDAE1046194622E750EA4106DB
:1030A00018BF52EA43067FF4C5AE50EA41047FF4EC
:1030B0000DAF52EA43057FF4EBAE12E74FEA41024F
:1030C000B2F1E04324BFB3F5001CDCF1FE5C0DD986
:1030D00001F0004C4FEAC0024CEA5070B2F1004FD0
:1030E00040EB830008BF20F00100704711F0804FD3
:1030F00021D113F13872BCBF01F00040704741F498
:1031000080114FEA5252C2F11802C2F1200C10FA9B
:103110000CF320FA02F018BF40F001004FEAC1237F
:103120004FEAD32303FA0CFC40EA0C0023FA02F323
:103130004FEA4303CCE77FEA625307D150EA0133F9
:103140001EBF4FF0FE4040F44000704701F00040C9
:1031500040F0FE4040F40000704700BF70B50D4ED7
:103160000D4CA41BA4100025A54209D10B4E0C4CFC
:1031700000F0AEF9A41BA4100025A54205D170BD36
:1031800056F8253098470135EEE756F82530984730
:103190000135F2E7DC344000DC344000DC34400030
:1031A000E034400002440346934200D1704703F8E4
:1031B000011BF9E72E2E2F68616C2F696E636C7509
:1031C00064652F68616C5F7764742E68000000008E
:1031D0002E2E2F68616C2F7372632F68616C5F6194
:1031E00064635F73796E632E630000002E2E2F6878
:1031F000616C2F7372632F68616C5F6932635F6DFE
:103200005F73796E632E63002E2E2F68616C2F73AF
:1032100072632F68616C5F696F2E63002E2E2F68BA
:10322000616C2F7372632F68616C5F70776D2E63B2
:10323000000000002E2E2F68616C2F7372632F68C0
:10324000616C5F7370695F6D5F73796E632E63008D
:103250002E2E2F68616C2F7372632F68616C5F7400
:10326000696D65722E6300002E2E2F68616C2F75BC
:1032700074696C732F7372632F7574696C735F6CF0
:103280006973742E63000000000000000031842F79
:1032900000000003FFFFFFFFFFFF00000000000031
:1032A00000000000000000000C0100000000000011
:1032B000000000000000000000000000000200000C
:1032C00000020000000200000002000000020000F6
:1032D00000020000000200000002000000020000E6
:1032E0000002000000020000000200002E2E2F68E5
:1032F000706C2F616665632F68706C5F61666563D3
:103300002E630000000000000080C0032080C00386
:103310002080C003000000000000C00320800000E7
:103320000100000002000000F2000000F2000000B6
:1033300000000000F0000000020000000A0B100076
:103340002E2E2F68706C2F70696F2F68706C5F70F5
:10335000696F5F6578742E63000000000000024012
:103360001F0000000100010001000000010000003A
:10337000FF0000000000000004000000000000004A
:10338000000000000000000004000000E4334000E2
:1033900000000000DC00402000C005403C000000B0
:1033A000010001000100000001000000FF0000001A
:1033B0000000000004000000000000000000000009
:1033C0000000000001000000D433400000000000B5
:1033D000D0004020000000000802000000040000AF
:1033E00000020000000000000702000000040000CE
:1033F00000020000010000000702000000040000BD
:1034000000020000020000000702000000040000AB
:10341000000200000300000007020000000400009A
:10342000000200002E2E2F68706C2F70776D2F68B1
:10343000706C5F70776D2E6300000000000000006C
:10344000000000800100000002FA9604FFFF000067
:103450002E2E2F68706C2F7370692F68706C5F73DD
:1034600070692E63000000002E2E2F68706C2F7480
:10347000632F68706C5F74632E63000000800140EE
:10348000200000000000000000000000BABA0200A6
:10349000F04902002E2E2F68706C2F7477696873C4
:1034A0002F68706C5F74776968732E63000000008A
:1034B0002E2E2F68706C2F7764742F68706C5F7776
:1034C00064742E6300000000EEDDCCBBAA00000097
:1034D000F8B500BFF8BC08BC9E4670477D014000AF
:1034E000F8B500BFF8BC08BC9E46704759014000C3
:1034F00000C000401700000001C0000000000000F4
:10350000000000009F240000000000003E49000071
:1035100000000000000001401A00000001C000008F
:1035200000000000000000009F24000000000000D8
:103530003E490000000000008BECAF3D33131D40FE
:0400000500400000B7
:00000001FF
